{"contracts/SternEscrow.sol":{"SternEscrow":{"abi":[{"inputs":[{"internalType":"address","name":"initialOwner","type":"address"},{"internalType":"address[]","name":"initialOracles","type":"address[]"},{"internalType":"uint256","name":"quorum","type":"uint256"},{"internalType":"uint256","name":"bondAmount","type":"uint256"},{"internalType":"uint256","name":"confirmations","type":"uint256"}],"stateMutability":"nonpayable","type":"constructor"},{"inputs":[],"name":"EnforcedPause","type":"error"},{"inputs":[],"name":"ExpectedPause","type":"error"},{"inputs":[{"internalType":"address","name":"owner","type":"address"}],"name":"OwnableInvalidOwner","type":"error"},{"inputs":[{"internalType":"address","name":"account","type":"address"}],"name":"OwnableUnauthorizedAccount","type":"error"},{"inputs":[],"name":"ReentrancyGuardReentrantCall","type":"error"},{"anonymous":false,"inputs":[{"indexed":true,"internalType":"uint256","name":"escrowId","type":"uint256"},{"indexed":true,"internalType":"address","name":"oracle","type":"address"},{"indexed":false,"internalType":"bool","name":"vgmMatch","type":"bool"},{"indexed":false,"internalType":"bool","name":"aisDeparted","type":"bool"},{"indexed":false,"internalType":"bool","name":"ceisaApproved","type":"bool"},{"indexed":false,"internalType":"bool","name":"eblCidValid","type":"bool"},{"indexed":false,"internalType":"bool","name":"inspectionPassed","type":"bool"}],"name":"AttestationSubmitted","type":"event"},{"anonymous":false,"inputs":[{"indexed":true,"internalType":"uint256","name":"escrowId","type":"uint256"},{"indexed":false,"internalType":"uint256","name":"newDeadline","type":"uint256"}],"name":"DeadlineExtended","type":"event"},{"anonymous":false,"inputs":[{"indexed":true,"internalType":"uint256","name":"escrowId","type":"uint256"},{"indexed":true,"internalType":"address","name":"proposer","type":"address"},{"indexed":false,"internalType":"uint256","name":"newDeadline","type":"uint256"}],"name":"DeadlineExtensionProposed","type":"event"},{"anonymous":false,"inputs":[{"indexed":true,"internalType":"uint256","name":"escrowId","type":"uint256"},{"indexed":true,"internalType":"address","name":"openedBy","type":"address"}],"name":"DisputeOpened","type":"event"},{"anonymous":false,"inputs":[{"indexed":true,"internalType":"uint256","name":"escrowId","type":"uint256"},{"indexed":false,"internalType":"bool","name":"releasedToExporter","type":"bool"}],"name":"DisputeResolved","type":"event"},{"anonymous":false,"inputs":[{"indexed":true,"internalType":"uint256","name":"escrowId","type":"uint256"},{"indexed":true,"internalType":"address","name":"voter","type":"address"},{"indexed":false,"internalType":"bool","name":"releaseToExporter","type":"bool"}],"name":"DisputeVote","type":"event"},{"anonymous":false,"inputs":[{"indexed":true,"internalType":"uint256","name":"escrowId","type":"uint256"},{"indexed":false,"internalType":"string","name":"eBLCID","type":"string"},{"indexed":true,"internalType":"address","name":"newHolder","type":"address"}],"name":"EBLTransferred","type":"event"},{"anonymous":false,"inputs":[{"indexed":true,"internalType":"uint256","name":"escrowId","type":"uint256"},{"indexed":true,"internalType":"address","name":"importer","type":"address"},{"indexed":true,"internalType":"address","name":"exporter","type":"address"},{"indexed":false,"internalType":"address","name":"arbiter","type":"address"},{"indexed":false,"internalType":"uint256","name":"value","type":"uint256"},{"indexed":false,"internalType":"string","name":"eBLCID","type":"string"},{"indexed":false,"internalType":"string","name":"commodity","type":"string"},{"indexed":false,"internalType":"string","name":"containerRef","type":"string"},{"indexed":false,"internalType":"uint256","name":"deadline","type":"uint256"}],"name":"EscrowCreated","type":"event"},{"anonymous":false,"inputs":[{"indexed":true,"internalType":"uint256","name":"escrowId","type":"uint256"},{"indexed":true,"internalType":"address","name":"exporter","type":"address"},{"indexed":false,"internalType":"uint256","name":"amount","type":"uint256"}],"name":"FundsReleased","type":"event"},{"anonymous":false,"inputs":[{"indexed":true,"internalType":"address","name":"oracle","type":"address"},{"indexed":false,"internalType":"uint256","name":"amount","type":"uint256"},{"indexed":false,"internalType":"uint256","name":"totalBond","type":"uint256"}],"name":"OracleBonded","type":"event"},{"anonymous":false,"inputs":[{"indexed":true,"internalType":"uint256","name":"escrowId","type":"uint256"},{"indexed":true,"internalType":"address","name":"oracle","type":"address"},{"indexed":false,"internalType":"uint256","name":"amount","type":"uint256"}],"name":"OracleSlashed","type":"event"},{"anonymous":false,"inputs":[{"indexed":true,"internalType":"uint256","name":"escrowId","type":"uint256"},{"indexed":false,"internalType":"bool","name":"vgmMatch","type":"bool"},{"indexed":false,"internalType":"bool","name":"aisDeparted","type":"bool"},{"indexed":false,"internalType":"bool","name":"ceisaApproved","type":"bool"},{"indexed":false,"internalType":"bool","name":"eblCidValid","type":"bool"},{"indexed":false,"internalType":"bool","name":"inspectionPassed","type":"bool"}],"name":"OracleVerificationSubmitted","type":"event"},{"anonymous":false,"inputs":[{"indexed":true,"internalType":"address","name":"previousOwner","type":"address"},{"indexed":true,"internalType":"address","name":"newOwner","type":"address"}],"name":"OwnershipTransferred","type":"event"},{"anonymous":false,"inputs":[{"indexed":false,"internalType":"address","name":"account","type":"address"}],"name":"Paused","type":"event"},{"anonymous":false,"inputs":[{"indexed":true,"internalType":"uint256","name":"escrowId","type":"uint256"},{"indexed":true,"internalType":"address","name":"importer","type":"address"},{"indexed":false,"internalType":"uint256","name":"amount","type":"uint256"}],"name":"Refunded","type":"event"},{"anonymous":false,"inputs":[{"indexed":true,"internalType":"address","name":"to","type":"address"},{"indexed":false,"internalType":"uint256","name":"amount","type":"uint256"}],"name":"TreasuryWithdrawn","type":"event"},{"anonymous":false,"inputs":[{"indexed":false,"internalType":"address","name":"account","type":"address"}],"name":"Unpaused","type":"event"},{"inputs":[],"name":"SLASH_BPS","outputs":[{"internalType":"uint256","name":"","type":"uint256"}],"stateMutability":"view","type":"function"},{"inputs":[{"internalType":"uint256","name":"escrowId","type":"uint256"}],"name":"approveDeadlineExtension","outputs":[],"stateMutability":"nonpayable","type":"function"},{"inputs":[{"internalType":"uint256","name":"escrowId","type":"uint256"}],"name":"claimRefund","outputs":[],"stateMutability":"nonpayable","type":"function"},{"inputs":[{"internalType":"address payable","name":"exporterAddress","type":"address"},{"internalType":"address","name":"arbiterAddress","type":"address"},{"internalType":"string","name":"eBLCID","type":"string"},{"internalType":"uint256","name":"deadline","type":"uint256"},{"internalType":"string","name":"commodity","type":"string"},{"internalType":"string","name":"containerRef","type":"string"}],"name":"createEscrow","outputs":[{"internalType":"uint256","name":"escrowId","type":"uint256"}],"stateMutability":"payable","type":"function"},{"inputs":[{"internalType":"uint256","name":"","type":"uint256"},{"internalType":"address","name":"","type":"address"}],"name":"disputeVoted","outputs":[{"internalType":"bool","name":"","type":"bool"}],"stateMutability":"view","type":"function"},{"inputs":[{"internalType":"uint256","name":"","type":"uint256"}],"name":"extensionProposer","outputs":[{"internalType":"address","name":"","type":"address"}],"stateMutability":"view","type":"function"},{"inputs":[{"internalType":"uint256","name":"escrowId","type":"uint256"},{"internalType":"address","name":"oracle","type":"address"}],"name":"getAttestation","outputs":[{"components":[{"internalType":"bool","name":"submitted","type":"bool"},{"internalType":"bool","name":"vgmMatch","type":"bool"},{"internalType":"bool","name":"aisDeparted","type":"bool"},{"internalType":"bool","name":"ceisaApproved","type":"bool"},{"internalType":"bool","name":"eblCidValid","type":"bool"},{"internalType":"bool","name":"inspectionPassed","type":"bool"}],"internalType":"struct SternEscrow.OracleAttestation","name":"","type":"tuple"}],"stateMutability":"view","type":"function"},{"inputs":[{"internalType":"uint256","name":"escrowId","type":"uint256"}],"name":"getEscrow","outputs":[{"components":[{"internalType":"uint256","name":"contractValue","type":"uint256"},{"internalType":"address payable","name":"exporterAddress","type":"address"},{"internalType":"address payable","name":"importerAddress","type":"address"},{"internalType":"address","name":"arbiterAddress","type":"address"},{"internalType":"string","name":"eBLCID","type":"string"},{"internalType":"uint256","name":"deadline","type":"uint256"},{"internalType":"uint256","name":"createdBlock","type":"uint256"},{"internalType":"string","name":"commodity","type":"string"},{"internalType":"string","name":"containerRef","type":"string"},{"internalType":"enum SternEscrow.State","name":"state","type":"uint8"},{"components":[{"internalType":"bool","name":"vgmMatch","type":"bool"},{"internalType":"bool","name":"aisDeparted","type":"bool"},{"internalType":"bool","name":"ceisaApproved","type":"bool"},{"internalType":"bool","name":"eblCidValid","type":"bool"},{"internalType":"bool","name":"inspectionPassed","type":"bool"},{"internalType":"uint256","name":"submittedAtBlock","type":"uint256"}],"internalType":"struct SternEscrow.Verification","name":"verification","type":"tuple"},{"internalType":"uint8","name":"releaseApprovals","type":"uint8"},{"internalType":"uint8","name":"refundApprovals","type":"uint8"}],"internalType":"struct SternEscrow.Escrow","name":"","type":"tuple"}],"stateMutability":"view","type":"function"},{"inputs":[],"name":"getOracles","outputs":[{"internalType":"address[]","name":"addrs","type":"address[]"},{"internalType":"uint256[]","name":"bonds","type":"uint256[]"},{"internalType":"uint256[]","name":"slashes","type":"uint256[]"}],"stateMutability":"view","type":"function"},{"inputs":[{"internalType":"address","name":"","type":"address"}],"name":"isOracle","outputs":[{"internalType":"bool","name":"","type":"bool"}],"stateMutability":"view","type":"function"},{"inputs":[{"internalType":"uint256","name":"escrowId","type":"uint256"}],"name":"isReleaseEligible","outputs":[{"internalType":"bool","name":"","type":"bool"}],"stateMutability":"view","type":"function"},{"inputs":[],"name":"nextEscrowId","outputs":[{"internalType":"uint256","name":"","type":"uint256"}],"stateMutability":"view","type":"function"},{"inputs":[{"internalType":"uint256","name":"escrowId","type":"uint256"}],"name":"openDispute","outputs":[],"stateMutability":"nonpayable","type":"function"},{"inputs":[],"name":"oracleBond","outputs":[{"internalType":"uint256","name":"","type":"uint256"}],"stateMutability":"view","type":"function"},{"inputs":[{"internalType":"address","name":"","type":"address"}],"name":"oracleBonds","outputs":[{"internalType":"uint256","name":"","type":"uint256"}],"stateMutability":"view","type":"function"},{"inputs":[],"name":"oracleQuorum","outputs":[{"internalType":"uint256","name":"","type":"uint256"}],"stateMutability":"view","type":"function"},{"inputs":[{"internalType":"address","name":"","type":"address"}],"name":"oracleSlashCount","outputs":[{"internalType":"uint256","name":"","type":"uint256"}],"stateMutability":"view","type":"function"},{"inputs":[],"name":"owner","outputs":[{"internalType":"address","name":"","type":"address"}],"stateMutability":"view","type":"function"},{"inputs":[],"name":"pause","outputs":[],"stateMutability":"nonpayable","type":"function"},{"inputs":[],"name":"paused","outputs":[{"internalType":"bool","name":"","type":"bool"}],"stateMutability":"view","type":"function"},{"inputs":[{"internalType":"uint256","name":"","type":"uint256"}],"name":"pendingDeadline","outputs":[{"internalType":"uint256","name":"","type":"uint256"}],"stateMutability":"view","type":"function"},{"inputs":[],"name":"postBond","outputs":[],"stateMutability":"payable","type":"function"},{"inputs":[{"internalType":"uint256","name":"escrowId","type":"uint256"},{"internalType":"uint256","name":"newDeadline","type":"uint256"}],"name":"proposeDeadlineExtension","outputs":[],"stateMutability":"nonpayable","type":"function"},{"inputs":[{"internalType":"uint256","name":"escrowId","type":"uint256"}],"name":"releaseEscrow","outputs":[],"stateMutability":"nonpayable","type":"function"},{"inputs":[],"name":"renounceOwnership","outputs":[],"stateMutability":"nonpayable","type":"function"},{"inputs":[],"name":"requiredConfirmations","outputs":[{"internalType":"uint256","name":"","type":"uint256"}],"stateMutability":"view","type":"function"},{"inputs":[{"internalType":"uint256","name":"","type":"uint256"},{"internalType":"address","name":"","type":"address"}],"name":"slashedFor","outputs":[{"internalType":"bool","name":"","type":"bool"}],"stateMutability":"view","type":"function"},{"inputs":[{"internalType":"uint256","name":"escrowId","type":"uint256"},{"internalType":"bool","name":"vgmMatch","type":"bool"},{"internalType":"bool","name":"aisDeparted","type":"bool"},{"internalType":"bool","name":"ceisaApproved","type":"bool"},{"internalType":"bool","name":"eblCidValid","type":"bool"},{"internalType":"bool","name":"inspectionPassed","type":"bool"}],"name":"submitAttestation","outputs":[],"stateMutability":"nonpayable","type":"function"},{"inputs":[{"internalType":"address","name":"newOwner","type":"address"}],"name":"transferOwnership","outputs":[],"stateMutability":"nonpayable","type":"function"},{"inputs":[],"name":"treasury","outputs":[{"internalType":"uint256","name":"","type":"uint256"}],"stateMutability":"view","type":"function"},{"inputs":[],"name":"unpause","outputs":[],"stateMutability":"nonpayable","type":"function"},{"inputs":[{"internalType":"uint256","name":"escrowId","type":"uint256"},{"internalType":"bool","name":"releaseToExporter","type":"bool"}],"name":"voteDisputeResolution","outputs":[],"stateMutability":"nonpayable","type":"function"},{"inputs":[],"name":"withdrawTreasury","outputs":[],"stateMutability":"nonpayable","type":"function"}],"evm":{"bytecode":{"linkReferences":{},"object":"604060e081523462000418576200374e803803806200001e8162000433565b92833981019060a08183031262000418576200003a8162000459565b6020828101519093906001600160401b0390818111620004185784019180601f84011215620004185782519182116200041d5760059282841b9087806200008381850162000433565b809681520192820101928311620004185787809101915b838310620003fd57505050508386015160608501516080909501519590936001600160a01b0390811691908215620003e557600080546001600160a01b031980821686178355919591949083167f8be0079c531659141344cd1fd0a4f28419497f9722a3daafe3b4186f6b6457e08780a3600195867f9b779b17422d0df92223018b32b4d1fa46e071723d6817e2486d003becc55f0055868810620003af57878251106200036b57881562000337578915620002f3579489948994899489948e99859b5b620001af575b8a8a8a8a60a05260c052608052516132df90816200046f8239608051818181610a6b01526131b6015260a051818181610d9601526125e1015260c0518181816101a201526102d60152f35b81518c1015620002ed5782848d831b84010151168015620002a957808752600280865260ff8d89205416620002725781885285528b8720805460ff1916891790558754680100000000000000008110156200025e57888101808a558110156200024a578888528588200190868254161790556000198c1462000236579a86019a866200015e565b634e487b7160e01b86526011600452602486fd5b634e487b7160e01b88526032600452602488fd5b634e487b7160e01b88526041600452602488fd5b8c5162461bcd60e51b815260048101879052601060248201526f6475706c6963617465206f7261636c6560801b6044820152606490fd5b8b5162461bcd60e51b815260048101869052601360248201527f6f7261636c65207a65726f2061646472657373000000000000000000000000006044820152606490fd5b62000164565b8a5162461bcd60e51b815260048101859052601660248201527f636f6e6669726d6174696f6e73207265717569726564000000000000000000006044820152606490fd5b8a5162461bcd60e51b815260048101859052600d60248201526c189bdb99081c995c5d5a5c9959609a1b6044820152606490fd5b8a5162461bcd60e51b815260048101859052601d60248201527f6e6f7420656e6f756768206f7261636c657320666f722071756f72756d0000006044820152606490fd5b8a5162461bcd60e51b815260048101859052600f60248201526e1c5d5bdc9d5b481c995c5d5a5c9959608a1b6044820152606490fd5b8851631e4fbdf760e01b815260006004820152602490fd5b81906200040a8462000459565b81520191019087906200009a565b600080fd5b634e487b7160e01b600052604160045260246000fd5b6040519190601f01601f191682016001600160401b038111838210176200041d57604052565b51906001600160a01b0382168203620004185756fe608080604052600436101561001357600080fd5b60003560e01c90816308fa40f9146121cb5750806309f8d4a8146121065780631499d0d3146120ab578063166bab9514611f9c57806317131dc714611ea6578063177f318f146115d957806327d00fb0146114db5780632846d075146113925780632ec85e53146113455780633f4ba83a146112d357806340884c52146111715780635673227a14610fe15780635b7baf6414610eca5780635c975abb14610ea457806361d027b314610e86578063671ee26d14610e4c5780636c9bc51e14610e12578063715018a614610db957806378ea2dd914610d7e5780637d19e59614610a8e57806382e717f714610a535780638456cb59146109f157806389cb29dd146109d35780638da5cb5b146109aa578063933cd8de1461098d57806393fdec6614610959578063a1b5b23f1461092d578063a97e5c93146108ee578063db6ea08414610686578063ed65316414610573578063f19675a114610253578063f2fde38b146101ca5763f36ae08a1461018a57600080fd5b346101c55760003660031901126101c55760206040517f00000000000000000000000000000000000000000000000000000000000000008152f35b600080fd5b346101c55760203660031901126101c5576101e3612229565b6101eb6122ef565b6001600160a01b0390811690811561023a57600054826001600160601b0360a01b821617600055167f8be0079c531659141344cd1fd0a4f28419497f9722a3daafe3b4186f6b6457e0600080a3005b604051631e4fbdf760e01b815260006004820152602490fd5b346101c55760c03660031901126101c55760043561026f6122e0565b9060443591821515928381036101c557606435908115158083036101c557608435801515918282036101c55760a43592831515918285036101c5573360005260209960028b526102c660ff6040600020541661231b565b3360005260038b526040600020547f000000000000000000000000000000000000000000000000000000000000000011610537576103026124b1565b61030a6124d2565b60008a815260078c52604090206002015461032f906001600160a01b03161515612502565b8960005260078b5260ff600960406000200154166005811015610521578015908115610516575b50156104d9576104bd9361046a8b99979461044d7f15ccb9033ff50bbe3d85b45f0dbae632de5277822c4c1d078bf290468281c32b9a98956104c59f8d968f61041990610432936040519a6103aa8c612391565b60018c52818c01921515835260408c0194855260608c0196875260808c0198895260a08c019a8b52600052600b8152604060002090336000525261040260406000209a5115158b9060ff801983541691151516179055565b51895461ff00191690151560081b61ff0016178955565b51875462ff0000191690151560101b62ff000016178755565b51855463ff000000191690151560181b63ff00000016178555565b51835464ff00000000191690151560201b64ff0000000016178355565b51815465ff0000000000191690151560281b65ff000000000016179055604080519815158952931515602089015293151592870192909252911515606086015215156080850152339390819060a0820190565b0390a36125ac565b600160008051602061328a83398151915255005b60405162461bcd60e51b8152600481018c90526015602482015274657363726f77206e6f742076657269666961626c6560581b6044820152606490fd5b60019150148c610356565b634e487b7160e01b600052602160045260246000fd5b60405162461bcd60e51b8152600481018c905260146024820152731bdc9858db1948189bdb99081c995c5d5a5c995960621b6044820152606490fd5b346101c55760203660031901126101c55760043561058f6124b1565b6105976124d2565b6000818152600760205260409020600201546105bd906001600160a01b03161515612502565b806000526007602052604060002060ff600982015416600581101561052157806105ec60026004931415612b93565b6105f96003821415612bdf565b1461064f5761060790613198565b15610615576104c590612e99565b60405162461bcd60e51b815260206004820152601260248201527118dbdb991a5d1a5bdb9cc81b9bdd081b595d60721b6044820152606490fd5b60405162461bcd60e51b815260206004820152600f60248201526e195cd8dc9bddc8191a5cdc1d5d1959608a1b6044820152606490fd5b346101c55760403660031901126101c5576004356106a26122e0565b6106aa6124b1565b6106b26124d2565b81600052602090600782526106d860018060a01b03600260406000200154161515612502565b8260005260078252604060002060ff91826009830154166005811015610521576004036108b35761071161070c338461323d565b612c2b565b84600052600884526040600020336000528452826040600020541661087e5790600c9185600052600885526040600020336000528552604060002060ff19906001828254161790558160001461084e578383019081549086610774818416612c6a565b1691161790555b6040519015158152857ff85c096b53a9070fd926a1edca76662dbe81762ead01d03522520e8eef6c752e863393a301546002828216106107fe5750507f5a87909bff68caaaaf0b3fd9c74eeccc928832f879315e5c6fb7a73612f26c0c906107e283612e99565b60405160018152a2600160008051602061328a83398151915255005b9060029160081c161015610814575b50506104c5565b7f5a87909bff68caaaaf0b3fd9c74eeccc928832f879315e5c6fb7a73612f26c0c9061083f8361309a565b60405160008152a2808061080d565b5061087983830161086486825460081c16612c6a565b61ff0082549160081b169061ff001916179055565b61077b565b60405162461bcd60e51b815260048101859052600d60248201526c185b1c9958591e481d9bdd1959609a1b6044820152606490fd5b60405162461bcd60e51b8152600481018590526013602482015272195cd8dc9bddc81b9bdd08191a5cdc1d5d1959606a1b6044820152606490fd5b346101c55760203660031901126101c5576001600160a01b0361090f612229565b166000526002602052602060ff604060002054166040519015158152f35b346101c55760203660031901126101c55760043560005260096020526020604060002054604051908152f35b346101c55760203660031901126101c557600435600052600a602052602060018060a01b0360406000205416604051908152f35b346101c55760003660031901126101c55760206040516113888152f35b346101c55760003660031901126101c5576000546040516001600160a01b039091168152602090f35b346101c55760003660031901126101c5576020600654604051908152f35b346101c55760003660031901126101c557610a0a6122ef565b610a126124b1565b6000805460ff60a01b1916600160a01b1790556040513381527f62e78cea01bee320cd4e420270b5ea74000d11b0c9f74754ebdbfc544b05a25890602090a1005b346101c55760003660031901126101c55760206040517f00000000000000000000000000000000000000000000000000000000000000008152f35b346101c55760203660031901126101c5576004356000610180604051610ab3816123ac565b828152826020820152826040820152826060820152606060808201528260a08201528260c0820152606060e0820152606061010082015282610120820152610af9612d3b565b61014082015261016081018390520152600081815260076020526040902060020154610b2f906001600160a01b03161515612502565b6000526007602052604060002060405190610b49826123ac565b8054825260018101546001600160a01b0390811660208401526002820154811660408401526003820154166060830152610b8560048201612d6d565b6080830152600581015460a0830152600681015460c0830152610baa60078201612d6d565b60e0830152610bbb60088201612d6d565b61010083015260ff60098201541660058110156105215760ff91600c91610120850152604051610bea81612391565b83600a83015481811615158352818160081c1615156020840152818160101c1615156040840152818160181c161515606084015260201c1615156080820152600b82015460a0820152610140850152015481811661016084015260081c1661018082015260405190602082528051602083015260018060a01b03602082015116604083015260018060a01b03604082015116606083015260018060a01b036060820151166080830152610cf9610cb1608083015161024060a08601526102608501906122a0565b60a083015160c085015260c083015160e0850152610ce260e084015191601f199283878303016101008801526122a0565b9061010084015190858303016101208601526122a0565b6101208201519160058310156105215761018060ff91859461014086015260a0610140820151805115156101608801526020810151151584880152604081015115156101a0880152606081015115156101c0880152608081015115156101e0880152015161020086015282610160820151166102208601520151166102408301520390f35b346101c55760003660031901126101c55760206040517f00000000000000000000000000000000000000000000000000000000000000008152f35b346101c55760003660031901126101c557610dd26122ef565b600080546001600160a01b0319811682556001600160a01b03167f8be0079c531659141344cd1fd0a4f28419497f9722a3daafe3b4186f6b6457e08280a3005b346101c55760203660031901126101c5576001600160a01b03610e33612229565b1660005260036020526020604060002054604051908152f35b346101c55760203660031901126101c5576001600160a01b03610e6d612229565b1660005260046020526020604060002054604051908152f35b346101c55760003660031901126101c5576020600554604051908152f35b346101c55760003660031901126101c557602060ff60005460a01c166040519015158152f35b346101c55760203660031901126101c557600435610ee66124b1565b610eee6124d2565b6000818152600760205260409020600201546001600160a01b0390610f169082161515612502565b8160005260076020526040600020906002820154163303610fac5760ff60098201541690600582101561052157610f5f600383610f5860026005961415612b93565b1415612bdf565b0154421115610f71576104c59061309a565b60405162461bcd60e51b8152602060048201526013602482015272191958591b1a5b99481b9bdd081c185cdcd959606a1b6044820152606490fd5b60405162461bcd60e51b815260206004820152600d60248201526c37b7363c9034b6b837b93a32b960991b6044820152606490fd5b346101c5576020806003193601126101c55760043590610fff6124b1565b60008281526007825260409020600201546001600160a01b03906110269082161515612502565b8260005260078252604060002060ff600982015416600581101561052157806110589115908115611166575b50612c7c565b8160028201541633148015611157575b61107190612cbf565b836000526009835260406000205491821561111b5784600052600a84526040600020541633146110d657908060057f073d5fd87a7e0c2a384727f9aab2e84826370623aba582638b425a417e799a2c949301556110cd84612e6e565b604051908152a2005b60405162461bcd60e51b815260048101849052601760248201527f70726f706f7365722063616e6e6f7420617070726f76650000000000000000006044820152606490fd5b60405162461bcd60e51b81526004810185905260146024820152733737903832b73234b7339032bc3a32b739b4b7b760611b6044820152606490fd5b50600181015482163314611068565b600191501486611052565b346101c55760003660031901126101c557600180549061119082612e11565b9161119e60405193846123e3565b8083526111aa81612e11565b602084810191601f19013683376111c083612e28565b906111ca84612e28565b9360005b8181106112425750506040519586956060870191606088525180925260808701949160005b81811061122357888703858a0152888061121f8a6112118b8b61226c565b90838203604085015261226c565b0390f35b83516001600160a01b03168752899850958401959284019282016111f3565b806112556112c892989495969798612541565b90546001600160a01b039160039190821b1c8216611273848d612e5a565b528161127e84612541565b905490831b1c1660005280875260406000205461129b848a612e5a565b526112a583612541565b9054911b1c16600052600485526040600020546112c2828a612e5a565b52612382565b9594939291956111ce565b346101c55760003660031901126101c5576112ec6122ef565b60005460ff8160a01c16156113335760ff60a01b19166000556040513381527f5db9ee0a495bf2e6ff9c91a7834c1ba4fdd244a5e8aa4e537bd38aeae4b073aa90602090a1005b604051638dfc202b60e01b8152600490fd5b346101c55760403660031901126101c55761135e612213565b600435600052600c60205260406000209060018060a01b0316600052602052602060ff604060002054166040519015158152f35b346101c55760403660031901126101c5576024356004356113b16124b1565b8060005260206007815260018060a01b036113d781600260406000200154161515612502565b8260005260078252604060002060ff60098201541660058110156105215760059261140e8261142593159081156114d05750612c7c565b8060028401541633149081156114c0575b50612cbf565b0154831115611485577f903ac8c4b8795fb6d54c897c4e7ac26e26699d8cec993e5ea924d50e69a73a2790826000526009815283604060002055600a81526040600020336001600160601b0360a01b8254161790556040519384523393a3005b6064906040519062461bcd60e51b8252600482015260146024820152736d75737420657874656e6420646561646c696e6560601b6044820152fd5b905060018301541633148761141f565b600191501489611052565b346101c55760203660031901126101c5576004356114f76124b1565b60008181526007602052604090206002015461151d906001600160a01b03161515612502565b80600052600760205260406000206009810190815460ff811660058110156105215780159081156115ce575b50156115985761155f61070c600493339061323d565b60ff191617905561156f81612e6e565b33907f44f3c3ed15c708331582bc379d28659a58f183a563abe41aa4c8889db469f71c600080a3005b60405162461bcd60e51b815260206004820152600e60248201526d63616e6e6f74206469737075746560901b6044820152606490fd5b600191501485611549565b60c03660031901126101c5576004356001600160a01b03811681036101c557611600612213565b60449081356001600160401b0381116101c55761162190369060040161223f565b93906084356001600160401b0381116101c55761164290369060040161223f565b959060a4356001600160401b0381116101c55761166390369060040161223f565b9661166c6124b1565b6116746124d2565b3415611e6a576001600160a01b03861615611e2e576001600160a01b03871615611df357426064351115611daf578315611d78578715611d3b5750600654966116bc88612382565b600655604051986116cc8a612391565b60008a52600060208b0152600060408b0152600060608b0152600060808b0152600060a08b0152604051996117008b6123ac565b348b526001600160a01b0388811660208d01523360408d0152891660608c015261172b36878961241f565b60808c015260643560a08c01524360c08c015261174936838761241f565b60e08c015261175936848661241f565b6101008c015260006101208c01526101408b015260006101608b015260006101808b01528860005260076020526040600020938a5185556001850160018060a01b0360208d015116906001600160601b0360a01b9182825416179055600286018c604060018060a01b03910151168282541617905560038601908c606060018060a01b03910151169082541617905560808b01518051906001600160401b038211611b8557819061180d6004890154612456565b601f8111611ce8575b50602090601f8311600114611c7657600092611c6b575b50508160011b916000199060031b1c19161760048601555b60a08b0151600586015560c08b0151600686015560e08b01518051906001600160401b038211611b8557819061187e6007890154612456565b601f8111611c18575b50602090601f8311600114611ba657600092611b9b575b50508160011b916000199060031b1c19161760078601555b6101008b01518051906001600160401b038211611b855781906118dc6008890154612456565b601f8111611b32575b50602090601f8311600114611ac057600092611ab5575b50508160011b916000199060031b1c19161760088601555b6101208b015191600583101561052157611a648b987f7d94eb80dd12e87bd072cfa504c5cb51a379311aaee1f4730e7a5ba63eee7c0098611a3d60209f9660ff610180611a7299600c8e611a809f6009018519968688835416911617905560a0600a8201611a0d6101408601519161199b83511515829060ff801983541691151516179055565b6020830151815461ff00191690151560081b61ff00161781556040830151815462ff0000191690151560101b62ff0000161781556060830151815463ff000000191690151560181b63ff000000161781556080830151815464ff00000000191690151560201b64ff0000000016179055565b0151600b820155019383610160830151169085541617845501511661ff0082549160081b169061ff001916179055565b604080516001600160a01b03909e168e523460208f015260c0908e018190528d0191612490565b918a830360608c0152612490565b918783036080890152612490565b60643560a08601526001600160a01b0390931693339381900390a4600160008051602061328a83398151915255604051908152f35b015190508d806118fc565b9250600888016000526020600020906000935b601f1984168510611b17576001945083601f19811610611afe575b505050811b016008860155611914565b015160001960f88460031b161c191690558d8080611aee565b81810151835560209485019460019093019290910190611ad3565b909150600888016000526020600020601f840160051c810160208510611b7e575b90849392915b601f830160051c82018110611b6f5750506118e5565b60008155859450600101611b59565b5080611b53565b634e487b7160e01b600052604160045260246000fd5b015190508d8061189e565b9250600788016000526020600020906000935b601f1984168510611bfd576001945083601f19811610611be4575b505050811b0160078601556118b6565b015160001960f88460031b161c191690558d8080611bd4565b81810151835560209485019460019093019290910190611bb9565b909150600788016000526020600020601f840160051c810160208510611c64575b90849392915b601f830160051c82018110611c55575050611887565b60008155859450600101611c3f565b5080611c39565b015190508d8061182d565b9250600488016000526020600020906000935b601f1984168510611ccd576001945083601f19811610611cb4575b505050811b016004860155611845565b015160001960f88460031b161c191690558d8080611ca4565b81810151835560209485019460019093019290910190611c89565b909150600488016000526020600020601f840160051c810160208510611d34575b90849392915b601f830160051c82018110611d25575050611816565b60008155859450600101611d0f565b5080611d09565b6064907518dbdb9d185a5b995c881c9959881c995c5d5a5c995960521b6040519162461bcd60e51b83526020600484015260166024840152820152fd5b6064906f1950930810d251081c995c5d5a5c995960821b6040519162461bcd60e51b83526020600484015260106024840152820152fd5b6064907f646561646c696e65206d757374206265206675747572650000000000000000006040519162461bcd60e51b83526020600484015260176024840152820152fd5b6064907361726269746572207a65726f206164647265737360601b6040519162461bcd60e51b83526020600484015260146024840152820152fd5b606490746578706f72746572207a65726f206164647265737360581b6040519162461bcd60e51b83526020600484015260156024840152820152fd5b60649074195cd8dc9bddc81d985b1d59481c995c5d5a5c9959605a1b6040519162461bcd60e51b83526020600484015260156024840152820152fd5b346101c55760403660031901126101c55760c0600435611ec4612213565b611ecc612d3b565b50816000526020916007835260018060a01b0390611ef582600260406000200154161515612502565b600052600b8352604060002091166000528152604060002060405190611f1a82612391565b549060ff80831615159384835280830190828560081c16151582526040840191838660101c16151583526060850193808760181c161515855260a060808701968289861c1615158852019660281c16151586526040519687525115159086015251151560408501525115156060840152511515608083015251151560a0820152f35b346101c55760003660031901126101c557611fb56122ef565b611fbd6124d2565b600554801561207557600060055560018060a01b03600080808085858254165af1611fe6612d0b565b50156120305760207f41fdd680478135993bc53fb2ffaf9560951b57ef62ff6badd02b61e018b4f17f916000541692604051908152a2600160008051602061328a83398151915255005b60405162461bcd60e51b815260206004820152601860248201527f7472656173757279207472616e73666572206661696c656400000000000000006044820152606490fd5b60405162461bcd60e51b815260206004820152600e60248201526d747265617375727920656d70747960901b6044820152606490fd5b346101c55760203660031901126101c5576004356000818152600760205260409020600201546120e5906001600160a01b03161515612502565b600052600760205260206120fc6040600020613198565b6040519015158152f35b60003660031901126101c55733600052600260205261212c60ff6040600020541661231b565b341561219057336000526003602052604060002061214b34825461235f565b90553360005260036020526040600020546040519034825260208201527fecf4efda7b90489a0fadeef730ab4b3e4304905f48810daa0bb2738a4233b6d360403392a2005b60405162461bcd60e51b8152602060048201526013602482015272189bdb99081d985b1d59481c995c5d5a5c9959606a1b6044820152606490fd5b346101c55760403660031901126101c5576020906121e7612213565b60043560009081526008845260408082206001600160a01b039093168252918452205460ff1615158152f35b602435906001600160a01b03821682036101c557565b600435906001600160a01b03821682036101c557565b9181601f840112156101c5578235916001600160401b0383116101c557602083818601950101116101c557565b90815180825260208080930193019160005b82811061228c575050505090565b83518552938101939281019260010161227e565b919082519283825260005b8481106122cc575050826000602080949584010152601f8019910116010190565b6020818301810151848301820152016122ab565b6024359081151582036101c557565b6000546001600160a01b0316330361230357565b60405163118cdaa760e01b8152336004820152602490fd5b1561232257565b60405162461bcd60e51b81526020600482015260156024820152746e6f7420636f6e736f727469756d206f7261636c6560581b6044820152606490fd5b9190820180921161236c57565b634e487b7160e01b600052601160045260246000fd5b600019811461236c5760010190565b60c081019081106001600160401b03821117611b8557604052565b6101a081019081106001600160401b03821117611b8557604052565b60a081019081106001600160401b03821117611b8557604052565b90601f801991011681019081106001600160401b03821117611b8557604052565b6001600160401b038111611b8557601f01601f191660200190565b92919261242b82612404565b9161243960405193846123e3565b8294818452818301116101c5578281602093846000960137010152565b90600182811c92168015612486575b602083101461247057565b634e487b7160e01b600052602260045260246000fd5b91607f1691612465565b908060209392818452848401376000828201840152601f01601f1916010190565b60ff60005460a01c166124c057565b60405163d93c066560e01b8152600490fd5b60008051602061328a83398151915260028154146124f05760029055565b604051633ee5aeb560e01b8152600490fd5b1561250957565b60405162461bcd60e51b815260206004820152601060248201526f195cd8dc9bddc81b9bdd08199bdd5b9960821b6044820152606490fd5b6001548110156125785760016000527fb10e2d527612073b26eecdfd717e6a320cf44b4afac2b0732d9fcbe2b7fa0cf60190600090565b634e487b7160e01b600052603260045260246000fd5b9060058110156125785760051b0190565b9190820391821161236c57565b908160005260076020526040600020906000906040516125cb816123c8565b60a036823760015460005b818110612a975750507f0000000000000000000000000000000000000000000000000000000000000000808410612a8f5760405193612614856123c8565b60a036863760005b60058110612a3557505050506127048251151560208401511515906126e6604086015115156126cc60608801511515916126b460808a015115159660405161266381612391565b87815281602082015283604082015285606082015288608082015260a04391015261269e600a8d0197889060ff801983541691151516179055565b865461ff00191690151560081b61ff0016178655565b845462ff0000191690151560101b62ff000016178455565b825463ff000000191690151560181b63ff00000016178255565b9064ff00000000825491151560201b169064ff000000001916179055565b43600b84015581516020808401516040808601516060808801516080808a015185519815158952951515968801969096529115159286019290925215159084015215159082015284907fa3a15a879fd4d81fac126e1edb30ae448de83e861b55a861525e4a2312db1d149060a090a260005b6001548110156129d35761278981612541565b90549086600052600b602052604060002060018060a01b03838360031b1c1660005260205260406000205460ff908181161580156129a3575b6129965786511515828260081c161515149182159261297d575b8215612964575b821561294b575b8215612931575b5050156129265786600052600c602052604060002060018060a01b03838360031b1c166000526020526040600020600160ff198254161790556004918260205260406000206128408154612382565b905560018060a01b03818360031b1c166000526003602052604060002054926113889084828102048214851517156129115750602084938a9361271084817f9e93c4115fa6c7b0864a880d26c2cd59aa615d18a0ee3ece84441cd1a3a4328d966128cb9b9a02046128d0575b604051970204865260039190911b1c6001600160a01b031693a3612382565b612776565b6128de82828a02048961259f565b60018060a01b03848660031b1c1660005260038652604060002055600561290a83838b0204825461235f565b90556128ac565b601190634e487b7160e01b6000525260246000fd5b50506128cb90612382565b909150608087015115159160281c161515141538806127f1565b915060608701511515828260201c1615151415916127ea565b915060408701511515828260181c1615151415916127e3565b915060208701511515828260101c1615151415916127dc565b505050506128cb90612382565b5088600052600c602052604060002060018060a01b03858560031b1c1660005260205281604060002054166127c2565b50929190506129e1816131e1565b80612a1b575b906129f591612a0757613198565b6129fc5750565b612a0590612e99565b565b60098101805460ff19166001179055613198565b5060ff6009820154169060058210156105215790156129e7565b82612a40828661258e565b5110612a5b578060016112c2612a56938961258e565b61261c565b82612a70612a69838761258e565b518461259f565b10612a85578060006112c2612a56938961258e565b5050505092505050565b505092505050565b86600052600b6020526040600020612aae82612541565b60018060a01b0391549060031b1c166000526020526040600020549460ff9081871615612b875790612ae3612b1d9392612382565b96818160081c16612b76575b818160101c16612b61575b818160181c16612b4c575b818160201c16612b37575b60281c16612b2257612382565b6125d6565b60808401612b308151612382565b9052612382565b60608601612b458151612382565b9052612b10565b60408601612b5a8151612382565b9052612b05565b60208601612b6f8151612382565b9052612afa565b612b808651612382565b8652612aef565b955050612b1d90612382565b15612b9a57565b60405162461bcd60e51b815260206004820152601860248201527f657363726f7720616c726561647920636f6d706c6574656400000000000000006044820152606490fd5b15612be657565b60405162461bcd60e51b815260206004820152601760248201527f657363726f7720616c726561647920726566756e6465640000000000000000006044820152606490fd5b15612c3257565b60405162461bcd60e51b815260206004820152601060248201526f6e6f7420657363726f7720706172747960801b6044820152606490fd5b60ff60019116019060ff821161236c57565b15612c8357565b60405162461bcd60e51b8152602060048201526014602482015273657363726f77206e6f7420616d656e6461626c6560601b6044820152606490fd5b15612cc657565b60405162461bcd60e51b815260206004820152601960248201527f6f6e6c7920696d706f72746572206f72206578706f72746572000000000000006044820152606490fd5b3d15612d36573d90612d1c82612404565b91612d2a60405193846123e3565b82523d6000602084013e565b606090565b60405190612d4882612391565b8160a06000918281528260208201528260408201528260608201528260808201520152565b9060405191826000825492612d8184612456565b908184526001948581169081600014612dee5750600114612dab575b5050612a05925003836123e3565b9093915060005260209081600020936000915b818310612dd6575050612a0593508201013880612d9d565b85548884018501529485019487945091830191612dbe565b915050612a0594506020925060ff191682840152151560051b8201013880612d9d565b6001600160401b038111611b855760051b60200190565b90612e3282612e11565b612e3f60405191826123e3565b8281528092612e50601f1991612e11565b0190602036910137565b80518210156125785760209160051b010190565b600052600960205260006040812055600a60205260406000206001600160601b0360a01b8154169055565b60009080825260209160078352604080822090600982019485549060ff8216600581101561308657600381610f586002612ed4941415612b93565b835485855560ff19928316600217909755612eee86612e6e565b6001968785019060018060a01b03918780808085878654165af1612f10612d0b565b5015613042577f6e3c6096795c8298a218b2cfb8bde42726ff7c9a3d27b4d3ba41ab7f74feb5fb84848b935416938851908152a3600260048601950154169683519582875280958054612f6281612456565b9586868b01528482169182600014613003575050600114612fad575b50505050505090807fbf3252966f322ae253fc5b3cd0805ad081276783c8537a30cd4ba5020f3e212b920390a3565b9080959650528184205b838510612ff05750505050820101817fbf3252966f322ae253fc5b3cd0805ad081276783c8537a30cd4ba5020f3e212b38808080612f7e565b8054878601870152938201938101612fb7565b16878a01525050505050151560051b8301019050817fbf3252966f322ae253fc5b3cd0805ad081276783c8537a30cd4ba5020f3e212b38808080612f7e565b855162461bcd60e51b815260048101859052601860248201527f6578706f72746572207472616e73666572206661696c656400000000000000006044820152606490fd5b634e487b7160e01b86526021600452602486fd5b60009080825260076020526040822091600983019283549360ff8516600581101561318457906130d5600383610f5860028097961415612b93565b600382549685845560ff19161790556130ed84612e6e565b0160018060a01b039180808087868654165af1613108612d0b565b501561313f577f7ca5472b7ea78c2c0141c5a12ee6d170cf4ce8ed06be3d22c8252ddfc7a6a2c491602091541693604051908152a3565b60405162461bcd60e51b815260206004820152601860248201527f696d706f72746572207472616e73666572206661696c656400000000000000006044820152606490fd5b634e487b7160e01b84526021600452602484fd5b6131a1816131e1565b90816131ab575090565b6131db9150600601547f00000000000000000000000000000000000000000000000000000000000000009061235f565b43101590565b600a015460ff8116908161322e575b8161321f575b81613210575b81613205575090565b60ff915060201c1690565b905060ff8160181c16906131fc565b905060ff8160101c16906131f6565b905060ff8160081c16906131f0565b60028101546001600160a01b0392831690831681149290918315613279575b8315613269575b50505090565b6003015416149050388080613263565b600181015482168314935061325c56fe9b779b17422d0df92223018b32b4d1fa46e071723d6817e2486d003becc55f00a264697066735822122076e5534474910607e8798493e285b6dd3f79084e42b0e90fc03ad3cf0af08ea564736f6c63430008140033","opcodes":"PUSH1 0x40 PUSH1 0xE0 DUP2 MSTORE CALLVALUE PUSH3 0x418 JUMPI PUSH3 0x374E DUP1 CODESIZE SUB DUP1 PUSH3 0x1E DUP2 PUSH3 0x433 JUMP JUMPDEST SWAP3 DUP4 CODECOPY DUP2 ADD SWAP1 PUSH1 0xA0 DUP2 DUP4 SUB SLT PUSH3 0x418 JUMPI PUSH3 0x3A DUP2 PUSH3 0x459 JUMP JUMPDEST PUSH1 0x20 DUP3 DUP2 ADD MLOAD SWAP1 SWAP4 SWAP1 PUSH1 0x1 PUSH1 0x1 PUSH1 0x40 SHL SUB SWAP1 DUP2 DUP2 GT PUSH3 0x418 JUMPI DUP5 ADD SWAP2 DUP1 PUSH1 0x1F DUP5 ADD SLT ISZERO PUSH3 0x418 JUMPI DUP3 MLOAD SWAP2 DUP3 GT PUSH3 0x41D JUMPI PUSH1 0x5 SWAP3 DUP3 DUP5 SHL SWAP1 DUP8 DUP1 PUSH3 0x83 DUP2 DUP6 ADD PUSH3 0x433 JUMP JUMPDEST DUP1 SWAP7 DUP2 MSTORE ADD SWAP3 DUP3 ADD ADD SWAP3 DUP4 GT PUSH3 0x418 JUMPI DUP8 DUP1 SWAP2 ADD SWAP2 JUMPDEST DUP4 DUP4 LT PUSH3 0x3FD JUMPI POP POP POP POP DUP4 DUP7 ADD MLOAD PUSH1 0x60 DUP6 ADD MLOAD PUSH1 0x80 SWAP1 SWAP6 ADD MLOAD SWAP6 SWAP1 SWAP4 PUSH1 0x1 PUSH1 0x1 PUSH1 0xA0 SHL SUB SWAP1 DUP2 AND SWAP2 SWAP1 DUP3 ISZERO PUSH3 0x3E5 JUMPI PUSH1 0x0 DUP1 SLOAD PUSH1 0x1 PUSH1 0x1 PUSH1 0xA0 SHL SUB NOT DUP1 DUP3 AND DUP7 OR DUP4 SSTORE SWAP2 SWAP6 SWAP2 SWAP5 SWAP1 DUP4 AND PUSH32 0x8BE0079C531659141344CD1FD0A4F28419497F9722A3DAAFE3B4186F6B6457E0 DUP8 DUP1 LOG3 PUSH1 0x1 SWAP6 DUP7 PUSH32 0x9B779B17422D0DF92223018B32B4D1FA46E071723D6817E2486D003BECC55F00 SSTORE DUP7 DUP9 LT PUSH3 0x3AF JUMPI DUP8 DUP3 MLOAD LT PUSH3 0x36B JUMPI DUP9 ISZERO PUSH3 0x337 JUMPI DUP10 ISZERO PUSH3 0x2F3 JUMPI SWAP5 DUP10 SWAP5 DUP10 SWAP5 DUP10 SWAP5 DUP10 SWAP5 DUP15 SWAP10 DUP6 SWAP12 JUMPDEST PUSH3 0x1AF JUMPI JUMPDEST DUP11 DUP11 DUP11 DUP11 PUSH1 0xA0 MSTORE PUSH1 0xC0 MSTORE PUSH1 0x80 MSTORE MLOAD PUSH2 0x32DF SWAP1 DUP2 PUSH3 0x46F DUP3 CODECOPY PUSH1 0x80 MLOAD DUP2 DUP2 DUP2 PUSH2 0xA6B ADD MSTORE PUSH2 0x31B6 ADD MSTORE PUSH1 0xA0 MLOAD DUP2 DUP2 DUP2 PUSH2 0xD96 ADD MSTORE PUSH2 0x25E1 ADD MSTORE PUSH1 0xC0 MLOAD DUP2 DUP2 DUP2 PUSH2 0x1A2 ADD MSTORE PUSH2 0x2D6 ADD MSTORE RETURN JUMPDEST DUP2 MLOAD DUP13 LT ISZERO PUSH3 0x2ED JUMPI DUP3 DUP5 DUP14 DUP4 SHL DUP5 ADD ADD MLOAD AND DUP1 ISZERO PUSH3 0x2A9 JUMPI DUP1 DUP8 MSTORE PUSH1 0x2 DUP1 DUP7 MSTORE PUSH1 0xFF DUP14 DUP10 KECCAK256 SLOAD AND PUSH3 0x272 JUMPI DUP2 DUP9 MSTORE DUP6 MSTORE DUP12 DUP8 KECCAK256 DUP1 SLOAD PUSH1 0xFF NOT AND DUP10 OR SWAP1 SSTORE DUP8 SLOAD PUSH9 0x10000000000000000 DUP2 LT ISZERO PUSH3 0x25E JUMPI DUP9 DUP2 ADD DUP1 DUP11 SSTORE DUP2 LT ISZERO PUSH3 0x24A JUMPI DUP9 DUP9 MSTORE DUP6 DUP9 KECCAK256 ADD SWAP1 DUP7 DUP3 SLOAD AND OR SWAP1 SSTORE PUSH1 0x0 NOT DUP13 EQ PUSH3 0x236 JUMPI SWAP11 DUP7 ADD SWAP11 DUP7 PUSH3 0x15E JUMP JUMPDEST PUSH4 0x4E487B71 PUSH1 0xE0 SHL DUP7 MSTORE PUSH1 0x11 PUSH1 0x4 MSTORE PUSH1 0x24 DUP7 REVERT JUMPDEST PUSH4 0x4E487B71 PUSH1 0xE0 SHL DUP9 MSTORE PUSH1 0x32 PUSH1 0x4 MSTORE PUSH1 0x24 DUP9 REVERT JUMPDEST PUSH4 0x4E487B71 PUSH1 0xE0 SHL DUP9 MSTORE PUSH1 0x41 PUSH1 0x4 MSTORE PUSH1 0x24 DUP9 REVERT JUMPDEST DUP13 MLOAD PUSH3 0x461BCD PUSH1 0xE5 SHL DUP2 MSTORE PUSH1 0x4 DUP2 ADD DUP8 SWAP1 MSTORE PUSH1 0x10 PUSH1 0x24 DUP3 ADD MSTORE PUSH16 0x6475706C6963617465206F7261636C65 PUSH1 0x80 SHL PUSH1 0x44 DUP3 ADD MSTORE PUSH1 0x64 SWAP1 REVERT JUMPDEST DUP12 MLOAD PUSH3 0x461BCD PUSH1 0xE5 SHL DUP2 MSTORE PUSH1 0x4 DUP2 ADD DUP7 SWAP1 MSTORE PUSH1 0x13 PUSH1 0x24 DUP3 ADD MSTORE PUSH32 0x6F7261636C65207A65726F206164647265737300000000000000000000000000 PUSH1 0x44 DUP3 ADD MSTORE PUSH1 0x64 SWAP1 REVERT JUMPDEST PUSH3 0x164 JUMP JUMPDEST DUP11 MLOAD PUSH3 0x461BCD PUSH1 0xE5 SHL DUP2 MSTORE PUSH1 0x4 DUP2 ADD DUP6 SWAP1 MSTORE PUSH1 0x16 PUSH1 0x24 DUP3 ADD MSTORE PUSH32 0x636F6E6669726D6174696F6E7320726571756972656400000000000000000000 PUSH1 0x44 DUP3 ADD MSTORE PUSH1 0x64 SWAP1 REVERT JUMPDEST DUP11 MLOAD PUSH3 0x461BCD PUSH1 0xE5 SHL DUP2 MSTORE PUSH1 0x4 DUP2 ADD DUP6 SWAP1 MSTORE PUSH1 0xD PUSH1 0x24 DUP3 ADD MSTORE PUSH13 0x189BDB99081C995C5D5A5C9959 PUSH1 0x9A SHL PUSH1 0x44 DUP3 ADD MSTORE PUSH1 0x64 SWAP1 REVERT JUMPDEST DUP11 MLOAD PUSH3 0x461BCD PUSH1 0xE5 SHL DUP2 MSTORE PUSH1 0x4 DUP2 ADD DUP6 SWAP1 MSTORE PUSH1 0x1D PUSH1 0x24 DUP3 ADD MSTORE PUSH32 0x6E6F7420656E6F756768206F7261636C657320666F722071756F72756D000000 PUSH1 0x44 DUP3 ADD MSTORE PUSH1 0x64 SWAP1 REVERT JUMPDEST DUP11 MLOAD PUSH3 0x461BCD PUSH1 0xE5 SHL DUP2 MSTORE PUSH1 0x4 DUP2 ADD DUP6 SWAP1 MSTORE PUSH1 0xF PUSH1 0x24 DUP3 ADD MSTORE PUSH15 0x1C5D5BDC9D5B481C995C5D5A5C9959 PUSH1 0x8A SHL PUSH1 0x44 DUP3 ADD MSTORE PUSH1 0x64 SWAP1 REVERT JUMPDEST DUP9 MLOAD PUSH4 0x1E4FBDF7 PUSH1 0xE0 SHL DUP2 MSTORE PUSH1 0x0 PUSH1 0x4 DUP3 ADD MSTORE PUSH1 0x24 SWAP1 REVERT JUMPDEST DUP2 SWAP1 PUSH3 0x40A DUP5 PUSH3 0x459 JUMP JUMPDEST DUP2 MSTORE ADD SWAP2 ADD SWAP1 DUP8 SWAP1 PUSH3 0x9A JUMP JUMPDEST PUSH1 0x0 DUP1 REVERT JUMPDEST PUSH4 0x4E487B71 PUSH1 0xE0 SHL PUSH1 0x0 MSTORE PUSH1 0x41 PUSH1 0x4 MSTORE PUSH1 0x24 PUSH1 0x0 REVERT JUMPDEST PUSH1 0x40 MLOAD SWAP2 SWAP1 PUSH1 0x1F ADD PUSH1 0x1F NOT AND DUP3 ADD PUSH1 0x1 PUSH1 0x1 PUSH1 0x40 SHL SUB DUP2 GT DUP4 DUP3 LT OR PUSH3 0x41D JUMPI PUSH1 0x40 MSTORE JUMP JUMPDEST MLOAD SWAP1 PUSH1 0x1 PUSH1 0x1 PUSH1 0xA0 SHL SUB DUP3 AND DUP3 SUB PUSH3 0x418 JUMPI JUMP INVALID PUSH1 0x80 DUP1 PUSH1 0x40 MSTORE PUSH1 0x4 CALLDATASIZE LT ISZERO PUSH2 0x13 JUMPI PUSH1 0x0 DUP1 REVERT JUMPDEST PUSH1 0x0 CALLDATALOAD PUSH1 0xE0 SHR SWAP1 DUP2 PUSH4 0x8FA40F9 EQ PUSH2 0x21CB JUMPI POP DUP1 PUSH4 0x9F8D4A8 EQ PUSH2 0x2106 JUMPI DUP1 PUSH4 0x1499D0D3 EQ PUSH2 0x20AB JUMPI DUP1 PUSH4 0x166BAB95 EQ PUSH2 0x1F9C JUMPI DUP1 PUSH4 0x17131DC7 EQ PUSH2 0x1EA6 JUMPI DUP1 PUSH4 0x177F318F EQ PUSH2 0x15D9 JUMPI DUP1 PUSH4 0x27D00FB0 EQ PUSH2 0x14DB JUMPI DUP1 PUSH4 0x2846D075 EQ PUSH2 0x1392 JUMPI DUP1 PUSH4 0x2EC85E53 EQ PUSH2 0x1345 JUMPI DUP1 PUSH4 0x3F4BA83A EQ PUSH2 0x12D3 JUMPI DUP1 PUSH4 0x40884C52 EQ PUSH2 0x1171 JUMPI DUP1 PUSH4 0x5673227A EQ PUSH2 0xFE1 JUMPI DUP1 PUSH4 0x5B7BAF64 EQ PUSH2 0xECA JUMPI DUP1 PUSH4 0x5C975ABB EQ PUSH2 0xEA4 JUMPI DUP1 PUSH4 0x61D027B3 EQ PUSH2 0xE86 JUMPI DUP1 PUSH4 0x671EE26D EQ PUSH2 0xE4C JUMPI DUP1 PUSH4 0x6C9BC51E EQ PUSH2 0xE12 JUMPI DUP1 PUSH4 0x715018A6 EQ PUSH2 0xDB9 JUMPI DUP1 PUSH4 0x78EA2DD9 EQ PUSH2 0xD7E JUMPI DUP1 PUSH4 0x7D19E596 EQ PUSH2 0xA8E JUMPI DUP1 PUSH4 0x82E717F7 EQ PUSH2 0xA53 JUMPI DUP1 PUSH4 0x8456CB59 EQ PUSH2 0x9F1 JUMPI DUP1 PUSH4 0x89CB29DD EQ PUSH2 0x9D3 JUMPI DUP1 PUSH4 0x8DA5CB5B EQ PUSH2 0x9AA JUMPI DUP1 PUSH4 0x933CD8DE EQ PUSH2 0x98D JUMPI DUP1 PUSH4 0x93FDEC66 EQ PUSH2 0x959 JUMPI DUP1 PUSH4 0xA1B5B23F EQ PUSH2 0x92D JUMPI DUP1 PUSH4 0xA97E5C93 EQ PUSH2 0x8EE JUMPI DUP1 PUSH4 0xDB6EA084 EQ PUSH2 0x686 JUMPI DUP1 PUSH4 0xED653164 EQ PUSH2 0x573 JUMPI DUP1 PUSH4 0xF19675A1 EQ PUSH2 0x253 JUMPI DUP1 PUSH4 0xF2FDE38B EQ PUSH2 0x1CA JUMPI PUSH4 0xF36AE08A EQ PUSH2 0x18A JUMPI PUSH1 0x0 DUP1 REVERT JUMPDEST CALLVALUE PUSH2 0x1C5 JUMPI PUSH1 0x0 CALLDATASIZE PUSH1 0x3 NOT ADD SLT PUSH2 0x1C5 JUMPI PUSH1 0x20 PUSH1 0x40 MLOAD PUSH32 0x0 DUP2 MSTORE RETURN JUMPDEST PUSH1 0x0 DUP1 REVERT JUMPDEST CALLVALUE PUSH2 0x1C5 JUMPI PUSH1 0x20 CALLDATASIZE PUSH1 0x3 NOT ADD SLT PUSH2 0x1C5 JUMPI PUSH2 0x1E3 PUSH2 0x2229 JUMP JUMPDEST PUSH2 0x1EB PUSH2 0x22EF JUMP JUMPDEST PUSH1 0x1 PUSH1 0x1 PUSH1 0xA0 SHL SUB SWAP1 DUP2 AND SWAP1 DUP2 ISZERO PUSH2 0x23A JUMPI PUSH1 0x0 SLOAD DUP3 PUSH1 0x1 PUSH1 0x1 PUSH1 0x60 SHL SUB PUSH1 0xA0 SHL DUP3 AND OR PUSH1 0x0 SSTORE AND PUSH32 0x8BE0079C531659141344CD1FD0A4F28419497F9722A3DAAFE3B4186F6B6457E0 PUSH1 0x0 DUP1 LOG3 STOP JUMPDEST PUSH1 0x40 MLOAD PUSH4 0x1E4FBDF7 PUSH1 0xE0 SHL DUP2 MSTORE PUSH1 0x0 PUSH1 0x4 DUP3 ADD MSTORE PUSH1 0x24 SWAP1 REVERT JUMPDEST CALLVALUE PUSH2 0x1C5 JUMPI PUSH1 0xC0 CALLDATASIZE PUSH1 0x3 NOT ADD SLT PUSH2 0x1C5 JUMPI PUSH1 0x4 CALLDATALOAD PUSH2 0x26F PUSH2 0x22E0 JUMP JUMPDEST SWAP1 PUSH1 0x44 CALLDATALOAD SWAP2 DUP3 ISZERO ISZERO SWAP3 DUP4 DUP2 SUB PUSH2 0x1C5 JUMPI PUSH1 0x64 CALLDATALOAD SWAP1 DUP2 ISZERO ISZERO DUP1 DUP4 SUB PUSH2 0x1C5 JUMPI PUSH1 0x84 CALLDATALOAD DUP1 ISZERO ISZERO SWAP2 DUP3 DUP3 SUB PUSH2 0x1C5 JUMPI PUSH1 0xA4 CALLDATALOAD SWAP3 DUP4 ISZERO ISZERO SWAP2 DUP3 DUP6 SUB PUSH2 0x1C5 JUMPI CALLER PUSH1 0x0 MSTORE PUSH1 0x20 SWAP10 PUSH1 0x2 DUP12 MSTORE PUSH2 0x2C6 PUSH1 0xFF PUSH1 0x40 PUSH1 0x0 KECCAK256 SLOAD AND PUSH2 0x231B JUMP JUMPDEST CALLER PUSH1 0x0 MSTORE PUSH1 0x3 DUP12 MSTORE PUSH1 0x40 PUSH1 0x0 KECCAK256 SLOAD PUSH32 0x0 GT PUSH2 0x537 JUMPI PUSH2 0x302 PUSH2 0x24B1 JUMP JUMPDEST PUSH2 0x30A PUSH2 0x24D2 JUMP JUMPDEST PUSH1 0x0 DUP11 DUP2 MSTORE PUSH1 0x7 DUP13 MSTORE PUSH1 0x40 SWAP1 KECCAK256 PUSH1 0x2 ADD SLOAD PUSH2 0x32F SWAP1 PUSH1 0x1 PUSH1 0x1 PUSH1 0xA0 SHL SUB AND ISZERO ISZERO PUSH2 0x2502 JUMP JUMPDEST DUP10 PUSH1 0x0 MSTORE PUSH1 0x7 DUP12 MSTORE PUSH1 0xFF PUSH1 0x9 PUSH1 0x40 PUSH1 0x0 KECCAK256 ADD SLOAD AND PUSH1 0x5 DUP2 LT ISZERO PUSH2 0x521 JUMPI DUP1 ISZERO SWAP1 DUP2 ISZERO PUSH2 0x516 JUMPI JUMPDEST POP ISZERO PUSH2 0x4D9 JUMPI PUSH2 0x4BD SWAP4 PUSH2 0x46A DUP12 SWAP10 SWAP8 SWAP5 PUSH2 0x44D PUSH32 0x15CCB9033FF50BBE3D85B45F0DBAE632DE5277822C4C1D078BF290468281C32B SWAP11 SWAP9 SWAP6 PUSH2 0x4C5 SWAP16 DUP14 SWAP7 DUP16 PUSH2 0x419 SWAP1 PUSH2 0x432 SWAP4 PUSH1 0x40 MLOAD SWAP11 PUSH2 0x3AA DUP13 PUSH2 0x2391 JUMP JUMPDEST PUSH1 0x1 DUP13 MSTORE DUP2 DUP13 ADD SWAP3 ISZERO ISZERO DUP4 MSTORE PUSH1 0x40 DUP13 ADD SWAP5 DUP6 MSTORE PUSH1 0x60 DUP13 ADD SWAP7 DUP8 MSTORE PUSH1 0x80 DUP13 ADD SWAP9 DUP10 MSTORE PUSH1 0xA0 DUP13 ADD SWAP11 DUP12 MSTORE PUSH1 0x0 MSTORE PUSH1 0xB DUP2 MSTORE PUSH1 0x40 PUSH1 0x0 KECCAK256 SWAP1 CALLER PUSH1 0x0 MSTORE MSTORE PUSH2 0x402 PUSH1 0x40 PUSH1 0x0 KECCAK256 SWAP11 MLOAD ISZERO ISZERO DUP12 SWAP1 PUSH1 0xFF DUP1 NOT DUP4 SLOAD AND SWAP2 ISZERO ISZERO AND OR SWAP1 SSTORE JUMP JUMPDEST MLOAD DUP10 SLOAD PUSH2 0xFF00 NOT AND SWAP1 ISZERO ISZERO PUSH1 0x8 SHL PUSH2 0xFF00 AND OR DUP10 SSTORE JUMP JUMPDEST MLOAD DUP8 SLOAD PUSH3 0xFF0000 NOT AND SWAP1 ISZERO ISZERO PUSH1 0x10 SHL PUSH3 0xFF0000 AND OR DUP8 SSTORE JUMP JUMPDEST MLOAD DUP6 SLOAD PUSH4 0xFF000000 NOT AND SWAP1 ISZERO ISZERO PUSH1 0x18 SHL PUSH4 0xFF000000 AND OR DUP6 SSTORE JUMP JUMPDEST MLOAD DUP4 SLOAD PUSH5 0xFF00000000 NOT AND SWAP1 ISZERO ISZERO PUSH1 0x20 SHL PUSH5 0xFF00000000 AND OR DUP4 SSTORE JUMP JUMPDEST MLOAD DUP2 SLOAD PUSH6 0xFF0000000000 NOT AND SWAP1 ISZERO ISZERO PUSH1 0x28 SHL PUSH6 0xFF0000000000 AND OR SWAP1 SSTORE PUSH1 0x40 DUP1 MLOAD SWAP9 ISZERO ISZERO DUP10 MSTORE SWAP4 ISZERO ISZERO PUSH1 0x20 DUP10 ADD MSTORE SWAP4 ISZERO ISZERO SWAP3 DUP8 ADD SWAP3 SWAP1 SWAP3 MSTORE SWAP2 ISZERO ISZERO PUSH1 0x60 DUP7 ADD MSTORE ISZERO ISZERO PUSH1 0x80 DUP6 ADD MSTORE CALLER SWAP4 SWAP1 DUP2 SWAP1 PUSH1 0xA0 DUP3 ADD SWAP1 JUMP JUMPDEST SUB SWAP1 LOG3 PUSH2 0x25AC JUMP JUMPDEST PUSH1 0x1 PUSH1 0x0 DUP1 MLOAD PUSH1 0x20 PUSH2 0x328A DUP4 CODECOPY DUP2 MLOAD SWAP2 MSTORE SSTORE STOP JUMPDEST PUSH1 0x40 MLOAD PUSH3 0x461BCD PUSH1 0xE5 SHL DUP2 MSTORE PUSH1 0x4 DUP2 ADD DUP13 SWAP1 MSTORE PUSH1 0x15 PUSH1 0x24 DUP3 ADD MSTORE PUSH21 0x657363726F77206E6F742076657269666961626C65 PUSH1 0x58 SHL PUSH1 0x44 DUP3 ADD MSTORE PUSH1 0x64 SWAP1 REVERT JUMPDEST PUSH1 0x1 SWAP2 POP EQ DUP13 PUSH2 0x356 JUMP JUMPDEST PUSH4 0x4E487B71 PUSH1 0xE0 SHL PUSH1 0x0 MSTORE PUSH1 0x21 PUSH1 0x4 MSTORE PUSH1 0x24 PUSH1 0x0 REVERT JUMPDEST PUSH1 0x40 MLOAD PUSH3 0x461BCD PUSH1 0xE5 SHL DUP2 MSTORE PUSH1 0x4 DUP2 ADD DUP13 SWAP1 MSTORE PUSH1 0x14 PUSH1 0x24 DUP3 ADD MSTORE PUSH20 0x1BDC9858DB1948189BDB99081C995C5D5A5C9959 PUSH1 0x62 SHL PUSH1 0x44 DUP3 ADD MSTORE PUSH1 0x64 SWAP1 REVERT JUMPDEST CALLVALUE PUSH2 0x1C5 JUMPI PUSH1 0x20 CALLDATASIZE PUSH1 0x3 NOT ADD SLT PUSH2 0x1C5 JUMPI PUSH1 0x4 CALLDATALOAD PUSH2 0x58F PUSH2 0x24B1 JUMP JUMPDEST PUSH2 0x597 PUSH2 0x24D2 JUMP JUMPDEST PUSH1 0x0 DUP2 DUP2 MSTORE PUSH1 0x7 PUSH1 0x20 MSTORE PUSH1 0x40 SWAP1 KECCAK256 PUSH1 0x2 ADD SLOAD PUSH2 0x5BD SWAP1 PUSH1 0x1 PUSH1 0x1 PUSH1 0xA0 SHL SUB AND ISZERO ISZERO PUSH2 0x2502 JUMP JUMPDEST DUP1 PUSH1 0x0 MSTORE PUSH1 0x7 PUSH1 0x20 MSTORE PUSH1 0x40 PUSH1 0x0 KECCAK256 PUSH1 0xFF PUSH1 0x9 DUP3 ADD SLOAD AND PUSH1 0x5 DUP2 LT ISZERO PUSH2 0x521 JUMPI DUP1 PUSH2 0x5EC PUSH1 0x2 PUSH1 0x4 SWAP4 EQ ISZERO PUSH2 0x2B93 JUMP JUMPDEST PUSH2 0x5F9 PUSH1 0x3 DUP3 EQ ISZERO PUSH2 0x2BDF JUMP JUMPDEST EQ PUSH2 0x64F JUMPI PUSH2 0x607 SWAP1 PUSH2 0x3198 JUMP JUMPDEST ISZERO PUSH2 0x615 JUMPI PUSH2 0x4C5 SWAP1 PUSH2 0x2E99 JUMP JUMPDEST PUSH1 0x40 MLOAD PUSH3 0x461BCD PUSH1 0xE5 SHL DUP2 MSTORE PUSH1 0x20 PUSH1 0x4 DUP3 ADD MSTORE PUSH1 0x12 PUSH1 0x24 DUP3 ADD MSTORE PUSH18 0x18DBDB991A5D1A5BDB9CC81B9BDD081B595D PUSH1 0x72 SHL PUSH1 0x44 DUP3 ADD MSTORE PUSH1 0x64 SWAP1 REVERT JUMPDEST PUSH1 0x40 MLOAD PUSH3 0x461BCD PUSH1 0xE5 SHL DUP2 MSTORE PUSH1 0x20 PUSH1 0x4 DUP3 ADD MSTORE PUSH1 0xF PUSH1 0x24 DUP3 ADD MSTORE PUSH15 0x195CD8DC9BDDC8191A5CDC1D5D1959 PUSH1 0x8A SHL PUSH1 0x44 DUP3 ADD MSTORE PUSH1 0x64 SWAP1 REVERT JUMPDEST CALLVALUE PUSH2 0x1C5 JUMPI PUSH1 0x40 CALLDATASIZE PUSH1 0x3 NOT ADD SLT PUSH2 0x1C5 JUMPI PUSH1 0x4 CALLDATALOAD PUSH2 0x6A2 PUSH2 0x22E0 JUMP JUMPDEST PUSH2 0x6AA PUSH2 0x24B1 JUMP JUMPDEST PUSH2 0x6B2 PUSH2 0x24D2 JUMP JUMPDEST DUP2 PUSH1 0x0 MSTORE PUSH1 0x20 SWAP1 PUSH1 0x7 DUP3 MSTORE PUSH2 0x6D8 PUSH1 0x1 DUP1 PUSH1 0xA0 SHL SUB PUSH1 0x2 PUSH1 0x40 PUSH1 0x0 KECCAK256 ADD SLOAD AND ISZERO ISZERO PUSH2 0x2502 JUMP JUMPDEST DUP3 PUSH1 0x0 MSTORE PUSH1 0x7 DUP3 MSTORE PUSH1 0x40 PUSH1 0x0 KECCAK256 PUSH1 0xFF SWAP2 DUP3 PUSH1 0x9 DUP4 ADD SLOAD AND PUSH1 0x5 DUP2 LT ISZERO PUSH2 0x521 JUMPI PUSH1 0x4 SUB PUSH2 0x8B3 JUMPI PUSH2 0x711 PUSH2 0x70C CALLER DUP5 PUSH2 0x323D JUMP JUMPDEST PUSH2 0x2C2B JUMP JUMPDEST DUP5 PUSH1 0x0 MSTORE PUSH1 0x8 DUP5 MSTORE PUSH1 0x40 PUSH1 0x0 KECCAK256 CALLER PUSH1 0x0 MSTORE DUP5 MSTORE DUP3 PUSH1 0x40 PUSH1 0x0 KECCAK256 SLOAD AND PUSH2 0x87E JUMPI SWAP1 PUSH1 0xC SWAP2 DUP6 PUSH1 0x0 MSTORE PUSH1 0x8 DUP6 MSTORE PUSH1 0x40 PUSH1 0x0 KECCAK256 CALLER PUSH1 0x0 MSTORE DUP6 MSTORE PUSH1 0x40 PUSH1 0x0 KECCAK256 PUSH1 0xFF NOT SWAP1 PUSH1 0x1 DUP3 DUP3 SLOAD AND OR SWAP1 SSTORE DUP2 PUSH1 0x0 EQ PUSH2 0x84E JUMPI DUP4 DUP4 ADD SWAP1 DUP2 SLOAD SWAP1 DUP7 PUSH2 0x774 DUP2 DUP5 AND PUSH2 0x2C6A JUMP JUMPDEST AND SWAP2 AND OR SWAP1 SSTORE JUMPDEST PUSH1 0x40 MLOAD SWAP1 ISZERO ISZERO DUP2 MSTORE DUP6 PUSH32 0xF85C096B53A9070FD926A1EDCA76662DBE81762EAD01D03522520E8EEF6C752E DUP7 CALLER SWAP4 LOG3 ADD SLOAD PUSH1 0x2 DUP3 DUP3 AND LT PUSH2 0x7FE JUMPI POP POP PUSH32 0x5A87909BFF68CAAAAF0B3FD9C74EECCC928832F879315E5C6FB7A73612F26C0C SWAP1 PUSH2 0x7E2 DUP4 PUSH2 0x2E99 JUMP JUMPDEST PUSH1 0x40 MLOAD PUSH1 0x1 DUP2 MSTORE LOG2 PUSH1 0x1 PUSH1 0x0 DUP1 MLOAD PUSH1 0x20 PUSH2 0x328A DUP4 CODECOPY DUP2 MLOAD SWAP2 MSTORE SSTORE STOP JUMPDEST SWAP1 PUSH1 0x2 SWAP2 PUSH1 0x8 SHR AND LT ISZERO PUSH2 0x814 JUMPI JUMPDEST POP POP PUSH2 0x4C5 JUMP JUMPDEST PUSH32 0x5A87909BFF68CAAAAF0B3FD9C74EECCC928832F879315E5C6FB7A73612F26C0C SWAP1 PUSH2 0x83F DUP4 PUSH2 0x309A JUMP JUMPDEST PUSH1 0x40 MLOAD PUSH1 0x0 DUP2 MSTORE LOG2 DUP1 DUP1 PUSH2 0x80D JUMP JUMPDEST POP PUSH2 0x879 DUP4 DUP4 ADD PUSH2 0x864 DUP7 DUP3 SLOAD PUSH1 0x8 SHR AND PUSH2 0x2C6A JUMP JUMPDEST PUSH2 0xFF00 DUP3 SLOAD SWAP2 PUSH1 0x8 SHL AND SWAP1 PUSH2 0xFF00 NOT AND OR SWAP1 SSTORE JUMP JUMPDEST PUSH2 0x77B JUMP JUMPDEST PUSH1 0x40 MLOAD PUSH3 0x461BCD PUSH1 0xE5 SHL DUP2 MSTORE PUSH1 0x4 DUP2 ADD DUP6 SWAP1 MSTORE PUSH1 0xD PUSH1 0x24 DUP3 ADD MSTORE PUSH13 0x185B1C9958591E481D9BDD1959 PUSH1 0x9A SHL PUSH1 0x44 DUP3 ADD MSTORE PUSH1 0x64 SWAP1 REVERT JUMPDEST PUSH1 0x40 MLOAD PUSH3 0x461BCD PUSH1 0xE5 SHL DUP2 MSTORE PUSH1 0x4 DUP2 ADD DUP6 SWAP1 MSTORE PUSH1 0x13 PUSH1 0x24 DUP3 ADD MSTORE PUSH19 0x195CD8DC9BDDC81B9BDD08191A5CDC1D5D1959 PUSH1 0x6A SHL PUSH1 0x44 DUP3 ADD MSTORE PUSH1 0x64 SWAP1 REVERT JUMPDEST CALLVALUE PUSH2 0x1C5 JUMPI PUSH1 0x20 CALLDATASIZE PUSH1 0x3 NOT ADD SLT PUSH2 0x1C5 JUMPI PUSH1 0x1 PUSH1 0x1 PUSH1 0xA0 SHL SUB PUSH2 0x90F PUSH2 0x2229 JUMP JUMPDEST AND PUSH1 0x0 MSTORE PUSH1 0x2 PUSH1 0x20 MSTORE PUSH1 0x20 PUSH1 0xFF PUSH1 0x40 PUSH1 0x0 KECCAK256 SLOAD AND PUSH1 0x40 MLOAD SWAP1 ISZERO ISZERO DUP2 MSTORE RETURN JUMPDEST CALLVALUE PUSH2 0x1C5 JUMPI PUSH1 0x20 CALLDATASIZE PUSH1 0x3 NOT ADD SLT PUSH2 0x1C5 JUMPI PUSH1 0x4 CALLDATALOAD PUSH1 0x0 MSTORE PUSH1 0x9 PUSH1 0x20 MSTORE PUSH1 0x20 PUSH1 0x40 PUSH1 0x0 KECCAK256 SLOAD PUSH1 0x40 MLOAD SWAP1 DUP2 MSTORE RETURN JUMPDEST CALLVALUE PUSH2 0x1C5 JUMPI PUSH1 0x20 CALLDATASIZE PUSH1 0x3 NOT ADD SLT PUSH2 0x1C5 JUMPI PUSH1 0x4 CALLDATALOAD PUSH1 0x0 MSTORE PUSH1 0xA PUSH1 0x20 MSTORE PUSH1 0x20 PUSH1 0x1 DUP1 PUSH1 0xA0 SHL SUB PUSH1 0x40 PUSH1 0x0 KECCAK256 SLOAD AND PUSH1 0x40 MLOAD SWAP1 DUP2 MSTORE RETURN JUMPDEST CALLVALUE PUSH2 0x1C5 JUMPI PUSH1 0x0 CALLDATASIZE PUSH1 0x3 NOT ADD SLT PUSH2 0x1C5 JUMPI PUSH1 0x20 PUSH1 0x40 MLOAD PUSH2 0x1388 DUP2 MSTORE RETURN JUMPDEST CALLVALUE PUSH2 0x1C5 JUMPI PUSH1 0x0 CALLDATASIZE PUSH1 0x3 NOT ADD SLT PUSH2 0x1C5 JUMPI PUSH1 0x0 SLOAD PUSH1 0x40 MLOAD PUSH1 0x1 PUSH1 0x1 PUSH1 0xA0 SHL SUB SWAP1 SWAP2 AND DUP2 MSTORE PUSH1 0x20 SWAP1 RETURN JUMPDEST CALLVALUE PUSH2 0x1C5 JUMPI PUSH1 0x0 CALLDATASIZE PUSH1 0x3 NOT ADD SLT PUSH2 0x1C5 JUMPI PUSH1 0x20 PUSH1 0x6 SLOAD PUSH1 0x40 MLOAD SWAP1 DUP2 MSTORE RETURN JUMPDEST CALLVALUE PUSH2 0x1C5 JUMPI PUSH1 0x0 CALLDATASIZE PUSH1 0x3 NOT ADD SLT PUSH2 0x1C5 JUMPI PUSH2 0xA0A PUSH2 0x22EF JUMP JUMPDEST PUSH2 0xA12 PUSH2 0x24B1 JUMP JUMPDEST PUSH1 0x0 DUP1 SLOAD PUSH1 0xFF PUSH1 0xA0 SHL NOT AND PUSH1 0x1 PUSH1 0xA0 SHL OR SWAP1 SSTORE PUSH1 0x40 MLOAD CALLER DUP2 MSTORE PUSH32 0x62E78CEA01BEE320CD4E420270B5EA74000D11B0C9F74754EBDBFC544B05A258 SWAP1 PUSH1 0x20 SWAP1 LOG1 STOP JUMPDEST CALLVALUE PUSH2 0x1C5 JUMPI PUSH1 0x0 CALLDATASIZE PUSH1 0x3 NOT ADD SLT PUSH2 0x1C5 JUMPI PUSH1 0x20 PUSH1 0x40 MLOAD PUSH32 0x0 DUP2 MSTORE RETURN JUMPDEST CALLVALUE PUSH2 0x1C5 JUMPI PUSH1 0x20 CALLDATASIZE PUSH1 0x3 NOT ADD SLT PUSH2 0x1C5 JUMPI PUSH1 0x4 CALLDATALOAD PUSH1 0x0 PUSH2 0x180 PUSH1 0x40 MLOAD PUSH2 0xAB3 DUP2 PUSH2 0x23AC JUMP JUMPDEST DUP3 DUP2 MSTORE DUP3 PUSH1 0x20 DUP3 ADD MSTORE DUP3 PUSH1 0x40 DUP3 ADD MSTORE DUP3 PUSH1 0x60 DUP3 ADD MSTORE PUSH1 0x60 PUSH1 0x80 DUP3 ADD MSTORE DUP3 PUSH1 0xA0 DUP3 ADD MSTORE DUP3 PUSH1 0xC0 DUP3 ADD MSTORE PUSH1 0x60 PUSH1 0xE0 DUP3 ADD MSTORE PUSH1 0x60 PUSH2 0x100 DUP3 ADD MSTORE DUP3 PUSH2 0x120 DUP3 ADD MSTORE PUSH2 0xAF9 PUSH2 0x2D3B JUMP JUMPDEST PUSH2 0x140 DUP3 ADD MSTORE PUSH2 0x160 DUP2 ADD DUP4 SWAP1 MSTORE ADD MSTORE PUSH1 0x0 DUP2 DUP2 MSTORE PUSH1 0x7 PUSH1 0x20 MSTORE PUSH1 0x40 SWAP1 KECCAK256 PUSH1 0x2 ADD SLOAD PUSH2 0xB2F SWAP1 PUSH1 0x1 PUSH1 0x1 PUSH1 0xA0 SHL SUB AND ISZERO ISZERO PUSH2 0x2502 JUMP JUMPDEST PUSH1 0x0 MSTORE PUSH1 0x7 PUSH1 0x20 MSTORE PUSH1 0x40 PUSH1 0x0 KECCAK256 PUSH1 0x40 MLOAD SWAP1 PUSH2 0xB49 DUP3 PUSH2 0x23AC JUMP JUMPDEST DUP1 SLOAD DUP3 MSTORE PUSH1 0x1 DUP2 ADD SLOAD PUSH1 0x1 PUSH1 0x1 PUSH1 0xA0 SHL SUB SWAP1 DUP2 AND PUSH1 0x20 DUP5 ADD MSTORE PUSH1 0x2 DUP3 ADD SLOAD DUP2 AND PUSH1 0x40 DUP5 ADD MSTORE PUSH1 0x3 DUP3 ADD SLOAD AND PUSH1 0x60 DUP4 ADD MSTORE PUSH2 0xB85 PUSH1 0x4 DUP3 ADD PUSH2 0x2D6D JUMP JUMPDEST PUSH1 0x80 DUP4 ADD MSTORE PUSH1 0x5 DUP2 ADD SLOAD PUSH1 0xA0 DUP4 ADD MSTORE PUSH1 0x6 DUP2 ADD SLOAD PUSH1 0xC0 DUP4 ADD MSTORE PUSH2 0xBAA PUSH1 0x7 DUP3 ADD PUSH2 0x2D6D JUMP JUMPDEST PUSH1 0xE0 DUP4 ADD MSTORE PUSH2 0xBBB PUSH1 0x8 DUP3 ADD PUSH2 0x2D6D JUMP JUMPDEST PUSH2 0x100 DUP4 ADD MSTORE PUSH1 0xFF PUSH1 0x9 DUP3 ADD SLOAD AND PUSH1 0x5 DUP2 LT ISZERO PUSH2 0x521 JUMPI PUSH1 0xFF SWAP2 PUSH1 0xC SWAP2 PUSH2 0x120 DUP6 ADD MSTORE PUSH1 0x40 MLOAD PUSH2 0xBEA DUP2 PUSH2 0x2391 JUMP JUMPDEST DUP4 PUSH1 0xA DUP4 ADD SLOAD DUP2 DUP2 AND ISZERO ISZERO DUP4 MSTORE DUP2 DUP2 PUSH1 0x8 SHR AND ISZERO ISZERO PUSH1 0x20 DUP5 ADD MSTORE DUP2 DUP2 PUSH1 0x10 SHR AND ISZERO ISZERO PUSH1 0x40 DUP5 ADD MSTORE DUP2 DUP2 PUSH1 0x18 SHR AND ISZERO ISZERO PUSH1 0x60 DUP5 ADD MSTORE PUSH1 0x20 SHR AND ISZERO ISZERO PUSH1 0x80 DUP3 ADD MSTORE PUSH1 0xB DUP3 ADD SLOAD PUSH1 0xA0 DUP3 ADD MSTORE PUSH2 0x140 DUP6 ADD MSTORE ADD SLOAD DUP2 DUP2 AND PUSH2 0x160 DUP5 ADD MSTORE PUSH1 0x8 SHR AND PUSH2 0x180 DUP3 ADD MSTORE PUSH1 0x40 MLOAD SWAP1 PUSH1 0x20 DUP3 MSTORE DUP1 MLOAD PUSH1 0x20 DUP4 ADD MSTORE PUSH1 0x1 DUP1 PUSH1 0xA0 SHL SUB PUSH1 0x20 DUP3 ADD MLOAD AND PUSH1 0x40 DUP4 ADD MSTORE PUSH1 0x1 DUP1 PUSH1 0xA0 SHL SUB PUSH1 0x40 DUP3 ADD MLOAD AND PUSH1 0x60 DUP4 ADD MSTORE PUSH1 0x1 DUP1 PUSH1 0xA0 SHL SUB PUSH1 0x60 DUP3 ADD MLOAD AND PUSH1 0x80 DUP4 ADD MSTORE PUSH2 0xCF9 PUSH2 0xCB1 PUSH1 0x80 DUP4 ADD MLOAD PUSH2 0x240 PUSH1 0xA0 DUP7 ADD MSTORE PUSH2 0x260 DUP6 ADD SWAP1 PUSH2 0x22A0 JUMP JUMPDEST PUSH1 0xA0 DUP4 ADD MLOAD PUSH1 0xC0 DUP6 ADD MSTORE PUSH1 0xC0 DUP4 ADD MLOAD PUSH1 0xE0 DUP6 ADD MSTORE PUSH2 0xCE2 PUSH1 0xE0 DUP5 ADD MLOAD SWAP2 PUSH1 0x1F NOT SWAP3 DUP4 DUP8 DUP4 SUB ADD PUSH2 0x100 DUP9 ADD MSTORE PUSH2 0x22A0 JUMP JUMPDEST SWAP1 PUSH2 0x100 DUP5 ADD MLOAD SWAP1 DUP6 DUP4 SUB ADD PUSH2 0x120 DUP7 ADD MSTORE PUSH2 0x22A0 JUMP JUMPDEST PUSH2 0x120 DUP3 ADD MLOAD SWAP2 PUSH1 0x5 DUP4 LT ISZERO PUSH2 0x521 JUMPI PUSH2 0x180 PUSH1 0xFF SWAP2 DUP6 SWAP5 PUSH2 0x140 DUP7 ADD MSTORE PUSH1 0xA0 PUSH2 0x140 DUP3 ADD MLOAD DUP1 MLOAD ISZERO ISZERO PUSH2 0x160 DUP9 ADD MSTORE PUSH1 0x20 DUP2 ADD MLOAD ISZERO ISZERO DUP5 DUP9 ADD MSTORE PUSH1 0x40 DUP2 ADD MLOAD ISZERO ISZERO PUSH2 0x1A0 DUP9 ADD MSTORE PUSH1 0x60 DUP2 ADD MLOAD ISZERO ISZERO PUSH2 0x1C0 DUP9 ADD MSTORE PUSH1 0x80 DUP2 ADD MLOAD ISZERO ISZERO PUSH2 0x1E0 DUP9 ADD MSTORE ADD MLOAD PUSH2 0x200 DUP7 ADD MSTORE DUP3 PUSH2 0x160 DUP3 ADD MLOAD AND PUSH2 0x220 DUP7 ADD MSTORE ADD MLOAD AND PUSH2 0x240 DUP4 ADD MSTORE SUB SWAP1 RETURN JUMPDEST CALLVALUE PUSH2 0x1C5 JUMPI PUSH1 0x0 CALLDATASIZE PUSH1 0x3 NOT ADD SLT PUSH2 0x1C5 JUMPI PUSH1 0x20 PUSH1 0x40 MLOAD PUSH32 0x0 DUP2 MSTORE RETURN JUMPDEST CALLVALUE PUSH2 0x1C5 JUMPI PUSH1 0x0 CALLDATASIZE PUSH1 0x3 NOT ADD SLT PUSH2 0x1C5 JUMPI PUSH2 0xDD2 PUSH2 0x22EF JUMP JUMPDEST PUSH1 0x0 DUP1 SLOAD PUSH1 0x1 PUSH1 0x1 PUSH1 0xA0 SHL SUB NOT DUP2 AND DUP3 SSTORE PUSH1 0x1 PUSH1 0x1 PUSH1 0xA0 SHL SUB AND PUSH32 0x8BE0079C531659141344CD1FD0A4F28419497F9722A3DAAFE3B4186F6B6457E0 DUP3 DUP1 LOG3 STOP JUMPDEST CALLVALUE PUSH2 0x1C5 JUMPI PUSH1 0x20 CALLDATASIZE PUSH1 0x3 NOT ADD SLT PUSH2 0x1C5 JUMPI PUSH1 0x1 PUSH1 0x1 PUSH1 0xA0 SHL SUB PUSH2 0xE33 PUSH2 0x2229 JUMP JUMPDEST AND PUSH1 0x0 MSTORE PUSH1 0x3 PUSH1 0x20 MSTORE PUSH1 0x20 PUSH1 0x40 PUSH1 0x0 KECCAK256 SLOAD PUSH1 0x40 MLOAD SWAP1 DUP2 MSTORE RETURN JUMPDEST CALLVALUE PUSH2 0x1C5 JUMPI PUSH1 0x20 CALLDATASIZE PUSH1 0x3 NOT ADD SLT PUSH2 0x1C5 JUMPI PUSH1 0x1 PUSH1 0x1 PUSH1 0xA0 SHL SUB PUSH2 0xE6D PUSH2 0x2229 JUMP JUMPDEST AND PUSH1 0x0 MSTORE PUSH1 0x4 PUSH1 0x20 MSTORE PUSH1 0x20 PUSH1 0x40 PUSH1 0x0 KECCAK256 SLOAD PUSH1 0x40 MLOAD SWAP1 DUP2 MSTORE RETURN JUMPDEST CALLVALUE PUSH2 0x1C5 JUMPI PUSH1 0x0 CALLDATASIZE PUSH1 0x3 NOT ADD SLT PUSH2 0x1C5 JUMPI PUSH1 0x20 PUSH1 0x5 SLOAD PUSH1 0x40 MLOAD SWAP1 DUP2 MSTORE RETURN JUMPDEST CALLVALUE PUSH2 0x1C5 JUMPI PUSH1 0x0 CALLDATASIZE PUSH1 0x3 NOT ADD SLT PUSH2 0x1C5 JUMPI PUSH1 0x20 PUSH1 0xFF PUSH1 0x0 SLOAD PUSH1 0xA0 SHR AND PUSH1 0x40 MLOAD SWAP1 ISZERO ISZERO DUP2 MSTORE RETURN JUMPDEST CALLVALUE PUSH2 0x1C5 JUMPI PUSH1 0x20 CALLDATASIZE PUSH1 0x3 NOT ADD SLT PUSH2 0x1C5 JUMPI PUSH1 0x4 CALLDATALOAD PUSH2 0xEE6 PUSH2 0x24B1 JUMP JUMPDEST PUSH2 0xEEE PUSH2 0x24D2 JUMP JUMPDEST PUSH1 0x0 DUP2 DUP2 MSTORE PUSH1 0x7 PUSH1 0x20 MSTORE PUSH1 0x40 SWAP1 KECCAK256 PUSH1 0x2 ADD SLOAD PUSH1 0x1 PUSH1 0x1 PUSH1 0xA0 SHL SUB SWAP1 PUSH2 0xF16 SWAP1 DUP3 AND ISZERO ISZERO PUSH2 0x2502 JUMP JUMPDEST DUP2 PUSH1 0x0 MSTORE PUSH1 0x7 PUSH1 0x20 MSTORE PUSH1 0x40 PUSH1 0x0 KECCAK256 SWAP1 PUSH1 0x2 DUP3 ADD SLOAD AND CALLER SUB PUSH2 0xFAC JUMPI PUSH1 0xFF PUSH1 0x9 DUP3 ADD SLOAD AND SWAP1 PUSH1 0x5 DUP3 LT ISZERO PUSH2 0x521 JUMPI PUSH2 0xF5F PUSH1 0x3 DUP4 PUSH2 0xF58 PUSH1 0x2 PUSH1 0x5 SWAP7 EQ ISZERO PUSH2 0x2B93 JUMP JUMPDEST EQ ISZERO PUSH2 0x2BDF JUMP JUMPDEST ADD SLOAD TIMESTAMP GT ISZERO PUSH2 0xF71 JUMPI PUSH2 0x4C5 SWAP1 PUSH2 0x309A JUMP JUMPDEST PUSH1 0x40 MLOAD PUSH3 0x461BCD PUSH1 0xE5 SHL DUP2 MSTORE PUSH1 0x20 PUSH1 0x4 DUP3 ADD MSTORE PUSH1 0x13 PUSH1 0x24 DUP3 ADD MSTORE PUSH19 0x191958591B1A5B99481B9BDD081C185CDCD959 PUSH1 0x6A SHL PUSH1 0x44 DUP3 ADD MSTORE PUSH1 0x64 SWAP1 REVERT JUMPDEST PUSH1 0x40 MLOAD PUSH3 0x461BCD PUSH1 0xE5 SHL DUP2 MSTORE PUSH1 0x20 PUSH1 0x4 DUP3 ADD MSTORE PUSH1 0xD PUSH1 0x24 DUP3 ADD MSTORE PUSH13 0x37B7363C9034B6B837B93A32B9 PUSH1 0x99 SHL PUSH1 0x44 DUP3 ADD MSTORE PUSH1 0x64 SWAP1 REVERT JUMPDEST CALLVALUE PUSH2 0x1C5 JUMPI PUSH1 0x20 DUP1 PUSH1 0x3 NOT CALLDATASIZE ADD SLT PUSH2 0x1C5 JUMPI PUSH1 0x4 CALLDATALOAD SWAP1 PUSH2 0xFFF PUSH2 0x24B1 JUMP JUMPDEST PUSH1 0x0 DUP3 DUP2 MSTORE PUSH1 0x7 DUP3 MSTORE PUSH1 0x40 SWAP1 KECCAK256 PUSH1 0x2 ADD SLOAD PUSH1 0x1 PUSH1 0x1 PUSH1 0xA0 SHL SUB SWAP1 PUSH2 0x1026 SWAP1 DUP3 AND ISZERO ISZERO PUSH2 0x2502 JUMP JUMPDEST DUP3 PUSH1 0x0 MSTORE PUSH1 0x7 DUP3 MSTORE PUSH1 0x40 PUSH1 0x0 KECCAK256 PUSH1 0xFF PUSH1 0x9 DUP3 ADD SLOAD AND PUSH1 0x5 DUP2 LT ISZERO PUSH2 0x521 JUMPI DUP1 PUSH2 0x1058 SWAP2 ISZERO SWAP1 DUP2 ISZERO PUSH2 0x1166 JUMPI JUMPDEST POP PUSH2 0x2C7C JUMP JUMPDEST DUP2 PUSH1 0x2 DUP3 ADD SLOAD AND CALLER EQ DUP1 ISZERO PUSH2 0x1157 JUMPI JUMPDEST PUSH2 0x1071 SWAP1 PUSH2 0x2CBF JUMP JUMPDEST DUP4 PUSH1 0x0 MSTORE PUSH1 0x9 DUP4 MSTORE PUSH1 0x40 PUSH1 0x0 KECCAK256 SLOAD SWAP2 DUP3 ISZERO PUSH2 0x111B JUMPI DUP5 PUSH1 0x0 MSTORE PUSH1 0xA DUP5 MSTORE PUSH1 0x40 PUSH1 0x0 KECCAK256 SLOAD AND CALLER EQ PUSH2 0x10D6 JUMPI SWAP1 DUP1 PUSH1 0x5 PUSH32 0x73D5FD87A7E0C2A384727F9AAB2E84826370623ABA582638B425A417E799A2C SWAP5 SWAP4 ADD SSTORE PUSH2 0x10CD DUP5 PUSH2 0x2E6E JUMP JUMPDEST PUSH1 0x40 MLOAD SWAP1 DUP2 MSTORE LOG2 STOP JUMPDEST PUSH1 0x40 MLOAD PUSH3 0x461BCD PUSH1 0xE5 SHL DUP2 MSTORE PUSH1 0x4 DUP2 ADD DUP5 SWAP1 MSTORE PUSH1 0x17 PUSH1 0x24 DUP3 ADD MSTORE PUSH32 0x70726F706F7365722063616E6E6F7420617070726F7665000000000000000000 PUSH1 0x44 DUP3 ADD MSTORE PUSH1 0x64 SWAP1 REVERT JUMPDEST PUSH1 0x40 MLOAD PUSH3 0x461BCD PUSH1 0xE5 SHL DUP2 MSTORE PUSH1 0x4 DUP2 ADD DUP6 SWAP1 MSTORE PUSH1 0x14 PUSH1 0x24 DUP3 ADD MSTORE PUSH20 0x3737903832B73234B7339032BC3A32B739B4B7B7 PUSH1 0x61 SHL PUSH1 0x44 DUP3 ADD MSTORE PUSH1 0x64 SWAP1 REVERT JUMPDEST POP PUSH1 0x1 DUP2 ADD SLOAD DUP3 AND CALLER EQ PUSH2 0x1068 JUMP JUMPDEST PUSH1 0x1 SWAP2 POP EQ DUP7 PUSH2 0x1052 JUMP JUMPDEST CALLVALUE PUSH2 0x1C5 JUMPI PUSH1 0x0 CALLDATASIZE PUSH1 0x3 NOT ADD SLT PUSH2 0x1C5 JUMPI PUSH1 0x1 DUP1 SLOAD SWAP1 PUSH2 0x1190 DUP3 PUSH2 0x2E11 JUMP JUMPDEST SWAP2 PUSH2 0x119E PUSH1 0x40 MLOAD SWAP4 DUP5 PUSH2 0x23E3 JUMP JUMPDEST DUP1 DUP4 MSTORE PUSH2 0x11AA DUP2 PUSH2 0x2E11 JUMP JUMPDEST PUSH1 0x20 DUP5 DUP2 ADD SWAP2 PUSH1 0x1F NOT ADD CALLDATASIZE DUP4 CALLDATACOPY PUSH2 0x11C0 DUP4 PUSH2 0x2E28 JUMP JUMPDEST SWAP1 PUSH2 0x11CA DUP5 PUSH2 0x2E28 JUMP JUMPDEST SWAP4 PUSH1 0x0 JUMPDEST DUP2 DUP2 LT PUSH2 0x1242 JUMPI POP POP PUSH1 0x40 MLOAD SWAP6 DUP7 SWAP6 PUSH1 0x60 DUP8 ADD SWAP2 PUSH1 0x60 DUP9 MSTORE MLOAD DUP1 SWAP3 MSTORE PUSH1 0x80 DUP8 ADD SWAP5 SWAP2 PUSH1 0x0 JUMPDEST DUP2 DUP2 LT PUSH2 0x1223 JUMPI DUP9 DUP8 SUB DUP6 DUP11 ADD MSTORE DUP9 DUP1 PUSH2 0x121F DUP11 PUSH2 0x1211 DUP12 DUP12 PUSH2 0x226C JUMP JUMPDEST SWAP1 DUP4 DUP3 SUB PUSH1 0x40 DUP6 ADD MSTORE PUSH2 0x226C JUMP JUMPDEST SUB SWAP1 RETURN JUMPDEST DUP4 MLOAD PUSH1 0x1 PUSH1 0x1 PUSH1 0xA0 SHL SUB AND DUP8 MSTORE DUP10 SWAP9 POP SWAP6 DUP5 ADD SWAP6 SWAP3 DUP5 ADD SWAP3 DUP3 ADD PUSH2 0x11F3 JUMP JUMPDEST DUP1 PUSH2 0x1255 PUSH2 0x12C8 SWAP3 SWAP9 SWAP5 SWAP6 SWAP7 SWAP8 SWAP9 PUSH2 0x2541 JUMP JUMPDEST SWAP1 SLOAD PUSH1 0x1 PUSH1 0x1 PUSH1 0xA0 SHL SUB SWAP2 PUSH1 0x3 SWAP2 SWAP1 DUP3 SHL SHR DUP3 AND PUSH2 0x1273 DUP5 DUP14 PUSH2 0x2E5A JUMP JUMPDEST MSTORE DUP2 PUSH2 0x127E DUP5 PUSH2 0x2541 JUMP JUMPDEST SWAP1 SLOAD SWAP1 DUP4 SHL SHR AND PUSH1 0x0 MSTORE DUP1 DUP8 MSTORE PUSH1 0x40 PUSH1 0x0 KECCAK256 SLOAD PUSH2 0x129B DUP5 DUP11 PUSH2 0x2E5A JUMP JUMPDEST MSTORE PUSH2 0x12A5 DUP4 PUSH2 0x2541 JUMP JUMPDEST SWAP1 SLOAD SWAP2 SHL SHR AND PUSH1 0x0 MSTORE PUSH1 0x4 DUP6 MSTORE PUSH1 0x40 PUSH1 0x0 KECCAK256 SLOAD PUSH2 0x12C2 DUP3 DUP11 PUSH2 0x2E5A JUMP JUMPDEST MSTORE PUSH2 0x2382 JUMP JUMPDEST SWAP6 SWAP5 SWAP4 SWAP3 SWAP2 SWAP6 PUSH2 0x11CE JUMP JUMPDEST CALLVALUE PUSH2 0x1C5 JUMPI PUSH1 0x0 CALLDATASIZE PUSH1 0x3 NOT ADD SLT PUSH2 0x1C5 JUMPI PUSH2 0x12EC PUSH2 0x22EF JUMP JUMPDEST PUSH1 0x0 SLOAD PUSH1 0xFF DUP2 PUSH1 0xA0 SHR AND ISZERO PUSH2 0x1333 JUMPI PUSH1 0xFF PUSH1 0xA0 SHL NOT AND PUSH1 0x0 SSTORE PUSH1 0x40 MLOAD CALLER DUP2 MSTORE PUSH32 0x5DB9EE0A495BF2E6FF9C91A7834C1BA4FDD244A5E8AA4E537BD38AEAE4B073AA SWAP1 PUSH1 0x20 SWAP1 LOG1 STOP JUMPDEST PUSH1 0x40 MLOAD PUSH4 0x8DFC202B PUSH1 0xE0 SHL DUP2 MSTORE PUSH1 0x4 SWAP1 REVERT JUMPDEST CALLVALUE PUSH2 0x1C5 JUMPI PUSH1 0x40 CALLDATASIZE PUSH1 0x3 NOT ADD SLT PUSH2 0x1C5 JUMPI PUSH2 0x135E PUSH2 0x2213 JUMP JUMPDEST PUSH1 0x4 CALLDATALOAD PUSH1 0x0 MSTORE PUSH1 0xC PUSH1 0x20 MSTORE PUSH1 0x40 PUSH1 0x0 KECCAK256 SWAP1 PUSH1 0x1 DUP1 PUSH1 0xA0 SHL SUB AND PUSH1 0x0 MSTORE PUSH1 0x20 MSTORE PUSH1 0x20 PUSH1 0xFF PUSH1 0x40 PUSH1 0x0 KECCAK256 SLOAD AND PUSH1 0x40 MLOAD SWAP1 ISZERO ISZERO DUP2 MSTORE RETURN JUMPDEST CALLVALUE PUSH2 0x1C5 JUMPI PUSH1 0x40 CALLDATASIZE PUSH1 0x3 NOT ADD SLT PUSH2 0x1C5 JUMPI PUSH1 0x24 CALLDATALOAD PUSH1 0x4 CALLDATALOAD PUSH2 0x13B1 PUSH2 0x24B1 JUMP JUMPDEST DUP1 PUSH1 0x0 MSTORE PUSH1 0x20 PUSH1 0x7 DUP2 MSTORE PUSH1 0x1 DUP1 PUSH1 0xA0 SHL SUB PUSH2 0x13D7 DUP2 PUSH1 0x2 PUSH1 0x40 PUSH1 0x0 KECCAK256 ADD SLOAD AND ISZERO ISZERO PUSH2 0x2502 JUMP JUMPDEST DUP3 PUSH1 0x0 MSTORE PUSH1 0x7 DUP3 MSTORE PUSH1 0x40 PUSH1 0x0 KECCAK256 PUSH1 0xFF PUSH1 0x9 DUP3 ADD SLOAD AND PUSH1 0x5 DUP2 LT ISZERO PUSH2 0x521 JUMPI PUSH1 0x5 SWAP3 PUSH2 0x140E DUP3 PUSH2 0x1425 SWAP4 ISZERO SWAP1 DUP2 ISZERO PUSH2 0x14D0 JUMPI POP PUSH2 0x2C7C JUMP JUMPDEST DUP1 PUSH1 0x2 DUP5 ADD SLOAD AND CALLER EQ SWAP1 DUP2 ISZERO PUSH2 0x14C0 JUMPI JUMPDEST POP PUSH2 0x2CBF JUMP JUMPDEST ADD SLOAD DUP4 GT ISZERO PUSH2 0x1485 JUMPI PUSH32 0x903AC8C4B8795FB6D54C897C4E7AC26E26699D8CEC993E5EA924D50E69A73A27 SWAP1 DUP3 PUSH1 0x0 MSTORE PUSH1 0x9 DUP2 MSTORE DUP4 PUSH1 0x40 PUSH1 0x0 KECCAK256 SSTORE PUSH1 0xA DUP2 MSTORE PUSH1 0x40 PUSH1 0x0 KECCAK256 CALLER PUSH1 0x1 PUSH1 0x1 PUSH1 0x60 SHL SUB PUSH1 0xA0 SHL DUP3 SLOAD AND OR SWAP1 SSTORE PUSH1 0x40 MLOAD SWAP4 DUP5 MSTORE CALLER SWAP4 LOG3 STOP JUMPDEST PUSH1 0x64 SWAP1 PUSH1 0x40 MLOAD SWAP1 PUSH3 0x461BCD PUSH1 0xE5 SHL DUP3 MSTORE PUSH1 0x4 DUP3 ADD MSTORE PUSH1 0x14 PUSH1 0x24 DUP3 ADD MSTORE PUSH20 0x6D75737420657874656E6420646561646C696E65 PUSH1 0x60 SHL PUSH1 0x44 DUP3 ADD MSTORE REVERT JUMPDEST SWAP1 POP PUSH1 0x1 DUP4 ADD SLOAD AND CALLER EQ DUP8 PUSH2 0x141F JUMP JUMPDEST PUSH1 0x1 SWAP2 POP EQ DUP10 PUSH2 0x1052 JUMP JUMPDEST CALLVALUE PUSH2 0x1C5 JUMPI PUSH1 0x20 CALLDATASIZE PUSH1 0x3 NOT ADD SLT PUSH2 0x1C5 JUMPI PUSH1 0x4 CALLDATALOAD PUSH2 0x14F7 PUSH2 0x24B1 JUMP JUMPDEST PUSH1 0x0 DUP2 DUP2 MSTORE PUSH1 0x7 PUSH1 0x20 MSTORE PUSH1 0x40 SWAP1 KECCAK256 PUSH1 0x2 ADD SLOAD PUSH2 0x151D SWAP1 PUSH1 0x1 PUSH1 0x1 PUSH1 0xA0 SHL SUB AND ISZERO ISZERO PUSH2 0x2502 JUMP JUMPDEST DUP1 PUSH1 0x0 MSTORE PUSH1 0x7 PUSH1 0x20 MSTORE PUSH1 0x40 PUSH1 0x0 KECCAK256 PUSH1 0x9 DUP2 ADD SWAP1 DUP2 SLOAD PUSH1 0xFF DUP2 AND PUSH1 0x5 DUP2 LT ISZERO PUSH2 0x521 JUMPI DUP1 ISZERO SWAP1 DUP2 ISZERO PUSH2 0x15CE JUMPI JUMPDEST POP ISZERO PUSH2 0x1598 JUMPI PUSH2 0x155F PUSH2 0x70C PUSH1 0x4 SWAP4 CALLER SWAP1 PUSH2 0x323D JUMP JUMPDEST PUSH1 0xFF NOT AND OR SWAP1 SSTORE PUSH2 0x156F DUP2 PUSH2 0x2E6E JUMP JUMPDEST CALLER SWAP1 PUSH32 0x44F3C3ED15C708331582BC379D28659A58F183A563ABE41AA4C8889DB469F71C PUSH1 0x0 DUP1 LOG3 STOP JUMPDEST PUSH1 0x40 MLOAD PUSH3 0x461BCD PUSH1 0xE5 SHL DUP2 MSTORE PUSH1 0x20 PUSH1 0x4 DUP3 ADD MSTORE PUSH1 0xE PUSH1 0x24 DUP3 ADD MSTORE PUSH14 0x63616E6E6F742064697370757465 PUSH1 0x90 SHL PUSH1 0x44 DUP3 ADD MSTORE PUSH1 0x64 SWAP1 REVERT JUMPDEST PUSH1 0x1 SWAP2 POP EQ DUP6 PUSH2 0x1549 JUMP JUMPDEST PUSH1 0xC0 CALLDATASIZE PUSH1 0x3 NOT ADD SLT PUSH2 0x1C5 JUMPI PUSH1 0x4 CALLDATALOAD PUSH1 0x1 PUSH1 0x1 PUSH1 0xA0 SHL SUB DUP2 AND DUP2 SUB PUSH2 0x1C5 JUMPI PUSH2 0x1600 PUSH2 0x2213 JUMP JUMPDEST PUSH1 0x44 SWAP1 DUP2 CALLDATALOAD PUSH1 0x1 PUSH1 0x1 PUSH1 0x40 SHL SUB DUP2 GT PUSH2 0x1C5 JUMPI PUSH2 0x1621 SWAP1 CALLDATASIZE SWAP1 PUSH1 0x4 ADD PUSH2 0x223F JUMP JUMPDEST SWAP4 SWAP1 PUSH1 0x84 CALLDATALOAD PUSH1 0x1 PUSH1 0x1 PUSH1 0x40 SHL SUB DUP2 GT PUSH2 0x1C5 JUMPI PUSH2 0x1642 SWAP1 CALLDATASIZE SWAP1 PUSH1 0x4 ADD PUSH2 0x223F JUMP JUMPDEST SWAP6 SWAP1 PUSH1 0xA4 CALLDATALOAD PUSH1 0x1 PUSH1 0x1 PUSH1 0x40 SHL SUB DUP2 GT PUSH2 0x1C5 JUMPI PUSH2 0x1663 SWAP1 CALLDATASIZE SWAP1 PUSH1 0x4 ADD PUSH2 0x223F JUMP JUMPDEST SWAP7 PUSH2 0x166C PUSH2 0x24B1 JUMP JUMPDEST PUSH2 0x1674 PUSH2 0x24D2 JUMP JUMPDEST CALLVALUE ISZERO PUSH2 0x1E6A JUMPI PUSH1 0x1 PUSH1 0x1 PUSH1 0xA0 SHL SUB DUP7 AND ISZERO PUSH2 0x1E2E JUMPI PUSH1 0x1 PUSH1 0x1 PUSH1 0xA0 SHL SUB DUP8 AND ISZERO PUSH2 0x1DF3 JUMPI TIMESTAMP PUSH1 0x64 CALLDATALOAD GT ISZERO PUSH2 0x1DAF JUMPI DUP4 ISZERO PUSH2 0x1D78 JUMPI DUP8 ISZERO PUSH2 0x1D3B JUMPI POP PUSH1 0x6 SLOAD SWAP7 PUSH2 0x16BC DUP9 PUSH2 0x2382 JUMP JUMPDEST PUSH1 0x6 SSTORE PUSH1 0x40 MLOAD SWAP9 PUSH2 0x16CC DUP11 PUSH2 0x2391 JUMP JUMPDEST PUSH1 0x0 DUP11 MSTORE PUSH1 0x0 PUSH1 0x20 DUP12 ADD MSTORE PUSH1 0x0 PUSH1 0x40 DUP12 ADD MSTORE PUSH1 0x0 PUSH1 0x60 DUP12 ADD MSTORE PUSH1 0x0 PUSH1 0x80 DUP12 ADD MSTORE PUSH1 0x0 PUSH1 0xA0 DUP12 ADD MSTORE PUSH1 0x40 MLOAD SWAP10 PUSH2 0x1700 DUP12 PUSH2 0x23AC JUMP JUMPDEST CALLVALUE DUP12 MSTORE PUSH1 0x1 PUSH1 0x1 PUSH1 0xA0 SHL SUB DUP9 DUP2 AND PUSH1 0x20 DUP14 ADD MSTORE CALLER PUSH1 0x40 DUP14 ADD MSTORE DUP10 AND PUSH1 0x60 DUP13 ADD MSTORE PUSH2 0x172B CALLDATASIZE DUP8 DUP10 PUSH2 0x241F JUMP JUMPDEST PUSH1 0x80 DUP13 ADD MSTORE PUSH1 0x64 CALLDATALOAD PUSH1 0xA0 DUP13 ADD MSTORE NUMBER PUSH1 0xC0 DUP13 ADD MSTORE PUSH2 0x1749 CALLDATASIZE DUP4 DUP8 PUSH2 0x241F JUMP JUMPDEST PUSH1 0xE0 DUP13 ADD MSTORE PUSH2 0x1759 CALLDATASIZE DUP5 DUP7 PUSH2 0x241F JUMP JUMPDEST PUSH2 0x100 DUP13 ADD MSTORE PUSH1 0x0 PUSH2 0x120 DUP13 ADD MSTORE PUSH2 0x140 DUP12 ADD MSTORE PUSH1 0x0 PUSH2 0x160 DUP12 ADD MSTORE PUSH1 0x0 PUSH2 0x180 DUP12 ADD MSTORE DUP9 PUSH1 0x0 MSTORE PUSH1 0x7 PUSH1 0x20 MSTORE PUSH1 0x40 PUSH1 0x0 KECCAK256 SWAP4 DUP11 MLOAD DUP6 SSTORE PUSH1 0x1 DUP6 ADD PUSH1 0x1 DUP1 PUSH1 0xA0 SHL SUB PUSH1 0x20 DUP14 ADD MLOAD AND SWAP1 PUSH1 0x1 PUSH1 0x1 PUSH1 0x60 SHL SUB PUSH1 0xA0 SHL SWAP2 DUP3 DUP3 SLOAD AND OR SWAP1 SSTORE PUSH1 0x2 DUP7 ADD DUP13 PUSH1 0x40 PUSH1 0x1 DUP1 PUSH1 0xA0 SHL SUB SWAP2 ADD MLOAD AND DUP3 DUP3 SLOAD AND OR SWAP1 SSTORE PUSH1 0x3 DUP7 ADD SWAP1 DUP13 PUSH1 0x60 PUSH1 0x1 DUP1 PUSH1 0xA0 SHL SUB SWAP2 ADD MLOAD AND SWAP1 DUP3 SLOAD AND OR SWAP1 SSTORE PUSH1 0x80 DUP12 ADD MLOAD DUP1 MLOAD SWAP1 PUSH1 0x1 PUSH1 0x1 PUSH1 0x40 SHL SUB DUP3 GT PUSH2 0x1B85 JUMPI DUP2 SWAP1 PUSH2 0x180D PUSH1 0x4 DUP10 ADD SLOAD PUSH2 0x2456 JUMP JUMPDEST PUSH1 0x1F DUP2 GT PUSH2 0x1CE8 JUMPI JUMPDEST POP PUSH1 0x20 SWAP1 PUSH1 0x1F DUP4 GT PUSH1 0x1 EQ PUSH2 0x1C76 JUMPI PUSH1 0x0 SWAP3 PUSH2 0x1C6B JUMPI JUMPDEST POP POP DUP2 PUSH1 0x1 SHL SWAP2 PUSH1 0x0 NOT SWAP1 PUSH1 0x3 SHL SHR NOT AND OR PUSH1 0x4 DUP7 ADD SSTORE JUMPDEST PUSH1 0xA0 DUP12 ADD MLOAD PUSH1 0x5 DUP7 ADD SSTORE PUSH1 0xC0 DUP12 ADD MLOAD PUSH1 0x6 DUP7 ADD SSTORE PUSH1 0xE0 DUP12 ADD MLOAD DUP1 MLOAD SWAP1 PUSH1 0x1 PUSH1 0x1 PUSH1 0x40 SHL SUB DUP3 GT PUSH2 0x1B85 JUMPI DUP2 SWAP1 PUSH2 0x187E PUSH1 0x7 DUP10 ADD SLOAD PUSH2 0x2456 JUMP JUMPDEST PUSH1 0x1F DUP2 GT PUSH2 0x1C18 JUMPI JUMPDEST POP PUSH1 0x20 SWAP1 PUSH1 0x1F DUP4 GT PUSH1 0x1 EQ PUSH2 0x1BA6 JUMPI PUSH1 0x0 SWAP3 PUSH2 0x1B9B JUMPI JUMPDEST POP POP DUP2 PUSH1 0x1 SHL SWAP2 PUSH1 0x0 NOT SWAP1 PUSH1 0x3 SHL SHR NOT AND OR PUSH1 0x7 DUP7 ADD SSTORE JUMPDEST PUSH2 0x100 DUP12 ADD MLOAD DUP1 MLOAD SWAP1 PUSH1 0x1 PUSH1 0x1 PUSH1 0x40 SHL SUB DUP3 GT PUSH2 0x1B85 JUMPI DUP2 SWAP1 PUSH2 0x18DC PUSH1 0x8 DUP10 ADD SLOAD PUSH2 0x2456 JUMP JUMPDEST PUSH1 0x1F DUP2 GT PUSH2 0x1B32 JUMPI JUMPDEST POP PUSH1 0x20 SWAP1 PUSH1 0x1F DUP4 GT PUSH1 0x1 EQ PUSH2 0x1AC0 JUMPI PUSH1 0x0 SWAP3 PUSH2 0x1AB5 JUMPI JUMPDEST POP POP DUP2 PUSH1 0x1 SHL SWAP2 PUSH1 0x0 NOT SWAP1 PUSH1 0x3 SHL SHR NOT AND OR PUSH1 0x8 DUP7 ADD SSTORE JUMPDEST PUSH2 0x120 DUP12 ADD MLOAD SWAP2 PUSH1 0x5 DUP4 LT ISZERO PUSH2 0x521 JUMPI PUSH2 0x1A64 DUP12 SWAP9 PUSH32 0x7D94EB80DD12E87BD072CFA504C5CB51A379311AAEE1F4730E7A5BA63EEE7C00 SWAP9 PUSH2 0x1A3D PUSH1 0x20 SWAP16 SWAP7 PUSH1 0xFF PUSH2 0x180 PUSH2 0x1A72 SWAP10 PUSH1 0xC DUP15 PUSH2 0x1A80 SWAP16 PUSH1 0x9 ADD DUP6 NOT SWAP7 DUP7 DUP9 DUP4 SLOAD AND SWAP2 AND OR SWAP1 SSTORE PUSH1 0xA0 PUSH1 0xA DUP3 ADD PUSH2 0x1A0D PUSH2 0x140 DUP7 ADD MLOAD SWAP2 PUSH2 0x199B DUP4 MLOAD ISZERO ISZERO DUP3 SWAP1 PUSH1 0xFF DUP1 NOT DUP4 SLOAD AND SWAP2 ISZERO ISZERO AND OR SWAP1 SSTORE JUMP JUMPDEST PUSH1 0x20 DUP4 ADD MLOAD DUP2 SLOAD PUSH2 0xFF00 NOT AND SWAP1 ISZERO ISZERO PUSH1 0x8 SHL PUSH2 0xFF00 AND OR DUP2 SSTORE PUSH1 0x40 DUP4 ADD MLOAD DUP2 SLOAD PUSH3 0xFF0000 NOT AND SWAP1 ISZERO ISZERO PUSH1 0x10 SHL PUSH3 0xFF0000 AND OR DUP2 SSTORE PUSH1 0x60 DUP4 ADD MLOAD DUP2 SLOAD PUSH4 0xFF000000 NOT AND SWAP1 ISZERO ISZERO PUSH1 0x18 SHL PUSH4 0xFF000000 AND OR DUP2 SSTORE PUSH1 0x80 DUP4 ADD MLOAD DUP2 SLOAD PUSH5 0xFF00000000 NOT AND SWAP1 ISZERO ISZERO PUSH1 0x20 SHL PUSH5 0xFF00000000 AND OR SWAP1 SSTORE JUMP JUMPDEST ADD MLOAD PUSH1 0xB DUP3 ADD SSTORE ADD SWAP4 DUP4 PUSH2 0x160 DUP4 ADD MLOAD AND SWAP1 DUP6 SLOAD AND OR DUP5 SSTORE ADD MLOAD AND PUSH2 0xFF00 DUP3 SLOAD SWAP2 PUSH1 0x8 SHL AND SWAP1 PUSH2 0xFF00 NOT AND OR SWAP1 SSTORE JUMP JUMPDEST PUSH1 0x40 DUP1 MLOAD PUSH1 0x1 PUSH1 0x1 PUSH1 0xA0 SHL SUB SWAP1 SWAP15 AND DUP15 MSTORE CALLVALUE PUSH1 0x20 DUP16 ADD MSTORE PUSH1 0xC0 SWAP1 DUP15 ADD DUP2 SWAP1 MSTORE DUP14 ADD SWAP2 PUSH2 0x2490 JUMP JUMPDEST SWAP2 DUP11 DUP4 SUB PUSH1 0x60 DUP13 ADD MSTORE PUSH2 0x2490 JUMP JUMPDEST SWAP2 DUP8 DUP4 SUB PUSH1 0x80 DUP10 ADD MSTORE PUSH2 0x2490 JUMP JUMPDEST PUSH1 0x64 CALLDATALOAD PUSH1 0xA0 DUP7 ADD MSTORE PUSH1 0x1 PUSH1 0x1 PUSH1 0xA0 SHL SUB SWAP1 SWAP4 AND SWAP4 CALLER SWAP4 DUP2 SWAP1 SUB SWAP1 LOG4 PUSH1 0x1 PUSH1 0x0 DUP1 MLOAD PUSH1 0x20 PUSH2 0x328A DUP4 CODECOPY DUP2 MLOAD SWAP2 MSTORE SSTORE PUSH1 0x40 MLOAD SWAP1 DUP2 MSTORE RETURN JUMPDEST ADD MLOAD SWAP1 POP DUP14 DUP1 PUSH2 0x18FC JUMP JUMPDEST SWAP3 POP PUSH1 0x8 DUP9 ADD PUSH1 0x0 MSTORE PUSH1 0x20 PUSH1 0x0 KECCAK256 SWAP1 PUSH1 0x0 SWAP4 JUMPDEST PUSH1 0x1F NOT DUP5 AND DUP6 LT PUSH2 0x1B17 JUMPI PUSH1 0x1 SWAP5 POP DUP4 PUSH1 0x1F NOT DUP2 AND LT PUSH2 0x1AFE JUMPI JUMPDEST POP POP POP DUP2 SHL ADD PUSH1 0x8 DUP7 ADD SSTORE PUSH2 0x1914 JUMP JUMPDEST ADD MLOAD PUSH1 0x0 NOT PUSH1 0xF8 DUP5 PUSH1 0x3 SHL AND SHR NOT AND SWAP1 SSTORE DUP14 DUP1 DUP1 PUSH2 0x1AEE JUMP JUMPDEST DUP2 DUP2 ADD MLOAD DUP4 SSTORE PUSH1 0x20 SWAP5 DUP6 ADD SWAP5 PUSH1 0x1 SWAP1 SWAP4 ADD SWAP3 SWAP1 SWAP2 ADD SWAP1 PUSH2 0x1AD3 JUMP JUMPDEST SWAP1 SWAP2 POP PUSH1 0x8 DUP9 ADD PUSH1 0x0 MSTORE PUSH1 0x20 PUSH1 0x0 KECCAK256 PUSH1 0x1F DUP5 ADD PUSH1 0x5 SHR DUP2 ADD PUSH1 0x20 DUP6 LT PUSH2 0x1B7E JUMPI JUMPDEST SWAP1 DUP5 SWAP4 SWAP3 SWAP2 JUMPDEST PUSH1 0x1F DUP4 ADD PUSH1 0x5 SHR DUP3 ADD DUP2 LT PUSH2 0x1B6F JUMPI POP POP PUSH2 0x18E5 JUMP JUMPDEST PUSH1 0x0 DUP2 SSTORE DUP6 SWAP5 POP PUSH1 0x1 ADD PUSH2 0x1B59 JUMP JUMPDEST POP DUP1 PUSH2 0x1B53 JUMP JUMPDEST PUSH4 0x4E487B71 PUSH1 0xE0 SHL PUSH1 0x0 MSTORE PUSH1 0x41 PUSH1 0x4 MSTORE PUSH1 0x24 PUSH1 0x0 REVERT JUMPDEST ADD MLOAD SWAP1 POP DUP14 DUP1 PUSH2 0x189E JUMP JUMPDEST SWAP3 POP PUSH1 0x7 DUP9 ADD PUSH1 0x0 MSTORE PUSH1 0x20 PUSH1 0x0 KECCAK256 SWAP1 PUSH1 0x0 SWAP4 JUMPDEST PUSH1 0x1F NOT DUP5 AND DUP6 LT PUSH2 0x1BFD JUMPI PUSH1 0x1 SWAP5 POP DUP4 PUSH1 0x1F NOT DUP2 AND LT PUSH2 0x1BE4 JUMPI JUMPDEST POP POP POP DUP2 SHL ADD PUSH1 0x7 DUP7 ADD SSTORE PUSH2 0x18B6 JUMP JUMPDEST ADD MLOAD PUSH1 0x0 NOT PUSH1 0xF8 DUP5 PUSH1 0x3 SHL AND SHR NOT AND SWAP1 SSTORE DUP14 DUP1 DUP1 PUSH2 0x1BD4 JUMP JUMPDEST DUP2 DUP2 ADD MLOAD DUP4 SSTORE PUSH1 0x20 SWAP5 DUP6 ADD SWAP5 PUSH1 0x1 SWAP1 SWAP4 ADD SWAP3 SWAP1 SWAP2 ADD SWAP1 PUSH2 0x1BB9 JUMP JUMPDEST SWAP1 SWAP2 POP PUSH1 0x7 DUP9 ADD PUSH1 0x0 MSTORE PUSH1 0x20 PUSH1 0x0 KECCAK256 PUSH1 0x1F DUP5 ADD PUSH1 0x5 SHR DUP2 ADD PUSH1 0x20 DUP6 LT PUSH2 0x1C64 JUMPI JUMPDEST SWAP1 DUP5 SWAP4 SWAP3 SWAP2 JUMPDEST PUSH1 0x1F DUP4 ADD PUSH1 0x5 SHR DUP3 ADD DUP2 LT PUSH2 0x1C55 JUMPI POP POP PUSH2 0x1887 JUMP JUMPDEST PUSH1 0x0 DUP2 SSTORE DUP6 SWAP5 POP PUSH1 0x1 ADD PUSH2 0x1C3F JUMP JUMPDEST POP DUP1 PUSH2 0x1C39 JUMP JUMPDEST ADD MLOAD SWAP1 POP DUP14 DUP1 PUSH2 0x182D JUMP JUMPDEST SWAP3 POP PUSH1 0x4 DUP9 ADD PUSH1 0x0 MSTORE PUSH1 0x20 PUSH1 0x0 KECCAK256 SWAP1 PUSH1 0x0 SWAP4 JUMPDEST PUSH1 0x1F NOT DUP5 AND DUP6 LT PUSH2 0x1CCD JUMPI PUSH1 0x1 SWAP5 POP DUP4 PUSH1 0x1F NOT DUP2 AND LT PUSH2 0x1CB4 JUMPI JUMPDEST POP POP POP DUP2 SHL ADD PUSH1 0x4 DUP7 ADD SSTORE PUSH2 0x1845 JUMP JUMPDEST ADD MLOAD PUSH1 0x0 NOT PUSH1 0xF8 DUP5 PUSH1 0x3 SHL AND SHR NOT AND SWAP1 SSTORE DUP14 DUP1 DUP1 PUSH2 0x1CA4 JUMP JUMPDEST DUP2 DUP2 ADD MLOAD DUP4 SSTORE PUSH1 0x20 SWAP5 DUP6 ADD SWAP5 PUSH1 0x1 SWAP1 SWAP4 ADD SWAP3 SWAP1 SWAP2 ADD SWAP1 PUSH2 0x1C89 JUMP JUMPDEST SWAP1 SWAP2 POP PUSH1 0x4 DUP9 ADD PUSH1 0x0 MSTORE PUSH1 0x20 PUSH1 0x0 KECCAK256 PUSH1 0x1F DUP5 ADD PUSH1 0x5 SHR DUP2 ADD PUSH1 0x20 DUP6 LT PUSH2 0x1D34 JUMPI JUMPDEST SWAP1 DUP5 SWAP4 SWAP3 SWAP2 JUMPDEST PUSH1 0x1F DUP4 ADD PUSH1 0x5 SHR DUP3 ADD DUP2 LT PUSH2 0x1D25 JUMPI POP POP PUSH2 0x1816 JUMP JUMPDEST PUSH1 0x0 DUP2 SSTORE DUP6 SWAP5 POP PUSH1 0x1 ADD PUSH2 0x1D0F JUMP JUMPDEST POP DUP1 PUSH2 0x1D09 JUMP JUMPDEST PUSH1 0x64 SWAP1 PUSH22 0x18DBDB9D185A5B995C881C9959881C995C5D5A5C9959 PUSH1 0x52 SHL PUSH1 0x40 MLOAD SWAP2 PUSH3 0x461BCD PUSH1 0xE5 SHL DUP4 MSTORE PUSH1 0x20 PUSH1 0x4 DUP5 ADD MSTORE PUSH1 0x16 PUSH1 0x24 DUP5 ADD MSTORE DUP3 ADD MSTORE REVERT JUMPDEST PUSH1 0x64 SWAP1 PUSH16 0x1950930810D251081C995C5D5A5C9959 PUSH1 0x82 SHL PUSH1 0x40 MLOAD SWAP2 PUSH3 0x461BCD PUSH1 0xE5 SHL DUP4 MSTORE PUSH1 0x20 PUSH1 0x4 DUP5 ADD MSTORE PUSH1 0x10 PUSH1 0x24 DUP5 ADD MSTORE DUP3 ADD MSTORE REVERT JUMPDEST PUSH1 0x64 SWAP1 PUSH32 0x646561646C696E65206D75737420626520667574757265000000000000000000 PUSH1 0x40 MLOAD SWAP2 PUSH3 0x461BCD PUSH1 0xE5 SHL DUP4 MSTORE PUSH1 0x20 PUSH1 0x4 DUP5 ADD MSTORE PUSH1 0x17 PUSH1 0x24 DUP5 ADD MSTORE DUP3 ADD MSTORE REVERT JUMPDEST PUSH1 0x64 SWAP1 PUSH20 0x61726269746572207A65726F2061646472657373 PUSH1 0x60 SHL PUSH1 0x40 MLOAD SWAP2 PUSH3 0x461BCD PUSH1 0xE5 SHL DUP4 MSTORE PUSH1 0x20 PUSH1 0x4 DUP5 ADD MSTORE PUSH1 0x14 PUSH1 0x24 DUP5 ADD MSTORE DUP3 ADD MSTORE REVERT JUMPDEST PUSH1 0x64 SWAP1 PUSH21 0x6578706F72746572207A65726F2061646472657373 PUSH1 0x58 SHL PUSH1 0x40 MLOAD SWAP2 PUSH3 0x461BCD PUSH1 0xE5 SHL DUP4 MSTORE PUSH1 0x20 PUSH1 0x4 DUP5 ADD MSTORE PUSH1 0x15 PUSH1 0x24 DUP5 ADD MSTORE DUP3 ADD MSTORE REVERT JUMPDEST PUSH1 0x64 SWAP1 PUSH21 0x195CD8DC9BDDC81D985B1D59481C995C5D5A5C9959 PUSH1 0x5A SHL PUSH1 0x40 MLOAD SWAP2 PUSH3 0x461BCD PUSH1 0xE5 SHL DUP4 MSTORE PUSH1 0x20 PUSH1 0x4 DUP5 ADD MSTORE PUSH1 0x15 PUSH1 0x24 DUP5 ADD MSTORE DUP3 ADD MSTORE REVERT JUMPDEST CALLVALUE PUSH2 0x1C5 JUMPI PUSH1 0x40 CALLDATASIZE PUSH1 0x3 NOT ADD SLT PUSH2 0x1C5 JUMPI PUSH1 0xC0 PUSH1 0x4 CALLDATALOAD PUSH2 0x1EC4 PUSH2 0x2213 JUMP JUMPDEST PUSH2 0x1ECC PUSH2 0x2D3B JUMP JUMPDEST POP DUP2 PUSH1 0x0 MSTORE PUSH1 0x20 SWAP2 PUSH1 0x7 DUP4 MSTORE PUSH1 0x1 DUP1 PUSH1 0xA0 SHL SUB SWAP1 PUSH2 0x1EF5 DUP3 PUSH1 0x2 PUSH1 0x40 PUSH1 0x0 KECCAK256 ADD SLOAD AND ISZERO ISZERO PUSH2 0x2502 JUMP JUMPDEST PUSH1 0x0 MSTORE PUSH1 0xB DUP4 MSTORE PUSH1 0x40 PUSH1 0x0 KECCAK256 SWAP2 AND PUSH1 0x0 MSTORE DUP2 MSTORE PUSH1 0x40 PUSH1 0x0 KECCAK256 PUSH1 0x40 MLOAD SWAP1 PUSH2 0x1F1A DUP3 PUSH2 0x2391 JUMP JUMPDEST SLOAD SWAP1 PUSH1 0xFF DUP1 DUP4 AND ISZERO ISZERO SWAP4 DUP5 DUP4 MSTORE DUP1 DUP4 ADD SWAP1 DUP3 DUP6 PUSH1 0x8 SHR AND ISZERO ISZERO DUP3 MSTORE PUSH1 0x40 DUP5 ADD SWAP2 DUP4 DUP7 PUSH1 0x10 SHR AND ISZERO ISZERO DUP4 MSTORE PUSH1 0x60 DUP6 ADD SWAP4 DUP1 DUP8 PUSH1 0x18 SHR AND ISZERO ISZERO DUP6 MSTORE PUSH1 0xA0 PUSH1 0x80 DUP8 ADD SWAP7 DUP3 DUP10 DUP7 SHR AND ISZERO ISZERO DUP9 MSTORE ADD SWAP7 PUSH1 0x28 SHR AND ISZERO ISZERO DUP7 MSTORE PUSH1 0x40 MLOAD SWAP7 DUP8 MSTORE MLOAD ISZERO ISZERO SWAP1 DUP7 ADD MSTORE MLOAD ISZERO ISZERO PUSH1 0x40 DUP6 ADD MSTORE MLOAD ISZERO ISZERO PUSH1 0x60 DUP5 ADD MSTORE MLOAD ISZERO ISZERO PUSH1 0x80 DUP4 ADD MSTORE MLOAD ISZERO ISZERO PUSH1 0xA0 DUP3 ADD MSTORE RETURN JUMPDEST CALLVALUE PUSH2 0x1C5 JUMPI PUSH1 0x0 CALLDATASIZE PUSH1 0x3 NOT ADD SLT PUSH2 0x1C5 JUMPI PUSH2 0x1FB5 PUSH2 0x22EF JUMP JUMPDEST PUSH2 0x1FBD PUSH2 0x24D2 JUMP JUMPDEST PUSH1 0x5 SLOAD DUP1 ISZERO PUSH2 0x2075 JUMPI PUSH1 0x0 PUSH1 0x5 SSTORE PUSH1 0x1 DUP1 PUSH1 0xA0 SHL SUB PUSH1 0x0 DUP1 DUP1 DUP1 DUP6 DUP6 DUP3 SLOAD AND GAS CALL PUSH2 0x1FE6 PUSH2 0x2D0B JUMP JUMPDEST POP ISZERO PUSH2 0x2030 JUMPI PUSH1 0x20 PUSH32 0x41FDD680478135993BC53FB2FFAF9560951B57EF62FF6BADD02B61E018B4F17F SWAP2 PUSH1 0x0 SLOAD AND SWAP3 PUSH1 0x40 MLOAD SWAP1 DUP2 MSTORE LOG2 PUSH1 0x1 PUSH1 0x0 DUP1 MLOAD PUSH1 0x20 PUSH2 0x328A DUP4 CODECOPY DUP2 MLOAD SWAP2 MSTORE SSTORE STOP JUMPDEST PUSH1 0x40 MLOAD PUSH3 0x461BCD PUSH1 0xE5 SHL DUP2 MSTORE PUSH1 0x20 PUSH1 0x4 DUP3 ADD MSTORE PUSH1 0x18 PUSH1 0x24 DUP3 ADD MSTORE PUSH32 0x7472656173757279207472616E73666572206661696C65640000000000000000 PUSH1 0x44 DUP3 ADD MSTORE PUSH1 0x64 SWAP1 REVERT JUMPDEST PUSH1 0x40 MLOAD PUSH3 0x461BCD PUSH1 0xE5 SHL DUP2 MSTORE PUSH1 0x20 PUSH1 0x4 DUP3 ADD MSTORE PUSH1 0xE PUSH1 0x24 DUP3 ADD MSTORE PUSH14 0x747265617375727920656D707479 PUSH1 0x90 SHL PUSH1 0x44 DUP3 ADD MSTORE PUSH1 0x64 SWAP1 REVERT JUMPDEST CALLVALUE PUSH2 0x1C5 JUMPI PUSH1 0x20 CALLDATASIZE PUSH1 0x3 NOT ADD SLT PUSH2 0x1C5 JUMPI PUSH1 0x4 CALLDATALOAD PUSH1 0x0 DUP2 DUP2 MSTORE PUSH1 0x7 PUSH1 0x20 MSTORE PUSH1 0x40 SWAP1 KECCAK256 PUSH1 0x2 ADD SLOAD PUSH2 0x20E5 SWAP1 PUSH1 0x1 PUSH1 0x1 PUSH1 0xA0 SHL SUB AND ISZERO ISZERO PUSH2 0x2502 JUMP JUMPDEST PUSH1 0x0 MSTORE PUSH1 0x7 PUSH1 0x20 MSTORE PUSH1 0x20 PUSH2 0x20FC PUSH1 0x40 PUSH1 0x0 KECCAK256 PUSH2 0x3198 JUMP JUMPDEST PUSH1 0x40 MLOAD SWAP1 ISZERO ISZERO DUP2 MSTORE RETURN JUMPDEST PUSH1 0x0 CALLDATASIZE PUSH1 0x3 NOT ADD SLT PUSH2 0x1C5 JUMPI CALLER PUSH1 0x0 MSTORE PUSH1 0x2 PUSH1 0x20 MSTORE PUSH2 0x212C PUSH1 0xFF PUSH1 0x40 PUSH1 0x0 KECCAK256 SLOAD AND PUSH2 0x231B JUMP JUMPDEST CALLVALUE ISZERO PUSH2 0x2190 JUMPI CALLER PUSH1 0x0 MSTORE PUSH1 0x3 PUSH1 0x20 MSTORE PUSH1 0x40 PUSH1 0x0 KECCAK256 PUSH2 0x214B CALLVALUE DUP3 SLOAD PUSH2 0x235F JUMP JUMPDEST SWAP1 SSTORE CALLER PUSH1 0x0 MSTORE PUSH1 0x3 PUSH1 0x20 MSTORE PUSH1 0x40 PUSH1 0x0 KECCAK256 SLOAD PUSH1 0x40 MLOAD SWAP1 CALLVALUE DUP3 MSTORE PUSH1 0x20 DUP3 ADD MSTORE PUSH32 0xECF4EFDA7B90489A0FADEEF730AB4B3E4304905F48810DAA0BB2738A4233B6D3 PUSH1 0x40 CALLER SWAP3 LOG2 STOP JUMPDEST PUSH1 0x40 MLOAD PUSH3 0x461BCD PUSH1 0xE5 SHL DUP2 MSTORE PUSH1 0x20 PUSH1 0x4 DUP3 ADD MSTORE PUSH1 0x13 PUSH1 0x24 DUP3 ADD MSTORE PUSH19 0x189BDB99081D985B1D59481C995C5D5A5C9959 PUSH1 0x6A SHL PUSH1 0x44 DUP3 ADD MSTORE PUSH1 0x64 SWAP1 REVERT JUMPDEST CALLVALUE PUSH2 0x1C5 JUMPI PUSH1 0x40 CALLDATASIZE PUSH1 0x3 NOT ADD SLT PUSH2 0x1C5 JUMPI PUSH1 0x20 SWAP1 PUSH2 0x21E7 PUSH2 0x2213 JUMP JUMPDEST PUSH1 0x4 CALLDATALOAD PUSH1 0x0 SWAP1 DUP2 MSTORE PUSH1 0x8 DUP5 MSTORE PUSH1 0x40 DUP1 DUP3 KECCAK256 PUSH1 0x1 PUSH1 0x1 PUSH1 0xA0 SHL SUB SWAP1 SWAP4 AND DUP3 MSTORE SWAP2 DUP5 MSTORE KECCAK256 SLOAD PUSH1 0xFF AND ISZERO ISZERO DUP2 MSTORE RETURN JUMPDEST PUSH1 0x24 CALLDATALOAD SWAP1 PUSH1 0x1 PUSH1 0x1 PUSH1 0xA0 SHL SUB DUP3 AND DUP3 SUB PUSH2 0x1C5 JUMPI JUMP JUMPDEST PUSH1 0x4 CALLDATALOAD SWAP1 PUSH1 0x1 PUSH1 0x1 PUSH1 0xA0 SHL SUB DUP3 AND DUP3 SUB PUSH2 0x1C5 JUMPI JUMP JUMPDEST SWAP2 DUP2 PUSH1 0x1F DUP5 ADD SLT ISZERO PUSH2 0x1C5 JUMPI DUP3 CALLDATALOAD SWAP2 PUSH1 0x1 PUSH1 0x1 PUSH1 0x40 SHL SUB DUP4 GT PUSH2 0x1C5 JUMPI PUSH1 0x20 DUP4 DUP2 DUP7 ADD SWAP6 ADD ADD GT PUSH2 0x1C5 JUMPI JUMP JUMPDEST SWAP1 DUP2 MLOAD DUP1 DUP3 MSTORE PUSH1 0x20 DUP1 DUP1 SWAP4 ADD SWAP4 ADD SWAP2 PUSH1 0x0 JUMPDEST DUP3 DUP2 LT PUSH2 0x228C JUMPI POP POP POP POP SWAP1 JUMP JUMPDEST DUP4 MLOAD DUP6 MSTORE SWAP4 DUP2 ADD SWAP4 SWAP3 DUP2 ADD SWAP3 PUSH1 0x1 ADD PUSH2 0x227E JUMP JUMPDEST SWAP2 SWAP1 DUP3 MLOAD SWAP3 DUP4 DUP3 MSTORE PUSH1 0x0 JUMPDEST DUP5 DUP2 LT PUSH2 0x22CC JUMPI POP POP DUP3 PUSH1 0x0 PUSH1 0x20 DUP1 SWAP5 SWAP6 DUP5 ADD ADD MSTORE PUSH1 0x1F DUP1 NOT SWAP2 ADD AND ADD ADD SWAP1 JUMP JUMPDEST PUSH1 0x20 DUP2 DUP4 ADD DUP2 ADD MLOAD DUP5 DUP4 ADD DUP3 ADD MSTORE ADD PUSH2 0x22AB JUMP JUMPDEST PUSH1 0x24 CALLDATALOAD SWAP1 DUP2 ISZERO ISZERO DUP3 SUB PUSH2 0x1C5 JUMPI JUMP JUMPDEST PUSH1 0x0 SLOAD PUSH1 0x1 PUSH1 0x1 PUSH1 0xA0 SHL SUB AND CALLER SUB PUSH2 0x2303 JUMPI JUMP JUMPDEST PUSH1 0x40 MLOAD PUSH4 0x118CDAA7 PUSH1 0xE0 SHL DUP2 MSTORE CALLER PUSH1 0x4 DUP3 ADD MSTORE PUSH1 0x24 SWAP1 REVERT JUMPDEST ISZERO PUSH2 0x2322 JUMPI JUMP JUMPDEST PUSH1 0x40 MLOAD PUSH3 0x461BCD PUSH1 0xE5 SHL DUP2 MSTORE PUSH1 0x20 PUSH1 0x4 DUP3 ADD MSTORE PUSH1 0x15 PUSH1 0x24 DUP3 ADD MSTORE PUSH21 0x6E6F7420636F6E736F727469756D206F7261636C65 PUSH1 0x58 SHL PUSH1 0x44 DUP3 ADD MSTORE PUSH1 0x64 SWAP1 REVERT JUMPDEST SWAP2 SWAP1 DUP3 ADD DUP1 SWAP3 GT PUSH2 0x236C JUMPI JUMP JUMPDEST PUSH4 0x4E487B71 PUSH1 0xE0 SHL PUSH1 0x0 MSTORE PUSH1 0x11 PUSH1 0x4 MSTORE PUSH1 0x24 PUSH1 0x0 REVERT JUMPDEST PUSH1 0x0 NOT DUP2 EQ PUSH2 0x236C JUMPI PUSH1 0x1 ADD SWAP1 JUMP JUMPDEST PUSH1 0xC0 DUP2 ADD SWAP1 DUP2 LT PUSH1 0x1 PUSH1 0x1 PUSH1 0x40 SHL SUB DUP3 GT OR PUSH2 0x1B85 JUMPI PUSH1 0x40 MSTORE JUMP JUMPDEST PUSH2 0x1A0 DUP2 ADD SWAP1 DUP2 LT PUSH1 0x1 PUSH1 0x1 PUSH1 0x40 SHL SUB DUP3 GT OR PUSH2 0x1B85 JUMPI PUSH1 0x40 MSTORE JUMP JUMPDEST PUSH1 0xA0 DUP2 ADD SWAP1 DUP2 LT PUSH1 0x1 PUSH1 0x1 PUSH1 0x40 SHL SUB DUP3 GT OR PUSH2 0x1B85 JUMPI PUSH1 0x40 MSTORE JUMP JUMPDEST SWAP1 PUSH1 0x1F DUP1 NOT SWAP2 ADD AND DUP2 ADD SWAP1 DUP2 LT PUSH1 0x1 PUSH1 0x1 PUSH1 0x40 SHL SUB DUP3 GT OR PUSH2 0x1B85 JUMPI PUSH1 0x40 MSTORE JUMP JUMPDEST PUSH1 0x1 PUSH1 0x1 PUSH1 0x40 SHL SUB DUP2 GT PUSH2 0x1B85 JUMPI PUSH1 0x1F ADD PUSH1 0x1F NOT AND PUSH1 0x20 ADD SWAP1 JUMP JUMPDEST SWAP3 SWAP2 SWAP3 PUSH2 0x242B DUP3 PUSH2 0x2404 JUMP JUMPDEST SWAP2 PUSH2 0x2439 PUSH1 0x40 MLOAD SWAP4 DUP5 PUSH2 0x23E3 JUMP JUMPDEST DUP3 SWAP5 DUP2 DUP5 MSTORE DUP2 DUP4 ADD GT PUSH2 0x1C5 JUMPI DUP3 DUP2 PUSH1 0x20 SWAP4 DUP5 PUSH1 0x0 SWAP7 ADD CALLDATACOPY ADD ADD MSTORE JUMP JUMPDEST SWAP1 PUSH1 0x1 DUP3 DUP2 SHR SWAP3 AND DUP1 ISZERO PUSH2 0x2486 JUMPI JUMPDEST PUSH1 0x20 DUP4 LT EQ PUSH2 0x2470 JUMPI JUMP JUMPDEST PUSH4 0x4E487B71 PUSH1 0xE0 SHL PUSH1 0x0 MSTORE PUSH1 0x22 PUSH1 0x4 MSTORE PUSH1 0x24 PUSH1 0x0 REVERT JUMPDEST SWAP2 PUSH1 0x7F AND SWAP2 PUSH2 0x2465 JUMP JUMPDEST SWAP1 DUP1 PUSH1 0x20 SWAP4 SWAP3 DUP2 DUP5 MSTORE DUP5 DUP5 ADD CALLDATACOPY PUSH1 0x0 DUP3 DUP3 ADD DUP5 ADD MSTORE PUSH1 0x1F ADD PUSH1 0x1F NOT AND ADD ADD SWAP1 JUMP JUMPDEST PUSH1 0xFF PUSH1 0x0 SLOAD PUSH1 0xA0 SHR AND PUSH2 0x24C0 JUMPI JUMP JUMPDEST PUSH1 0x40 MLOAD PUSH4 0xD93C0665 PUSH1 0xE0 SHL DUP2 MSTORE PUSH1 0x4 SWAP1 REVERT JUMPDEST PUSH1 0x0 DUP1 MLOAD PUSH1 0x20 PUSH2 0x328A DUP4 CODECOPY DUP2 MLOAD SWAP2 MSTORE PUSH1 0x2 DUP2 SLOAD EQ PUSH2 0x24F0 JUMPI PUSH1 0x2 SWAP1 SSTORE JUMP JUMPDEST PUSH1 0x40 MLOAD PUSH4 0x3EE5AEB5 PUSH1 0xE0 SHL DUP2 MSTORE PUSH1 0x4 SWAP1 REVERT JUMPDEST ISZERO PUSH2 0x2509 JUMPI JUMP JUMPDEST PUSH1 0x40 MLOAD PUSH3 0x461BCD PUSH1 0xE5 SHL DUP2 MSTORE PUSH1 0x20 PUSH1 0x4 DUP3 ADD MSTORE PUSH1 0x10 PUSH1 0x24 DUP3 ADD MSTORE PUSH16 0x195CD8DC9BDDC81B9BDD08199BDD5B99 PUSH1 0x82 SHL PUSH1 0x44 DUP3 ADD MSTORE PUSH1 0x64 SWAP1 REVERT JUMPDEST PUSH1 0x1 SLOAD DUP2 LT ISZERO PUSH2 0x2578 JUMPI PUSH1 0x1 PUSH1 0x0 MSTORE PUSH32 0xB10E2D527612073B26EECDFD717E6A320CF44B4AFAC2B0732D9FCBE2B7FA0CF6 ADD SWAP1 PUSH1 0x0 SWAP1 JUMP JUMPDEST PUSH4 0x4E487B71 PUSH1 0xE0 SHL PUSH1 0x0 MSTORE PUSH1 0x32 PUSH1 0x4 MSTORE PUSH1 0x24 PUSH1 0x0 REVERT JUMPDEST SWAP1 PUSH1 0x5 DUP2 LT ISZERO PUSH2 0x2578 JUMPI PUSH1 0x5 SHL ADD SWAP1 JUMP JUMPDEST SWAP2 SWAP1 DUP3 SUB SWAP2 DUP3 GT PUSH2 0x236C JUMPI JUMP JUMPDEST SWAP1 DUP2 PUSH1 0x0 MSTORE PUSH1 0x7 PUSH1 0x20 MSTORE PUSH1 0x40 PUSH1 0x0 KECCAK256 SWAP1 PUSH1 0x0 SWAP1 PUSH1 0x40 MLOAD PUSH2 0x25CB DUP2 PUSH2 0x23C8 JUMP JUMPDEST PUSH1 0xA0 CALLDATASIZE DUP3 CALLDATACOPY PUSH1 0x1 SLOAD PUSH1 0x0 JUMPDEST DUP2 DUP2 LT PUSH2 0x2A97 JUMPI POP POP PUSH32 0x0 DUP1 DUP5 LT PUSH2 0x2A8F JUMPI PUSH1 0x40 MLOAD SWAP4 PUSH2 0x2614 DUP6 PUSH2 0x23C8 JUMP JUMPDEST PUSH1 0xA0 CALLDATASIZE DUP7 CALLDATACOPY PUSH1 0x0 JUMPDEST PUSH1 0x5 DUP2 LT PUSH2 0x2A35 JUMPI POP POP POP POP PUSH2 0x2704 DUP3 MLOAD ISZERO ISZERO PUSH1 0x20 DUP5 ADD MLOAD ISZERO ISZERO SWAP1 PUSH2 0x26E6 PUSH1 0x40 DUP7 ADD MLOAD ISZERO ISZERO PUSH2 0x26CC PUSH1 0x60 DUP9 ADD MLOAD ISZERO ISZERO SWAP2 PUSH2 0x26B4 PUSH1 0x80 DUP11 ADD MLOAD ISZERO ISZERO SWAP7 PUSH1 0x40 MLOAD PUSH2 0x2663 DUP2 PUSH2 0x2391 JUMP JUMPDEST DUP8 DUP2 MSTORE DUP2 PUSH1 0x20 DUP3 ADD MSTORE DUP4 PUSH1 0x40 DUP3 ADD MSTORE DUP6 PUSH1 0x60 DUP3 ADD MSTORE DUP9 PUSH1 0x80 DUP3 ADD MSTORE PUSH1 0xA0 NUMBER SWAP2 ADD MSTORE PUSH2 0x269E PUSH1 0xA DUP14 ADD SWAP8 DUP9 SWAP1 PUSH1 0xFF DUP1 NOT DUP4 SLOAD AND SWAP2 ISZERO ISZERO AND OR SWAP1 SSTORE JUMP JUMPDEST DUP7 SLOAD PUSH2 0xFF00 NOT AND SWAP1 ISZERO ISZERO PUSH1 0x8 SHL PUSH2 0xFF00 AND OR DUP7 SSTORE JUMP JUMPDEST DUP5 SLOAD PUSH3 0xFF0000 NOT AND SWAP1 ISZERO ISZERO PUSH1 0x10 SHL PUSH3 0xFF0000 AND OR DUP5 SSTORE JUMP JUMPDEST DUP3 SLOAD PUSH4 0xFF000000 NOT AND SWAP1 ISZERO ISZERO PUSH1 0x18 SHL PUSH4 0xFF000000 AND OR DUP3 SSTORE JUMP JUMPDEST SWAP1 PUSH5 0xFF00000000 DUP3 SLOAD SWAP2 ISZERO ISZERO PUSH1 0x20 SHL AND SWAP1 PUSH5 0xFF00000000 NOT AND OR SWAP1 SSTORE JUMP JUMPDEST NUMBER PUSH1 0xB DUP5 ADD SSTORE DUP2 MLOAD PUSH1 0x20 DUP1 DUP5 ADD MLOAD PUSH1 0x40 DUP1 DUP7 ADD MLOAD PUSH1 0x60 DUP1 DUP9 ADD MLOAD PUSH1 0x80 DUP1 DUP11 ADD MLOAD DUP6 MLOAD SWAP9 ISZERO ISZERO DUP10 MSTORE SWAP6 ISZERO ISZERO SWAP7 DUP9 ADD SWAP7 SWAP1 SWAP7 MSTORE SWAP2 ISZERO ISZERO SWAP3 DUP7 ADD SWAP3 SWAP1 SWAP3 MSTORE ISZERO ISZERO SWAP1 DUP5 ADD MSTORE ISZERO ISZERO SWAP1 DUP3 ADD MSTORE DUP5 SWAP1 PUSH32 0xA3A15A879FD4D81FAC126E1EDB30AE448DE83E861B55A861525E4A2312DB1D14 SWAP1 PUSH1 0xA0 SWAP1 LOG2 PUSH1 0x0 JUMPDEST PUSH1 0x1 SLOAD DUP2 LT ISZERO PUSH2 0x29D3 JUMPI PUSH2 0x2789 DUP2 PUSH2 0x2541 JUMP JUMPDEST SWAP1 SLOAD SWAP1 DUP7 PUSH1 0x0 MSTORE PUSH1 0xB PUSH1 0x20 MSTORE PUSH1 0x40 PUSH1 0x0 KECCAK256 PUSH1 0x1 DUP1 PUSH1 0xA0 SHL SUB DUP4 DUP4 PUSH1 0x3 SHL SHR AND PUSH1 0x0 MSTORE PUSH1 0x20 MSTORE PUSH1 0x40 PUSH1 0x0 KECCAK256 SLOAD PUSH1 0xFF SWAP1 DUP2 DUP2 AND ISZERO DUP1 ISZERO PUSH2 0x29A3 JUMPI JUMPDEST PUSH2 0x2996 JUMPI DUP7 MLOAD ISZERO ISZERO DUP3 DUP3 PUSH1 0x8 SHR AND ISZERO ISZERO EQ SWAP2 DUP3 ISZERO SWAP3 PUSH2 0x297D JUMPI JUMPDEST DUP3 ISZERO PUSH2 0x2964 JUMPI JUMPDEST DUP3 ISZERO PUSH2 0x294B JUMPI JUMPDEST DUP3 ISZERO PUSH2 0x2931 JUMPI JUMPDEST POP POP ISZERO PUSH2 0x2926 JUMPI DUP7 PUSH1 0x0 MSTORE PUSH1 0xC PUSH1 0x20 MSTORE PUSH1 0x40 PUSH1 0x0 KECCAK256 PUSH1 0x1 DUP1 PUSH1 0xA0 SHL SUB DUP4 DUP4 PUSH1 0x3 SHL SHR AND PUSH1 0x0 MSTORE PUSH1 0x20 MSTORE PUSH1 0x40 PUSH1 0x0 KECCAK256 PUSH1 0x1 PUSH1 0xFF NOT DUP3 SLOAD AND OR SWAP1 SSTORE PUSH1 0x4 SWAP2 DUP3 PUSH1 0x20 MSTORE PUSH1 0x40 PUSH1 0x0 KECCAK256 PUSH2 0x2840 DUP2 SLOAD PUSH2 0x2382 JUMP JUMPDEST SWAP1 SSTORE PUSH1 0x1 DUP1 PUSH1 0xA0 SHL SUB DUP2 DUP4 PUSH1 0x3 SHL SHR AND PUSH1 0x0 MSTORE PUSH1 0x3 PUSH1 0x20 MSTORE PUSH1 0x40 PUSH1 0x0 KECCAK256 SLOAD SWAP3 PUSH2 0x1388 SWAP1 DUP5 DUP3 DUP2 MUL DIV DUP3 EQ DUP6 ISZERO OR ISZERO PUSH2 0x2911 JUMPI POP PUSH1 0x20 DUP5 SWAP4 DUP11 SWAP4 PUSH2 0x2710 DUP5 DUP2 PUSH32 0x9E93C4115FA6C7B0864A880D26C2CD59AA615D18A0EE3ECE84441CD1A3A4328D SWAP7 PUSH2 0x28CB SWAP12 SWAP11 MUL DIV PUSH2 0x28D0 JUMPI JUMPDEST PUSH1 0x40 MLOAD SWAP8 MUL DIV DUP7 MSTORE PUSH1 0x3 SWAP2 SWAP1 SWAP2 SHL SHR PUSH1 0x1 PUSH1 0x1 PUSH1 0xA0 SHL SUB AND SWAP4 LOG3 PUSH2 0x2382 JUMP JUMPDEST PUSH2 0x2776 JUMP JUMPDEST PUSH2 0x28DE DUP3 DUP3 DUP11 MUL DIV DUP10 PUSH2 0x259F JUMP JUMPDEST PUSH1 0x1 DUP1 PUSH1 0xA0 SHL SUB DUP5 DUP7 PUSH1 0x3 SHL SHR AND PUSH1 0x0 MSTORE PUSH1 0x3 DUP7 MSTORE PUSH1 0x40 PUSH1 0x0 KECCAK256 SSTORE PUSH1 0x5 PUSH2 0x290A DUP4 DUP4 DUP12 MUL DIV DUP3 SLOAD PUSH2 0x235F JUMP JUMPDEST SWAP1 SSTORE PUSH2 0x28AC JUMP JUMPDEST PUSH1 0x11 SWAP1 PUSH4 0x4E487B71 PUSH1 0xE0 SHL PUSH1 0x0 MSTORE MSTORE PUSH1 0x24 PUSH1 0x0 REVERT JUMPDEST POP POP PUSH2 0x28CB SWAP1 PUSH2 0x2382 JUMP JUMPDEST SWAP1 SWAP2 POP PUSH1 0x80 DUP8 ADD MLOAD ISZERO ISZERO SWAP2 PUSH1 0x28 SHR AND ISZERO ISZERO EQ ISZERO CODESIZE DUP1 PUSH2 0x27F1 JUMP JUMPDEST SWAP2 POP PUSH1 0x60 DUP8 ADD MLOAD ISZERO ISZERO DUP3 DUP3 PUSH1 0x20 SHR AND ISZERO ISZERO EQ ISZERO SWAP2 PUSH2 0x27EA JUMP JUMPDEST SWAP2 POP PUSH1 0x40 DUP8 ADD MLOAD ISZERO ISZERO DUP3 DUP3 PUSH1 0x18 SHR AND ISZERO ISZERO EQ ISZERO SWAP2 PUSH2 0x27E3 JUMP JUMPDEST SWAP2 POP PUSH1 0x20 DUP8 ADD MLOAD ISZERO ISZERO DUP3 DUP3 PUSH1 0x10 SHR AND ISZERO ISZERO EQ ISZERO SWAP2 PUSH2 0x27DC JUMP JUMPDEST POP POP POP POP PUSH2 0x28CB SWAP1 PUSH2 0x2382 JUMP JUMPDEST POP DUP9 PUSH1 0x0 MSTORE PUSH1 0xC PUSH1 0x20 MSTORE PUSH1 0x40 PUSH1 0x0 KECCAK256 PUSH1 0x1 DUP1 PUSH1 0xA0 SHL SUB DUP6 DUP6 PUSH1 0x3 SHL SHR AND PUSH1 0x0 MSTORE PUSH1 0x20 MSTORE DUP2 PUSH1 0x40 PUSH1 0x0 KECCAK256 SLOAD AND PUSH2 0x27C2 JUMP JUMPDEST POP SWAP3 SWAP2 SWAP1 POP PUSH2 0x29E1 DUP2 PUSH2 0x31E1 JUMP JUMPDEST DUP1 PUSH2 0x2A1B JUMPI JUMPDEST SWAP1 PUSH2 0x29F5 SWAP2 PUSH2 0x2A07 JUMPI PUSH2 0x3198 JUMP JUMPDEST PUSH2 0x29FC JUMPI POP JUMP JUMPDEST PUSH2 0x2A05 SWAP1 PUSH2 0x2E99 JUMP JUMPDEST JUMP JUMPDEST PUSH1 0x9 DUP2 ADD DUP1 SLOAD PUSH1 0xFF NOT AND PUSH1 0x1 OR SWAP1 SSTORE PUSH2 0x3198 JUMP JUMPDEST POP PUSH1 0xFF PUSH1 0x9 DUP3 ADD SLOAD AND SWAP1 PUSH1 0x5 DUP3 LT ISZERO PUSH2 0x521 JUMPI SWAP1 ISZERO PUSH2 0x29E7 JUMP JUMPDEST DUP3 PUSH2 0x2A40 DUP3 DUP7 PUSH2 0x258E JUMP JUMPDEST MLOAD LT PUSH2 0x2A5B JUMPI DUP1 PUSH1 0x1 PUSH2 0x12C2 PUSH2 0x2A56 SWAP4 DUP10 PUSH2 0x258E JUMP JUMPDEST PUSH2 0x261C JUMP JUMPDEST DUP3 PUSH2 0x2A70 PUSH2 0x2A69 DUP4 DUP8 PUSH2 0x258E JUMP JUMPDEST MLOAD DUP5 PUSH2 0x259F JUMP JUMPDEST LT PUSH2 0x2A85 JUMPI DUP1 PUSH1 0x0 PUSH2 0x12C2 PUSH2 0x2A56 SWAP4 DUP10 PUSH2 0x258E JUMP JUMPDEST POP POP POP POP SWAP3 POP POP POP JUMP JUMPDEST POP POP SWAP3 POP POP POP JUMP JUMPDEST DUP7 PUSH1 0x0 MSTORE PUSH1 0xB PUSH1 0x20 MSTORE PUSH1 0x40 PUSH1 0x0 KECCAK256 PUSH2 0x2AAE DUP3 PUSH2 0x2541 JUMP JUMPDEST PUSH1 0x1 DUP1 PUSH1 0xA0 SHL SUB SWAP2 SLOAD SWAP1 PUSH1 0x3 SHL SHR AND PUSH1 0x0 MSTORE PUSH1 0x20 MSTORE PUSH1 0x40 PUSH1 0x0 KECCAK256 SLOAD SWAP5 PUSH1 0xFF SWAP1 DUP2 DUP8 AND ISZERO PUSH2 0x2B87 JUMPI SWAP1 PUSH2 0x2AE3 PUSH2 0x2B1D SWAP4 SWAP3 PUSH2 0x2382 JUMP JUMPDEST SWAP7 DUP2 DUP2 PUSH1 0x8 SHR AND PUSH2 0x2B76 JUMPI JUMPDEST DUP2 DUP2 PUSH1 0x10 SHR AND PUSH2 0x2B61 JUMPI JUMPDEST DUP2 DUP2 PUSH1 0x18 SHR AND PUSH2 0x2B4C JUMPI JUMPDEST DUP2 DUP2 PUSH1 0x20 SHR AND PUSH2 0x2B37 JUMPI JUMPDEST PUSH1 0x28 SHR AND PUSH2 0x2B22 JUMPI PUSH2 0x2382 JUMP JUMPDEST PUSH2 0x25D6 JUMP JUMPDEST PUSH1 0x80 DUP5 ADD PUSH2 0x2B30 DUP2 MLOAD PUSH2 0x2382 JUMP JUMPDEST SWAP1 MSTORE PUSH2 0x2382 JUMP JUMPDEST PUSH1 0x60 DUP7 ADD PUSH2 0x2B45 DUP2 MLOAD PUSH2 0x2382 JUMP JUMPDEST SWAP1 MSTORE PUSH2 0x2B10 JUMP JUMPDEST PUSH1 0x40 DUP7 ADD PUSH2 0x2B5A DUP2 MLOAD PUSH2 0x2382 JUMP JUMPDEST SWAP1 MSTORE PUSH2 0x2B05 JUMP JUMPDEST PUSH1 0x20 DUP7 ADD PUSH2 0x2B6F DUP2 MLOAD PUSH2 0x2382 JUMP JUMPDEST SWAP1 MSTORE PUSH2 0x2AFA JUMP JUMPDEST PUSH2 0x2B80 DUP7 MLOAD PUSH2 0x2382 JUMP JUMPDEST DUP7 MSTORE PUSH2 0x2AEF JUMP JUMPDEST SWAP6 POP POP PUSH2 0x2B1D SWAP1 PUSH2 0x2382 JUMP JUMPDEST ISZERO PUSH2 0x2B9A JUMPI JUMP JUMPDEST PUSH1 0x40 MLOAD PUSH3 0x461BCD PUSH1 0xE5 SHL DUP2 MSTORE PUSH1 0x20 PUSH1 0x4 DUP3 ADD MSTORE PUSH1 0x18 PUSH1 0x24 DUP3 ADD MSTORE PUSH32 0x657363726F7720616C726561647920636F6D706C657465640000000000000000 PUSH1 0x44 DUP3 ADD MSTORE PUSH1 0x64 SWAP1 REVERT JUMPDEST ISZERO PUSH2 0x2BE6 JUMPI JUMP JUMPDEST PUSH1 0x40 MLOAD PUSH3 0x461BCD PUSH1 0xE5 SHL DUP2 MSTORE PUSH1 0x20 PUSH1 0x4 DUP3 ADD MSTORE PUSH1 0x17 PUSH1 0x24 DUP3 ADD MSTORE PUSH32 0x657363726F7720616C726561647920726566756E646564000000000000000000 PUSH1 0x44 DUP3 ADD MSTORE PUSH1 0x64 SWAP1 REVERT JUMPDEST ISZERO PUSH2 0x2C32 JUMPI JUMP JUMPDEST PUSH1 0x40 MLOAD PUSH3 0x461BCD PUSH1 0xE5 SHL DUP2 MSTORE PUSH1 0x20 PUSH1 0x4 DUP3 ADD MSTORE PUSH1 0x10 PUSH1 0x24 DUP3 ADD MSTORE PUSH16 0x6E6F7420657363726F77207061727479 PUSH1 0x80 SHL PUSH1 0x44 DUP3 ADD MSTORE PUSH1 0x64 SWAP1 REVERT JUMPDEST PUSH1 0xFF PUSH1 0x1 SWAP2 AND ADD SWAP1 PUSH1 0xFF DUP3 GT PUSH2 0x236C JUMPI JUMP JUMPDEST ISZERO PUSH2 0x2C83 JUMPI JUMP JUMPDEST PUSH1 0x40 MLOAD PUSH3 0x461BCD PUSH1 0xE5 SHL DUP2 MSTORE PUSH1 0x20 PUSH1 0x4 DUP3 ADD MSTORE PUSH1 0x14 PUSH1 0x24 DUP3 ADD MSTORE PUSH20 0x657363726F77206E6F7420616D656E6461626C65 PUSH1 0x60 SHL PUSH1 0x44 DUP3 ADD MSTORE PUSH1 0x64 SWAP1 REVERT JUMPDEST ISZERO PUSH2 0x2CC6 JUMPI JUMP JUMPDEST PUSH1 0x40 MLOAD PUSH3 0x461BCD PUSH1 0xE5 SHL DUP2 MSTORE PUSH1 0x20 PUSH1 0x4 DUP3 ADD MSTORE PUSH1 0x19 PUSH1 0x24 DUP3 ADD MSTORE PUSH32 0x6F6E6C7920696D706F72746572206F72206578706F7274657200000000000000 PUSH1 0x44 DUP3 ADD MSTORE PUSH1 0x64 SWAP1 REVERT JUMPDEST RETURNDATASIZE ISZERO PUSH2 0x2D36 JUMPI RETURNDATASIZE SWAP1 PUSH2 0x2D1C DUP3 PUSH2 0x2404 JUMP JUMPDEST SWAP2 PUSH2 0x2D2A PUSH1 0x40 MLOAD SWAP4 DUP5 PUSH2 0x23E3 JUMP JUMPDEST DUP3 MSTORE RETURNDATASIZE PUSH1 0x0 PUSH1 0x20 DUP5 ADD RETURNDATACOPY JUMP JUMPDEST PUSH1 0x60 SWAP1 JUMP JUMPDEST PUSH1 0x40 MLOAD SWAP1 PUSH2 0x2D48 DUP3 PUSH2 0x2391 JUMP JUMPDEST DUP2 PUSH1 0xA0 PUSH1 0x0 SWAP2 DUP3 DUP2 MSTORE DUP3 PUSH1 0x20 DUP3 ADD MSTORE DUP3 PUSH1 0x40 DUP3 ADD MSTORE DUP3 PUSH1 0x60 DUP3 ADD MSTORE DUP3 PUSH1 0x80 DUP3 ADD MSTORE ADD MSTORE JUMP JUMPDEST SWAP1 PUSH1 0x40 MLOAD SWAP2 DUP3 PUSH1 0x0 DUP3 SLOAD SWAP3 PUSH2 0x2D81 DUP5 PUSH2 0x2456 JUMP JUMPDEST SWAP1 DUP2 DUP5 MSTORE PUSH1 0x1 SWAP5 DUP6 DUP2 AND SWAP1 DUP2 PUSH1 0x0 EQ PUSH2 0x2DEE JUMPI POP PUSH1 0x1 EQ PUSH2 0x2DAB JUMPI JUMPDEST POP POP PUSH2 0x2A05 SWAP3 POP SUB DUP4 PUSH2 0x23E3 JUMP JUMPDEST SWAP1 SWAP4 SWAP2 POP PUSH1 0x0 MSTORE PUSH1 0x20 SWAP1 DUP2 PUSH1 0x0 KECCAK256 SWAP4 PUSH1 0x0 SWAP2 JUMPDEST DUP2 DUP4 LT PUSH2 0x2DD6 JUMPI POP POP PUSH2 0x2A05 SWAP4 POP DUP3 ADD ADD CODESIZE DUP1 PUSH2 0x2D9D JUMP JUMPDEST DUP6 SLOAD DUP9 DUP5 ADD DUP6 ADD MSTORE SWAP5 DUP6 ADD SWAP5 DUP8 SWAP5 POP SWAP2 DUP4 ADD SWAP2 PUSH2 0x2DBE JUMP JUMPDEST SWAP2 POP POP PUSH2 0x2A05 SWAP5 POP PUSH1 0x20 SWAP3 POP PUSH1 0xFF NOT AND DUP3 DUP5 ADD MSTORE ISZERO ISZERO PUSH1 0x5 SHL DUP3 ADD ADD CODESIZE DUP1 PUSH2 0x2D9D JUMP JUMPDEST PUSH1 0x1 PUSH1 0x1 PUSH1 0x40 SHL SUB DUP2 GT PUSH2 0x1B85 JUMPI PUSH1 0x5 SHL PUSH1 0x20 ADD SWAP1 JUMP JUMPDEST SWAP1 PUSH2 0x2E32 DUP3 PUSH2 0x2E11 JUMP JUMPDEST PUSH2 0x2E3F PUSH1 0x40 MLOAD SWAP2 DUP3 PUSH2 0x23E3 JUMP JUMPDEST DUP3 DUP2 MSTORE DUP1 SWAP3 PUSH2 0x2E50 PUSH1 0x1F NOT SWAP2 PUSH2 0x2E11 JUMP JUMPDEST ADD SWAP1 PUSH1 0x20 CALLDATASIZE SWAP2 ADD CALLDATACOPY JUMP JUMPDEST DUP1 MLOAD DUP3 LT ISZERO PUSH2 0x2578 JUMPI PUSH1 0x20 SWAP2 PUSH1 0x5 SHL ADD ADD SWAP1 JUMP JUMPDEST PUSH1 0x0 MSTORE PUSH1 0x9 PUSH1 0x20 MSTORE PUSH1 0x0 PUSH1 0x40 DUP2 KECCAK256 SSTORE PUSH1 0xA PUSH1 0x20 MSTORE PUSH1 0x40 PUSH1 0x0 KECCAK256 PUSH1 0x1 PUSH1 0x1 PUSH1 0x60 SHL SUB PUSH1 0xA0 SHL DUP2 SLOAD AND SWAP1 SSTORE JUMP JUMPDEST PUSH1 0x0 SWAP1 DUP1 DUP3 MSTORE PUSH1 0x20 SWAP2 PUSH1 0x7 DUP4 MSTORE PUSH1 0x40 DUP1 DUP3 KECCAK256 SWAP1 PUSH1 0x9 DUP3 ADD SWAP5 DUP6 SLOAD SWAP1 PUSH1 0xFF DUP3 AND PUSH1 0x5 DUP2 LT ISZERO PUSH2 0x3086 JUMPI PUSH1 0x3 DUP2 PUSH2 0xF58 PUSH1 0x2 PUSH2 0x2ED4 SWAP5 EQ ISZERO PUSH2 0x2B93 JUMP JUMPDEST DUP4 SLOAD DUP6 DUP6 SSTORE PUSH1 0xFF NOT SWAP3 DUP4 AND PUSH1 0x2 OR SWAP1 SWAP8 SSTORE PUSH2 0x2EEE DUP7 PUSH2 0x2E6E JUMP JUMPDEST PUSH1 0x1 SWAP7 DUP8 DUP6 ADD SWAP1 PUSH1 0x1 DUP1 PUSH1 0xA0 SHL SUB SWAP2 DUP8 DUP1 DUP1 DUP1 DUP6 DUP8 DUP7 SLOAD AND GAS CALL PUSH2 0x2F10 PUSH2 0x2D0B JUMP JUMPDEST POP ISZERO PUSH2 0x3042 JUMPI PUSH32 0x6E3C6096795C8298A218B2CFB8BDE42726FF7C9A3D27B4D3BA41AB7F74FEB5FB DUP5 DUP5 DUP12 SWAP4 SLOAD AND SWAP4 DUP9 MLOAD SWAP1 DUP2 MSTORE LOG3 PUSH1 0x2 PUSH1 0x4 DUP7 ADD SWAP6 ADD SLOAD AND SWAP7 DUP4 MLOAD SWAP6 DUP3 DUP8 MSTORE DUP1 SWAP6 DUP1 SLOAD PUSH2 0x2F62 DUP2 PUSH2 0x2456 JUMP JUMPDEST SWAP6 DUP7 DUP7 DUP12 ADD MSTORE DUP5 DUP3 AND SWAP2 DUP3 PUSH1 0x0 EQ PUSH2 0x3003 JUMPI POP POP PUSH1 0x1 EQ PUSH2 0x2FAD JUMPI JUMPDEST POP POP POP POP POP POP SWAP1 DUP1 PUSH32 0xBF3252966F322AE253FC5B3CD0805AD081276783C8537A30CD4BA5020F3E212B SWAP3 SUB SWAP1 LOG3 JUMP JUMPDEST SWAP1 DUP1 SWAP6 SWAP7 POP MSTORE DUP2 DUP5 KECCAK256 JUMPDEST DUP4 DUP6 LT PUSH2 0x2FF0 JUMPI POP POP POP POP DUP3 ADD ADD DUP2 PUSH32 0xBF3252966F322AE253FC5B3CD0805AD081276783C8537A30CD4BA5020F3E212B CODESIZE DUP1 DUP1 DUP1 PUSH2 0x2F7E JUMP JUMPDEST DUP1 SLOAD DUP8 DUP7 ADD DUP8 ADD MSTORE SWAP4 DUP3 ADD SWAP4 DUP2 ADD PUSH2 0x2FB7 JUMP JUMPDEST AND DUP8 DUP11 ADD MSTORE POP POP POP POP POP ISZERO ISZERO PUSH1 0x5 SHL DUP4 ADD ADD SWAP1 POP DUP2 PUSH32 0xBF3252966F322AE253FC5B3CD0805AD081276783C8537A30CD4BA5020F3E212B CODESIZE DUP1 DUP1 DUP1 PUSH2 0x2F7E JUMP JUMPDEST DUP6 MLOAD PUSH3 0x461BCD PUSH1 0xE5 SHL DUP2 MSTORE PUSH1 0x4 DUP2 ADD DUP6 SWAP1 MSTORE PUSH1 0x18 PUSH1 0x24 DUP3 ADD MSTORE PUSH32 0x6578706F72746572207472616E73666572206661696C65640000000000000000 PUSH1 0x44 DUP3 ADD MSTORE PUSH1 0x64 SWAP1 REVERT JUMPDEST PUSH4 0x4E487B71 PUSH1 0xE0 SHL DUP7 MSTORE PUSH1 0x21 PUSH1 0x4 MSTORE PUSH1 0x24 DUP7 REVERT JUMPDEST PUSH1 0x0 SWAP1 DUP1 DUP3 MSTORE PUSH1 0x7 PUSH1 0x20 MSTORE PUSH1 0x40 DUP3 KECCAK256 SWAP2 PUSH1 0x9 DUP4 ADD SWAP3 DUP4 SLOAD SWAP4 PUSH1 0xFF DUP6 AND PUSH1 0x5 DUP2 LT ISZERO PUSH2 0x3184 JUMPI SWAP1 PUSH2 0x30D5 PUSH1 0x3 DUP4 PUSH2 0xF58 PUSH1 0x2 DUP1 SWAP8 SWAP7 EQ ISZERO PUSH2 0x2B93 JUMP JUMPDEST PUSH1 0x3 DUP3 SLOAD SWAP7 DUP6 DUP5 SSTORE PUSH1 0xFF NOT AND OR SWAP1 SSTORE PUSH2 0x30ED DUP5 PUSH2 0x2E6E JUMP JUMPDEST ADD PUSH1 0x1 DUP1 PUSH1 0xA0 SHL SUB SWAP2 DUP1 DUP1 DUP1 DUP8 DUP7 DUP7 SLOAD AND GAS CALL PUSH2 0x3108 PUSH2 0x2D0B JUMP JUMPDEST POP ISZERO PUSH2 0x313F JUMPI PUSH32 0x7CA5472B7EA78C2C0141C5A12EE6D170CF4CE8ED06BE3D22C8252DDFC7A6A2C4 SWAP2 PUSH1 0x20 SWAP2 SLOAD AND SWAP4 PUSH1 0x40 MLOAD SWAP1 DUP2 MSTORE LOG3 JUMP JUMPDEST PUSH1 0x40 MLOAD PUSH3 0x461BCD PUSH1 0xE5 SHL DUP2 MSTORE PUSH1 0x20 PUSH1 0x4 DUP3 ADD MSTORE PUSH1 0x18 PUSH1 0x24 DUP3 ADD MSTORE PUSH32 0x696D706F72746572207472616E73666572206661696C65640000000000000000 PUSH1 0x44 DUP3 ADD MSTORE PUSH1 0x64 SWAP1 REVERT JUMPDEST PUSH4 0x4E487B71 PUSH1 0xE0 SHL DUP5 MSTORE PUSH1 0x21 PUSH1 0x4 MSTORE PUSH1 0x24 DUP5 REVERT JUMPDEST PUSH2 0x31A1 DUP2 PUSH2 0x31E1 JUMP JUMPDEST SWAP1 DUP2 PUSH2 0x31AB JUMPI POP SWAP1 JUMP JUMPDEST PUSH2 0x31DB SWAP2 POP PUSH1 0x6 ADD SLOAD PUSH32 0x0 SWAP1 PUSH2 0x235F JUMP JUMPDEST NUMBER LT ISZERO SWAP1 JUMP JUMPDEST PUSH1 0xA ADD SLOAD PUSH1 0xFF DUP2 AND SWAP1 DUP2 PUSH2 0x322E JUMPI JUMPDEST DUP2 PUSH2 0x321F JUMPI JUMPDEST DUP2 PUSH2 0x3210 JUMPI JUMPDEST DUP2 PUSH2 0x3205 JUMPI POP SWAP1 JUMP JUMPDEST PUSH1 0xFF SWAP2 POP PUSH1 0x20 SHR AND SWAP1 JUMP JUMPDEST SWAP1 POP PUSH1 0xFF DUP2 PUSH1 0x18 SHR AND SWAP1 PUSH2 0x31FC JUMP JUMPDEST SWAP1 POP PUSH1 0xFF DUP2 PUSH1 0x10 SHR AND SWAP1 PUSH2 0x31F6 JUMP JUMPDEST SWAP1 POP PUSH1 0xFF DUP2 PUSH1 0x8 SHR AND SWAP1 PUSH2 0x31F0 JUMP JUMPDEST PUSH1 0x2 DUP2 ADD SLOAD PUSH1 0x1 PUSH1 0x1 PUSH1 0xA0 SHL SUB SWAP3 DUP4 AND SWAP1 DUP4 AND DUP2 EQ SWAP3 SWAP1 SWAP2 DUP4 ISZERO PUSH2 0x3279 JUMPI JUMPDEST DUP4 ISZERO PUSH2 0x3269 JUMPI JUMPDEST POP POP POP SWAP1 JUMP JUMPDEST PUSH1 0x3 ADD SLOAD AND EQ SWAP1 POP CODESIZE DUP1 DUP1 PUSH2 0x3263 JUMP JUMPDEST PUSH1 0x1 DUP2 ADD SLOAD DUP3 AND DUP4 EQ SWAP4 POP PUSH2 0x325C JUMP INVALID SWAP12 PUSH24 0x9B17422D0DF92223018B32B4D1FA46E071723D6817E2486D STOP EXTCODESIZE 0xEC 0xC5 PUSH0 STOP LOG2 PUSH5 0x6970667358 0x22 SLT KECCAK256 PUSH23 0xE5534474910607E8798493E285B6DD3F79084E42B0E90F 0xC0 GASPRICE 0xD3 0xCF EXP CREATE DUP15 0xA5 PUSH5 0x736F6C6343 STOP ADDMOD EQ STOP CALLER "},"methodIdentifiers":{"SLASH_BPS()":"933cd8de","approveDeadlineExtension(uint256)":"5673227a","claimRefund(uint256)":"5b7baf64","createEscrow(address,address,string,uint256,string,string)":"177f318f","disputeVoted(uint256,address)":"08fa40f9","extensionProposer(uint256)":"93fdec66","getAttestation(uint256,address)":"17131dc7","getEscrow(uint256)":"7d19e596","getOracles()":"40884c52","isOracle(address)":"a97e5c93","isReleaseEligible(uint256)":"1499d0d3","nextEscrowId()":"89cb29dd","openDispute(uint256)":"27d00fb0","oracleBond()":"f36ae08a","oracleBonds(address)":"6c9bc51e","oracleQuorum()":"78ea2dd9","oracleSlashCount(address)":"671ee26d","owner()":"8da5cb5b","pause()":"8456cb59","paused()":"5c975abb","pendingDeadline(uint256)":"a1b5b23f","postBond()":"09f8d4a8","proposeDeadlineExtension(uint256,uint256)":"2846d075","releaseEscrow(uint256)":"ed653164","renounceOwnership()":"715018a6","requiredConfirmations()":"82e717f7","slashedFor(uint256,address)":"2ec85e53","submitAttestation(uint256,bool,bool,bool,bool,bool)":"f19675a1","transferOwnership(address)":"f2fde38b","treasury()":"61d027b3","unpause()":"3f4ba83a","voteDisputeResolution(uint256,bool)":"db6ea084","withdrawTreasury()":"166bab95"}}}}}