{"contracts/SternEscrow.sol":{"SternEscrow":{"abi":[{"inputs":[{"internalType":"address","name":"initialOwner","type":"address"},{"internalType":"address","name":"initialOracle","type":"address"}],"stateMutability":"nonpayable","type":"constructor"},{"inputs":[],"name":"EnforcedPause","type":"error"},{"inputs":[],"name":"ExpectedPause","type":"error"},{"inputs":[{"internalType":"address","name":"owner","type":"address"}],"name":"OwnableInvalidOwner","type":"error"},{"inputs":[{"internalType":"address","name":"account","type":"address"}],"name":"OwnableUnauthorizedAccount","type":"error"},{"inputs":[],"name":"ReentrancyGuardReentrantCall","type":"error"},{"anonymous":false,"inputs":[{"indexed":true,"internalType":"uint256","name":"escrowId","type":"uint256"},{"indexed":true,"internalType":"address","name":"openedBy","type":"address"}],"name":"DisputeOpened","type":"event"},{"anonymous":false,"inputs":[{"indexed":true,"internalType":"uint256","name":"escrowId","type":"uint256"},{"indexed":false,"internalType":"bool","name":"releasedToExporter","type":"bool"}],"name":"DisputeResolved","type":"event"},{"anonymous":false,"inputs":[{"indexed":true,"internalType":"uint256","name":"escrowId","type":"uint256"},{"indexed":true,"internalType":"address","name":"voter","type":"address"},{"indexed":false,"internalType":"bool","name":"releaseToExporter","type":"bool"}],"name":"DisputeVote","type":"event"},{"anonymous":false,"inputs":[{"indexed":true,"internalType":"uint256","name":"escrowId","type":"uint256"},{"indexed":false,"internalType":"string","name":"eBLCID","type":"string"},{"indexed":true,"internalType":"address","name":"newHolder","type":"address"}],"name":"EBLTransferred","type":"event"},{"anonymous":false,"inputs":[{"indexed":true,"internalType":"uint256","name":"escrowId","type":"uint256"},{"indexed":true,"internalType":"address","name":"importer","type":"address"},{"indexed":true,"internalType":"address","name":"exporter","type":"address"},{"indexed":false,"internalType":"address","name":"arbiter","type":"address"},{"indexed":false,"internalType":"uint256","name":"value","type":"uint256"},{"indexed":false,"internalType":"string","name":"eBLCID","type":"string"},{"indexed":false,"internalType":"string","name":"commodity","type":"string"},{"indexed":false,"internalType":"string","name":"containerRef","type":"string"},{"indexed":false,"internalType":"uint256","name":"deadline","type":"uint256"}],"name":"EscrowCreated","type":"event"},{"anonymous":false,"inputs":[{"indexed":true,"internalType":"uint256","name":"escrowId","type":"uint256"},{"indexed":true,"internalType":"address","name":"exporter","type":"address"},{"indexed":false,"internalType":"uint256","name":"amount","type":"uint256"}],"name":"FundsReleased","type":"event"},{"anonymous":false,"inputs":[{"indexed":true,"internalType":"uint256","name":"escrowId","type":"uint256"},{"indexed":false,"internalType":"bool","name":"vgmMatch","type":"bool"},{"indexed":false,"internalType":"bool","name":"aisDeparted","type":"bool"},{"indexed":false,"internalType":"bool","name":"ceisaApproved","type":"bool"},{"indexed":false,"internalType":"bool","name":"eblCidValid","type":"bool"}],"name":"OracleVerificationSubmitted","type":"event"},{"anonymous":false,"inputs":[{"indexed":true,"internalType":"address","name":"previousOwner","type":"address"},{"indexed":true,"internalType":"address","name":"newOwner","type":"address"}],"name":"OwnershipTransferred","type":"event"},{"anonymous":false,"inputs":[{"indexed":false,"internalType":"address","name":"account","type":"address"}],"name":"Paused","type":"event"},{"anonymous":false,"inputs":[{"indexed":true,"internalType":"uint256","name":"escrowId","type":"uint256"},{"indexed":true,"internalType":"address","name":"importer","type":"address"},{"indexed":false,"internalType":"uint256","name":"amount","type":"uint256"}],"name":"Refunded","type":"event"},{"anonymous":false,"inputs":[{"indexed":true,"internalType":"address","name":"oldOracle","type":"address"},{"indexed":true,"internalType":"address","name":"newOracle","type":"address"}],"name":"TrustedOracleUpdated","type":"event"},{"anonymous":false,"inputs":[{"indexed":false,"internalType":"address","name":"account","type":"address"}],"name":"Unpaused","type":"event"},{"inputs":[],"name":"REQUIRED_CONFIRMATIONS","outputs":[{"internalType":"uint256","name":"","type":"uint256"}],"stateMutability":"view","type":"function"},{"inputs":[{"internalType":"uint256","name":"escrowId","type":"uint256"}],"name":"claimRefund","outputs":[],"stateMutability":"nonpayable","type":"function"},{"inputs":[{"internalType":"address payable","name":"exporterAddress","type":"address"},{"internalType":"address","name":"arbiterAddress","type":"address"},{"internalType":"string","name":"eBLCID","type":"string"},{"internalType":"uint256","name":"deadline","type":"uint256"},{"internalType":"string","name":"commodity","type":"string"},{"internalType":"string","name":"containerRef","type":"string"}],"name":"createEscrow","outputs":[{"internalType":"uint256","name":"escrowId","type":"uint256"}],"stateMutability":"payable","type":"function"},{"inputs":[{"internalType":"uint256","name":"","type":"uint256"},{"internalType":"address","name":"","type":"address"}],"name":"disputeVoted","outputs":[{"internalType":"bool","name":"","type":"bool"}],"stateMutability":"view","type":"function"},{"inputs":[{"internalType":"uint256","name":"escrowId","type":"uint256"}],"name":"getEscrow","outputs":[{"components":[{"internalType":"uint256","name":"contractValue","type":"uint256"},{"internalType":"address payable","name":"exporterAddress","type":"address"},{"internalType":"address payable","name":"importerAddress","type":"address"},{"internalType":"address","name":"arbiterAddress","type":"address"},{"internalType":"string","name":"eBLCID","type":"string"},{"internalType":"uint256","name":"deadline","type":"uint256"},{"internalType":"uint256","name":"createdBlock","type":"uint256"},{"internalType":"string","name":"commodity","type":"string"},{"internalType":"string","name":"containerRef","type":"string"},{"internalType":"enum SternEscrow.State","name":"state","type":"uint8"},{"components":[{"internalType":"bool","name":"vgmMatch","type":"bool"},{"internalType":"bool","name":"aisDeparted","type":"bool"},{"internalType":"bool","name":"ceisaApproved","type":"bool"},{"internalType":"bool","name":"eblCidValid","type":"bool"},{"internalType":"uint256","name":"submittedAtBlock","type":"uint256"}],"internalType":"struct SternEscrow.Verification","name":"verification","type":"tuple"},{"internalType":"uint8","name":"releaseApprovals","type":"uint8"},{"internalType":"uint8","name":"refundApprovals","type":"uint8"}],"internalType":"struct SternEscrow.Escrow","name":"","type":"tuple"}],"stateMutability":"view","type":"function"},{"inputs":[{"internalType":"uint256","name":"escrowId","type":"uint256"}],"name":"isReleaseEligible","outputs":[{"internalType":"bool","name":"","type":"bool"}],"stateMutability":"view","type":"function"},{"inputs":[],"name":"nextEscrowId","outputs":[{"internalType":"uint256","name":"","type":"uint256"}],"stateMutability":"view","type":"function"},{"inputs":[{"internalType":"uint256","name":"escrowId","type":"uint256"}],"name":"openDispute","outputs":[],"stateMutability":"nonpayable","type":"function"},{"inputs":[],"name":"owner","outputs":[{"internalType":"address","name":"","type":"address"}],"stateMutability":"view","type":"function"},{"inputs":[],"name":"pause","outputs":[],"stateMutability":"nonpayable","type":"function"},{"inputs":[],"name":"paused","outputs":[{"internalType":"bool","name":"","type":"bool"}],"stateMutability":"view","type":"function"},{"inputs":[{"internalType":"uint256","name":"escrowId","type":"uint256"}],"name":"releaseEscrow","outputs":[],"stateMutability":"nonpayable","type":"function"},{"inputs":[],"name":"renounceOwnership","outputs":[],"stateMutability":"nonpayable","type":"function"},{"inputs":[{"internalType":"address","name":"newOracle","type":"address"}],"name":"setTrustedOracle","outputs":[],"stateMutability":"nonpayable","type":"function"},{"inputs":[{"internalType":"uint256","name":"escrowId","type":"uint256"},{"internalType":"bool","name":"vgmMatch","type":"bool"},{"internalType":"bool","name":"aisDeparted","type":"bool"},{"internalType":"bool","name":"ceisaApproved","type":"bool"},{"internalType":"bool","name":"eblCidValid","type":"bool"}],"name":"submitVerification","outputs":[],"stateMutability":"nonpayable","type":"function"},{"inputs":[{"internalType":"address","name":"newOwner","type":"address"}],"name":"transferOwnership","outputs":[],"stateMutability":"nonpayable","type":"function"},{"inputs":[],"name":"trustedOracle","outputs":[{"internalType":"address","name":"","type":"address"}],"stateMutability":"view","type":"function"},{"inputs":[],"name":"unpause","outputs":[],"stateMutability":"nonpayable","type":"function"},{"inputs":[{"internalType":"uint256","name":"escrowId","type":"uint256"},{"internalType":"bool","name":"releaseToExporter","type":"bool"}],"name":"voteDisputeResolution","outputs":[],"stateMutability":"nonpayable","type":"function"}],"evm":{"bytecode":{"linkReferences":{},"object":"6080346200014f57601f6200212538819003918201601f19168301916001600160401b03831184841017620001545780849260409485528339810103126200014f576200005a602062000052836200016a565b92016200016a565b6001600160a01b03918216919082156200013657600080546001600160a01b0319808216861783559491908416907f8be0079c531659141344cd1fd0a4f28419497f9722a3daafe3b4186f6b6457e09080a360017f9b779b17422d0df92223018b32b4d1fa46e071723d6817e2486d003becc55f005516908115620000f1576001541617600155604051611fa59081620001808239f35b60405162461bcd60e51b815260206004820152601360248201527f6f7261636c65207a65726f2061646472657373000000000000000000000000006044820152606490fd5b604051631e4fbdf760e01b815260006004820152602490fd5b600080fd5b634e487b7160e01b600052604160045260246000fd5b51906001600160a01b03821682036200014f5756fe608080604052600436101561001357600080fd5b60003560e01c90816308fa40f914611814575080631499d0d3146117b9578063177f318f14610f0a57806327d00fb014610e155780633f4ba83a14610da3578063587d812714610d875780635b7baf6414610c705780635c975abb14610c4a578063715018a614610bf15780637d19e596146108dc5780638456cb591461087a57806389cb29dd1461085c5780638da5cb5b14610833578063b22bd29814610788578063db6ea08414610520578063e2048503146104f7578063ed455cc9146102bb578063ed6531641461017e5763f2fde38b146100f057600080fd5b3461017957602036600319011261017957610109611872565b610111611905565b6001600160a01b0390811690811561016057600054826001600160601b0360a01b821617600055167f8be0079c531659141344cd1fd0a4f28419497f9722a3daafe3b4186f6b6457e0600080a3005b604051631e4fbdf760e01b815260006004820152602490fd5b600080fd5b346101795760203660031901126101795760043561019a611a3a565b6101a2611a5b565b6000818152600360205260409020600201546101c8906001600160a01b03161515611a8b565b806000526003602052604060002060ff60098201541660058110156102a557806101f760026004931415611aca565b6102046003821415611b16565b1461026e5761021290611e92565b156102345761022090611c79565b6001600080516020611f5083398151915255005b60405162461bcd60e51b815260206004820152601260248201527118dbdb991a5d1a5bdb9cc81b9bdd081b595d60721b6044820152606490fd5b60405162461bcd60e51b815260206004820152600f60248201526e195cd8dc9bddc8191a5cdc1d5d1959608a1b6044820152606490fd5b634e487b7160e01b600052602160045260246000fd5b346101795760a0366003190112610179576004356102d76118f6565b604435801515809103610179576064358015158091036101795760843590811515809203610179576001546001600160a01b0390811633036104bd576103399061031f611a3a565b866000526003602052600260406000200154161515611a8b565b846000526003602052604060002092600984019460ff86541660058110156102a55780159081156104b2575b50156104755786937f9d6d084b54860e46c575ce65a84af17c0cfe2ff9b9cb5c7a86c424a483385374936080936040519361039f85611931565b1515938481528160208201528260408201528360608201528543910152600a88016103d685829060ff801983541691151516179055565b805463ff0000008560181b169061ff008460081b169063ffffff0019161762ff00008560101b161717905543600b890155604051938452602084015260408301526060820152a261042681611ebc565b8061045e575b9161043c9261044d575b50611e92565b61044257005b61044b90611c79565b005b805460ff1916600117905583610436565b5060ff8254169160058310156102a557911561042c565b60405162461bcd60e51b8152602060048201526015602482015274657363726f77206e6f742076657269666961626c6560581b6044820152606490fd5b600191501488610365565b60405162461bcd60e51b81526020600482015260126024820152716e6f742074727573746564206f7261636c6560701b6044820152606490fd5b34610179576000366003190112610179576001546040516001600160a01b039091168152602090f35b346101795760403660031901126101795760043561053c6118f6565b610544611a3a565b61054c611a5b565b816000526020906003825261057260018060a01b03600260406000200154161515611a8b565b8260005260038252604060002060ff918260098301541660058110156102a55760040361074d576105ab6105a63384611f03565b611b62565b8460005260048452604060002033600052845282604060002054166107185790600c9185600052600485526040600020336000528552604060002060ff1990600182825416179055816000146106e857838301908154908661060e818416611ba1565b1691161790555b6040519015158152857ff85c096b53a9070fd926a1edca76662dbe81762ead01d03522520e8eef6c752e863393a301546002828216106106985750507f5a87909bff68caaaaf0b3fd9c74eeccc928832f879315e5c6fb7a73612f26c0c9061067c83611c79565b60405160018152a26001600080516020611f5083398151915255005b9060029160081c1610156106ae575b5050610220565b7f5a87909bff68caaaaf0b3fd9c74eeccc928832f879315e5c6fb7a73612f26c0c906106d983611db1565b60405160008152a280806106a7565b506107138383016106fe86825460081c16611ba1565b61ff0082549160081b169061ff001916179055565b610615565b60405162461bcd60e51b815260048101859052600d60248201526c185b1c9958591e481d9bdd1959609a1b6044820152606490fd5b60405162461bcd60e51b8152600481018590526013602482015272195cd8dc9bddc81b9bdd08191a5cdc1d5d1959606a1b6044820152606490fd5b34610179576020366003190112610179576107a1611872565b6107a9611905565b6001600160a01b039081169081156107f857600154826001600160601b0360a01b821617600155167f39db9a18d9423b2c9e84fb028ccfe6b093bc97de86f67ab9437cbc332667faa3600080a3005b60405162461bcd60e51b81526020600482015260136024820152726f7261636c65207a65726f206164647265737360681b6044820152606490fd5b34610179576000366003190112610179576000546040516001600160a01b039091168152602090f35b34610179576000366003190112610179576020600254604051908152f35b3461017957600036600319011261017957610893611905565b61089b611a3a565b6000805460ff60a01b1916600160a01b1790556040513381527f62e78cea01bee320cd4e420270b5ea74000d11b0c9f74754ebdbfc544b05a25890602090a1005b346101795760203660031901126101795760043560006101806040516109018161194d565b828152826020820152826040820152826060820152606060808201528260a08201528260c0820152606060e082015260606101008201528261012082015260405161094b81611931565b83815283602082015283604082015283606082015283608082015261014082015282610160820152015280600052600360205261099960018060a01b03600260406000200154161515611a8b565b60005260036020526040600020604051906109b38261194d565b8054825260018101546001600160a01b039081166020840152600282015481166040808501919091526003830154909116606084015251610a02816109fb8160048601611bb3565b038261196a565b6080830152600581015460a0830152600681015460c0830152604051610a2f816109fb8160078601611bb3565b60e0830152604051610a48816109fb8160088601611bb3565b61010083015260ff60098201541660058110156102a55760ff91600c91610120850152604051610a7781611931565b83600a83015481811615158352818160081c1615156020840152818160101c161515604084015260181c1615156060820152600b8201546080820152610140850152015481811661016084015260081c1661018082015260405190602082528051602083015260018060a01b03602082015116604083015260018060a01b03604082015116606083015260018060a01b036060820151166080830152610b79610b31608083015161022060a08601526102408501906118b6565b60a083015160c085015260c083015160e0850152610b6260e084015191601f199283878303016101008801526118b6565b9061010084015190858303016101208601526118b6565b6101208201519160058310156102a55761018060ff9185946101408601526080610140820151805115156101608801526020810151151584880152604081015115156101a0880152606081015115156101c088015201516101e086015282610160820151166102008601520151166102208301520390f35b3461017957600036600319011261017957610c0a611905565b600080546001600160a01b0319811682556001600160a01b03167f8be0079c531659141344cd1fd0a4f28419497f9722a3daafe3b4186f6b6457e08280a3005b3461017957600036600319011261017957602060ff60005460a01c166040519015158152f35b3461017957602036600319011261017957600435610c8c611a3a565b610c94611a5b565b6000818152600360205260409020600201546001600160a01b0390610cbc9082161515611a8b565b8160005260036020526040600020906002820154163303610d525760ff6009820154169060058210156102a557610d05600383610cfe60026005961415611aca565b1415611b16565b0154421115610d175761022090611db1565b60405162461bcd60e51b8152602060048201526013602482015272191958591b1a5b99481b9bdd081c185cdcd959606a1b6044820152606490fd5b60405162461bcd60e51b815260206004820152600d60248201526c37b7363c9034b6b837b93a32b960991b6044820152606490fd5b3461017957600036600319011261017957602060405160808152f35b3461017957600036600319011261017957610dbc611905565b60005460ff8160a01c1615610e035760ff60a01b19166000556040513381527f5db9ee0a495bf2e6ff9c91a7834c1ba4fdd244a5e8aa4e537bd38aeae4b073aa90602090a1005b604051638dfc202b60e01b8152600490fd5b3461017957602036600319011261017957600435610e31611a3a565b600081815260036020526040902060020154610e57906001600160a01b03161515611a8b565b80600052600360205260406000206009810190815460ff811660058110156102a5578015908115610eff575b5015610ec957610e996105a66004933390611f03565b60ff191617905533907f44f3c3ed15c708331582bc379d28659a58f183a563abe41aa4c8889db469f71c600080a3005b60405162461bcd60e51b815260206004820152600e60248201526d63616e6e6f74206469737075746560901b6044820152606490fd5b600191501485610e83565b60c0366003190112610179576004356001600160a01b038116810361017957610f3161185c565b604490813567ffffffffffffffff811161017957610f53903690600401611888565b939060843567ffffffffffffffff811161017957610f75903690600401611888565b959060a43567ffffffffffffffff811161017957610f97903690600401611888565b96610fa0611a3a565b610fa8611a5b565b341561177d576001600160a01b03861615611741576001600160a01b03871615611706574260643511156116c257831561168b57871561164e57506002549660001988146116385760018801600255604051986110048a611931565b60008a52600060208b0152600060408b0152600060608b0152600060808b0152604051996110318b61194d565b348b526001600160a01b0388811660208d01523360408d0152891660608c015261105c3687896119a8565b60808c015260643560a08c01524360c08c015261107a3683876119a8565b60e08c015261108a3684866119a8565b6101008c015260006101208c01526101408b015260006101608b015260006101808b01528860005260036020526040600020938a5185556001850160018060a01b0360208d015116906001600160601b0360a01b9182825416179055600286018c604060018060a01b03910151168282541617905560038601908c606060018060a01b03910151169082541617905560808b015180519067ffffffffffffffff821161148257819061113f60048901546119df565b601f81116115e5575b50602090601f831160011461157357600092611568575b50508160011b916000199060031b1c19161760048601555b60a08b0151600586015560c08b0151600686015560e08b015180519067ffffffffffffffff82116114825781906111b160078901546119df565b601f8111611515575b50602090601f83116001146114a357600092611498575b50508160011b916000199060031b1c19161760078601555b6101008b015180519067ffffffffffffffff821161148257819061121060088901546119df565b601f811161142f575b50602090601f83116001146113bd576000926113b2575b50508160011b916000199060031b1c19161760088601555b6101208b01519160058310156102a5576113618b987f7d94eb80dd12e87bd072cfa504c5cb51a379311aaee1f4730e7a5ba63eee7c009861133a60209f9660ff61018061136f99600c8e61137d9f600901851996868883541691161790556080600a8201610140850151906112cc82511515829060ff801983541691151516179055565b60208201511515815462ff00006040850151151560101b169061ff0063ff0000006060870151151560181b169360081b169063ffffff00191617171790550151600b820155019383610160830151169085541617845501511661ff0082549160081b169061ff001916179055565b604080516001600160a01b03909e168e523460208f015260c0908e018190528d0191611a19565b918a830360608c0152611a19565b918783036080890152611a19565b60643560a08601526001600160a01b0390931693339381900390a46001600080516020611f5083398151915255604051908152f35b015190508d80611230565b9250600888016000526020600020906000935b601f1984168510611414576001945083601f198116106113fb575b505050811b016008860155611248565b015160001960f88460031b161c191690558d80806113eb565b818101518355602094850194600190930192909101906113d0565b909150600888016000526020600020601f840160051c81016020851061147b575b90849392915b601f830160051c8201811061146c575050611219565b60008155859450600101611456565b5080611450565b634e487b7160e01b600052604160045260246000fd5b015190508d806111d1565b9250600788016000526020600020906000935b601f19841685106114fa576001945083601f198116106114e1575b505050811b0160078601556111e9565b015160001960f88460031b161c191690558d80806114d1565b818101518355602094850194600190930192909101906114b6565b909150600788016000526020600020601f840160051c810160208510611561575b90849392915b601f830160051c820181106115525750506111ba565b6000815585945060010161153c565b5080611536565b015190508d8061115f565b9250600488016000526020600020906000935b601f19841685106115ca576001945083601f198116106115b1575b505050811b016004860155611177565b015160001960f88460031b161c191690558d80806115a1565b81810151835560209485019460019093019290910190611586565b909150600488016000526020600020601f840160051c810160208510611631575b90849392915b601f830160051c82018110611622575050611148565b6000815585945060010161160c565b5080611606565b634e487b7160e01b600052601160045260246000fd5b6064907518dbdb9d185a5b995c881c9959881c995c5d5a5c995960521b6040519162461bcd60e51b83526020600484015260166024840152820152fd5b6064906f1950930810d251081c995c5d5a5c995960821b6040519162461bcd60e51b83526020600484015260106024840152820152fd5b6064907f646561646c696e65206d757374206265206675747572650000000000000000006040519162461bcd60e51b83526020600484015260176024840152820152fd5b6064907361726269746572207a65726f206164647265737360601b6040519162461bcd60e51b83526020600484015260146024840152820152fd5b606490746578706f72746572207a65726f206164647265737360581b6040519162461bcd60e51b83526020600484015260156024840152820152fd5b60649074195cd8dc9bddc81d985b1d59481c995c5d5a5c9959605a1b6040519162461bcd60e51b83526020600484015260156024840152820152fd5b34610179576020366003190112610179576004356000818152600360205260409020600201546117f3906001600160a01b03161515611a8b565b6000526003602052602061180a6040600020611e92565b6040519015158152f35b346101795760403660031901126101795760209061183061185c565b6004356000526004835260406000209060018060a01b0316600052825260ff6040600020541615158152f35b602435906001600160a01b038216820361017957565b600435906001600160a01b038216820361017957565b9181601f840112156101795782359167ffffffffffffffff8311610179576020838186019501011161017957565b919082519283825260005b8481106118e2575050826000602080949584010152601f8019910116010190565b6020818301810151848301820152016118c1565b60243590811515820361017957565b6000546001600160a01b0316330361191957565b60405163118cdaa760e01b8152336004820152602490fd5b60a0810190811067ffffffffffffffff82111761148257604052565b6101a0810190811067ffffffffffffffff82111761148257604052565b90601f8019910116810190811067ffffffffffffffff82111761148257604052565b67ffffffffffffffff811161148257601f01601f191660200190565b9291926119b48261198c565b916119c2604051938461196a565b829481845281830111610179578281602093846000960137010152565b90600182811c92168015611a0f575b60208310146119f957565b634e487b7160e01b600052602260045260246000fd5b91607f16916119ee565b908060209392818452848401376000828201840152601f01601f1916010190565b60ff60005460a01c16611a4957565b60405163d93c066560e01b8152600490fd5b600080516020611f508339815191526002815414611a795760029055565b604051633ee5aeb560e01b8152600490fd5b15611a9257565b60405162461bcd60e51b815260206004820152601060248201526f195cd8dc9bddc81b9bdd08199bdd5b9960821b6044820152606490fd5b15611ad157565b60405162461bcd60e51b815260206004820152601860248201527f657363726f7720616c726561647920636f6d706c6574656400000000000000006044820152606490fd5b15611b1d57565b60405162461bcd60e51b815260206004820152601760248201527f657363726f7720616c726561647920726566756e6465640000000000000000006044820152606490fd5b15611b6957565b60405162461bcd60e51b815260206004820152601060248201526f6e6f7420657363726f7720706172747960801b6044820152606490fd5b60ff60019116019060ff821161163857565b9060009291805491611bc4836119df565b918282526001938481169081600014611c265750600114611be6575b50505050565b90919394506000526020928360002092846000945b838610611c12575050505001019038808080611be0565b805485870183015294019385908201611bfb565b9294505050602093945060ff191683830152151560051b01019038808080611be0565b3d15611c74573d90611c5a8261198c565b91611c68604051938461196a565b82523d6000602084013e565b606090565b60009080825260036020526040822091600983019283549360ff85166005811015611d9d57600381610cfe6002611cb1941415611aca565b600282549584845560ff1916179055600181019060018060a01b039280808088878754165af1611cdf611c49565b5015611d5857602094847f6e3c6096795c8298a218b2cfb8bde42726ff7c9a3d27b4d3ba41ab7f74feb5fb7fbf3252966f322ae253fc5b3cd0805ad081276783c8537a30cd4ba5020f3e212b95611d53955416978893604051908152a3604051918291602083526004602084019101611bb3565b0390a3565b60405162461bcd60e51b815260206004820152601860248201527f6578706f72746572207472616e73666572206661696c656400000000000000006044820152606490fd5b634e487b7160e01b84526021600452602484fd5b60009080825260036020526040822091600983019283549360ff85166005811015611d9d5790611dec600383610cfe60028097961415611aca565b600382549685845560ff19161790550160018060a01b039180808087868654165af1611e16611c49565b5015611e4d577f7ca5472b7ea78c2c0141c5a12ee6d170cf4ce8ed06be3d22c8252ddfc7a6a2c491602091541693604051908152a3565b60405162461bcd60e51b815260206004820152601860248201527f696d706f72746572207472616e73666572206661696c656400000000000000006044820152606490fd5b611e9b81611ebc565b9081611ea5575090565b600691500154608081018091116116385743101590565b600a015460ff81169081611ef4575b81611ee5575b81611eda575090565b60ff915060181c1690565b905060ff8160101c1690611ed1565b905060ff8160081c1690611ecb565b60028101546001600160a01b0392831690831681149290918315611f3f575b8315611f2f575b50505090565b6003015416149050388080611f29565b6001810154821683149350611f2256fe9b779b17422d0df92223018b32b4d1fa46e071723d6817e2486d003becc55f00a2646970667358221220c8b83cb92be97beeb1635f1c056e18cf95fc084c42a0ed866328bcc9f7054a9b64736f6c63430008140033","opcodes":"PUSH1 0x80 CALLVALUE PUSH3 0x14F JUMPI PUSH1 0x1F PUSH3 0x2125 CODESIZE DUP2 SWAP1 SUB SWAP2 DUP3 ADD PUSH1 0x1F NOT AND DUP4 ADD SWAP2 PUSH1 0x1 PUSH1 0x1 PUSH1 0x40 SHL SUB DUP4 GT DUP5 DUP5 LT OR PUSH3 0x154 JUMPI DUP1 DUP5 SWAP3 PUSH1 0x40 SWAP5 DUP6 MSTORE DUP4 CODECOPY DUP2 ADD SUB SLT PUSH3 0x14F JUMPI PUSH3 0x5A PUSH1 0x20 PUSH3 0x52 DUP4 PUSH3 0x16A JUMP JUMPDEST SWAP3 ADD PUSH3 0x16A JUMP JUMPDEST PUSH1 0x1 PUSH1 0x1 PUSH1 0xA0 SHL SUB SWAP2 DUP3 AND SWAP2 SWAP1 DUP3 ISZERO PUSH3 0x136 JUMPI PUSH1 0x0 DUP1 SLOAD PUSH1 0x1 PUSH1 0x1 PUSH1 0xA0 SHL SUB NOT DUP1 DUP3 AND DUP7 OR DUP4 SSTORE SWAP5 SWAP2 SWAP1 DUP5 AND SWAP1 PUSH32 0x8BE0079C531659141344CD1FD0A4F28419497F9722A3DAAFE3B4186F6B6457E0 SWAP1 DUP1 LOG3 PUSH1 0x1 PUSH32 0x9B779B17422D0DF92223018B32B4D1FA46E071723D6817E2486D003BECC55F00 SSTORE AND SWAP1 DUP2 ISZERO PUSH3 0xF1 JUMPI PUSH1 0x1 SLOAD AND OR PUSH1 0x1 SSTORE PUSH1 0x40 MLOAD PUSH2 0x1FA5 SWAP1 DUP2 PUSH3 0x180 DUP3 CODECOPY RETURN JUMPDEST PUSH1 0x40 MLOAD PUSH3 0x461BCD PUSH1 0xE5 SHL DUP2 MSTORE PUSH1 0x20 PUSH1 0x4 DUP3 ADD MSTORE PUSH1 0x13 PUSH1 0x24 DUP3 ADD MSTORE PUSH32 0x6F7261636C65207A65726F206164647265737300000000000000000000000000 PUSH1 0x44 DUP3 ADD MSTORE PUSH1 0x64 SWAP1 REVERT JUMPDEST PUSH1 0x40 MLOAD PUSH4 0x1E4FBDF7 PUSH1 0xE0 SHL DUP2 MSTORE PUSH1 0x0 PUSH1 0x4 DUP3 ADD MSTORE PUSH1 0x24 SWAP1 REVERT JUMPDEST PUSH1 0x0 DUP1 REVERT JUMPDEST PUSH4 0x4E487B71 PUSH1 0xE0 SHL PUSH1 0x0 MSTORE PUSH1 0x41 PUSH1 0x4 MSTORE PUSH1 0x24 PUSH1 0x0 REVERT JUMPDEST MLOAD SWAP1 PUSH1 0x1 PUSH1 0x1 PUSH1 0xA0 SHL SUB DUP3 AND DUP3 SUB PUSH3 0x14F JUMPI JUMP INVALID PUSH1 0x80 DUP1 PUSH1 0x40 MSTORE PUSH1 0x4 CALLDATASIZE LT ISZERO PUSH2 0x13 JUMPI PUSH1 0x0 DUP1 REVERT JUMPDEST PUSH1 0x0 CALLDATALOAD PUSH1 0xE0 SHR SWAP1 DUP2 PUSH4 0x8FA40F9 EQ PUSH2 0x1814 JUMPI POP DUP1 PUSH4 0x1499D0D3 EQ PUSH2 0x17B9 JUMPI DUP1 PUSH4 0x177F318F EQ PUSH2 0xF0A JUMPI DUP1 PUSH4 0x27D00FB0 EQ PUSH2 0xE15 JUMPI DUP1 PUSH4 0x3F4BA83A EQ PUSH2 0xDA3 JUMPI DUP1 PUSH4 0x587D8127 EQ PUSH2 0xD87 JUMPI DUP1 PUSH4 0x5B7BAF64 EQ PUSH2 0xC70 JUMPI DUP1 PUSH4 0x5C975ABB EQ PUSH2 0xC4A JUMPI DUP1 PUSH4 0x715018A6 EQ PUSH2 0xBF1 JUMPI DUP1 PUSH4 0x7D19E596 EQ PUSH2 0x8DC JUMPI DUP1 PUSH4 0x8456CB59 EQ PUSH2 0x87A JUMPI DUP1 PUSH4 0x89CB29DD EQ PUSH2 0x85C JUMPI DUP1 PUSH4 0x8DA5CB5B EQ PUSH2 0x833 JUMPI DUP1 PUSH4 0xB22BD298 EQ PUSH2 0x788 JUMPI DUP1 PUSH4 0xDB6EA084 EQ PUSH2 0x520 JUMPI DUP1 PUSH4 0xE2048503 EQ PUSH2 0x4F7 JUMPI DUP1 PUSH4 0xED455CC9 EQ PUSH2 0x2BB JUMPI DUP1 PUSH4 0xED653164 EQ PUSH2 0x17E JUMPI PUSH4 0xF2FDE38B EQ PUSH2 0xF0 JUMPI PUSH1 0x0 DUP1 REVERT JUMPDEST CALLVALUE PUSH2 0x179 JUMPI PUSH1 0x20 CALLDATASIZE PUSH1 0x3 NOT ADD SLT PUSH2 0x179 JUMPI PUSH2 0x109 PUSH2 0x1872 JUMP JUMPDEST PUSH2 0x111 PUSH2 0x1905 JUMP JUMPDEST PUSH1 0x1 PUSH1 0x1 PUSH1 0xA0 SHL SUB SWAP1 DUP2 AND SWAP1 DUP2 ISZERO PUSH2 0x160 JUMPI PUSH1 0x0 SLOAD DUP3 PUSH1 0x1 PUSH1 0x1 PUSH1 0x60 SHL SUB PUSH1 0xA0 SHL DUP3 AND OR PUSH1 0x0 SSTORE AND PUSH32 0x8BE0079C531659141344CD1FD0A4F28419497F9722A3DAAFE3B4186F6B6457E0 PUSH1 0x0 DUP1 LOG3 STOP JUMPDEST PUSH1 0x40 MLOAD PUSH4 0x1E4FBDF7 PUSH1 0xE0 SHL DUP2 MSTORE PUSH1 0x0 PUSH1 0x4 DUP3 ADD MSTORE PUSH1 0x24 SWAP1 REVERT JUMPDEST PUSH1 0x0 DUP1 REVERT JUMPDEST CALLVALUE PUSH2 0x179 JUMPI PUSH1 0x20 CALLDATASIZE PUSH1 0x3 NOT ADD SLT PUSH2 0x179 JUMPI PUSH1 0x4 CALLDATALOAD PUSH2 0x19A PUSH2 0x1A3A JUMP JUMPDEST PUSH2 0x1A2 PUSH2 0x1A5B JUMP JUMPDEST PUSH1 0x0 DUP2 DUP2 MSTORE PUSH1 0x3 PUSH1 0x20 MSTORE PUSH1 0x40 SWAP1 KECCAK256 PUSH1 0x2 ADD SLOAD PUSH2 0x1C8 SWAP1 PUSH1 0x1 PUSH1 0x1 PUSH1 0xA0 SHL SUB AND ISZERO ISZERO PUSH2 0x1A8B JUMP JUMPDEST DUP1 PUSH1 0x0 MSTORE PUSH1 0x3 PUSH1 0x20 MSTORE PUSH1 0x40 PUSH1 0x0 KECCAK256 PUSH1 0xFF PUSH1 0x9 DUP3 ADD SLOAD AND PUSH1 0x5 DUP2 LT ISZERO PUSH2 0x2A5 JUMPI DUP1 PUSH2 0x1F7 PUSH1 0x2 PUSH1 0x4 SWAP4 EQ ISZERO PUSH2 0x1ACA JUMP JUMPDEST PUSH2 0x204 PUSH1 0x3 DUP3 EQ ISZERO PUSH2 0x1B16 JUMP JUMPDEST EQ PUSH2 0x26E JUMPI PUSH2 0x212 SWAP1 PUSH2 0x1E92 JUMP JUMPDEST ISZERO PUSH2 0x234 JUMPI PUSH2 0x220 SWAP1 PUSH2 0x1C79 JUMP JUMPDEST PUSH1 0x1 PUSH1 0x0 DUP1 MLOAD PUSH1 0x20 PUSH2 0x1F50 DUP4 CODECOPY DUP2 MLOAD SWAP2 MSTORE SSTORE STOP JUMPDEST PUSH1 0x40 MLOAD PUSH3 0x461BCD PUSH1 0xE5 SHL DUP2 MSTORE PUSH1 0x20 PUSH1 0x4 DUP3 ADD MSTORE PUSH1 0x12 PUSH1 0x24 DUP3 ADD MSTORE PUSH18 0x18DBDB991A5D1A5BDB9CC81B9BDD081B595D PUSH1 0x72 SHL PUSH1 0x44 DUP3 ADD MSTORE PUSH1 0x64 SWAP1 REVERT JUMPDEST PUSH1 0x40 MLOAD PUSH3 0x461BCD PUSH1 0xE5 SHL DUP2 MSTORE PUSH1 0x20 PUSH1 0x4 DUP3 ADD MSTORE PUSH1 0xF PUSH1 0x24 DUP3 ADD MSTORE PUSH15 0x195CD8DC9BDDC8191A5CDC1D5D1959 PUSH1 0x8A SHL PUSH1 0x44 DUP3 ADD MSTORE PUSH1 0x64 SWAP1 REVERT JUMPDEST PUSH4 0x4E487B71 PUSH1 0xE0 SHL PUSH1 0x0 MSTORE PUSH1 0x21 PUSH1 0x4 MSTORE PUSH1 0x24 PUSH1 0x0 REVERT JUMPDEST CALLVALUE PUSH2 0x179 JUMPI PUSH1 0xA0 CALLDATASIZE PUSH1 0x3 NOT ADD SLT PUSH2 0x179 JUMPI PUSH1 0x4 CALLDATALOAD PUSH2 0x2D7 PUSH2 0x18F6 JUMP JUMPDEST PUSH1 0x44 CALLDATALOAD DUP1 ISZERO ISZERO DUP1 SWAP2 SUB PUSH2 0x179 JUMPI PUSH1 0x64 CALLDATALOAD DUP1 ISZERO ISZERO DUP1 SWAP2 SUB PUSH2 0x179 JUMPI PUSH1 0x84 CALLDATALOAD SWAP1 DUP2 ISZERO ISZERO DUP1 SWAP3 SUB PUSH2 0x179 JUMPI PUSH1 0x1 SLOAD PUSH1 0x1 PUSH1 0x1 PUSH1 0xA0 SHL SUB SWAP1 DUP2 AND CALLER SUB PUSH2 0x4BD JUMPI PUSH2 0x339 SWAP1 PUSH2 0x31F PUSH2 0x1A3A JUMP JUMPDEST DUP7 PUSH1 0x0 MSTORE PUSH1 0x3 PUSH1 0x20 MSTORE PUSH1 0x2 PUSH1 0x40 PUSH1 0x0 KECCAK256 ADD SLOAD AND ISZERO ISZERO PUSH2 0x1A8B JUMP JUMPDEST DUP5 PUSH1 0x0 MSTORE PUSH1 0x3 PUSH1 0x20 MSTORE PUSH1 0x40 PUSH1 0x0 KECCAK256 SWAP3 PUSH1 0x9 DUP5 ADD SWAP5 PUSH1 0xFF DUP7 SLOAD AND PUSH1 0x5 DUP2 LT ISZERO PUSH2 0x2A5 JUMPI DUP1 ISZERO SWAP1 DUP2 ISZERO PUSH2 0x4B2 JUMPI JUMPDEST POP ISZERO PUSH2 0x475 JUMPI DUP7 SWAP4 PUSH32 0x9D6D084B54860E46C575CE65A84AF17C0CFE2FF9B9CB5C7A86C424A483385374 SWAP4 PUSH1 0x80 SWAP4 PUSH1 0x40 MLOAD SWAP4 PUSH2 0x39F DUP6 PUSH2 0x1931 JUMP JUMPDEST ISZERO ISZERO SWAP4 DUP5 DUP2 MSTORE DUP2 PUSH1 0x20 DUP3 ADD MSTORE DUP3 PUSH1 0x40 DUP3 ADD MSTORE DUP4 PUSH1 0x60 DUP3 ADD MSTORE DUP6 NUMBER SWAP2 ADD MSTORE PUSH1 0xA DUP9 ADD PUSH2 0x3D6 DUP6 DUP3 SWAP1 PUSH1 0xFF DUP1 NOT DUP4 SLOAD AND SWAP2 ISZERO ISZERO AND OR SWAP1 SSTORE JUMP JUMPDEST DUP1 SLOAD PUSH4 0xFF000000 DUP6 PUSH1 0x18 SHL AND SWAP1 PUSH2 0xFF00 DUP5 PUSH1 0x8 SHL AND SWAP1 PUSH4 0xFFFFFF00 NOT AND OR PUSH3 0xFF0000 DUP6 PUSH1 0x10 SHL AND OR OR SWAP1 SSTORE NUMBER PUSH1 0xB DUP10 ADD SSTORE PUSH1 0x40 MLOAD SWAP4 DUP5 MSTORE PUSH1 0x20 DUP5 ADD MSTORE PUSH1 0x40 DUP4 ADD MSTORE PUSH1 0x60 DUP3 ADD MSTORE LOG2 PUSH2 0x426 DUP2 PUSH2 0x1EBC JUMP JUMPDEST DUP1 PUSH2 0x45E JUMPI JUMPDEST SWAP2 PUSH2 0x43C SWAP3 PUSH2 0x44D JUMPI JUMPDEST POP PUSH2 0x1E92 JUMP JUMPDEST PUSH2 0x442 JUMPI STOP JUMPDEST PUSH2 0x44B SWAP1 PUSH2 0x1C79 JUMP JUMPDEST STOP JUMPDEST DUP1 SLOAD PUSH1 0xFF NOT AND PUSH1 0x1 OR SWAP1 SSTORE DUP4 PUSH2 0x436 JUMP JUMPDEST POP PUSH1 0xFF DUP3 SLOAD AND SWAP2 PUSH1 0x5 DUP4 LT ISZERO PUSH2 0x2A5 JUMPI SWAP2 ISZERO PUSH2 0x42C JUMP JUMPDEST PUSH1 0x40 MLOAD PUSH3 0x461BCD PUSH1 0xE5 SHL DUP2 MSTORE PUSH1 0x20 PUSH1 0x4 DUP3 ADD MSTORE PUSH1 0x15 PUSH1 0x24 DUP3 ADD MSTORE PUSH21 0x657363726F77206E6F742076657269666961626C65 PUSH1 0x58 SHL PUSH1 0x44 DUP3 ADD MSTORE PUSH1 0x64 SWAP1 REVERT JUMPDEST PUSH1 0x1 SWAP2 POP EQ DUP9 PUSH2 0x365 JUMP JUMPDEST PUSH1 0x40 MLOAD PUSH3 0x461BCD PUSH1 0xE5 SHL DUP2 MSTORE PUSH1 0x20 PUSH1 0x4 DUP3 ADD MSTORE PUSH1 0x12 PUSH1 0x24 DUP3 ADD MSTORE PUSH18 0x6E6F742074727573746564206F7261636C65 PUSH1 0x70 SHL PUSH1 0x44 DUP3 ADD MSTORE PUSH1 0x64 SWAP1 REVERT JUMPDEST CALLVALUE PUSH2 0x179 JUMPI PUSH1 0x0 CALLDATASIZE PUSH1 0x3 NOT ADD SLT PUSH2 0x179 JUMPI PUSH1 0x1 SLOAD PUSH1 0x40 MLOAD PUSH1 0x1 PUSH1 0x1 PUSH1 0xA0 SHL SUB SWAP1 SWAP2 AND DUP2 MSTORE PUSH1 0x20 SWAP1 RETURN JUMPDEST CALLVALUE PUSH2 0x179 JUMPI PUSH1 0x40 CALLDATASIZE PUSH1 0x3 NOT ADD SLT PUSH2 0x179 JUMPI PUSH1 0x4 CALLDATALOAD PUSH2 0x53C PUSH2 0x18F6 JUMP JUMPDEST PUSH2 0x544 PUSH2 0x1A3A JUMP JUMPDEST PUSH2 0x54C PUSH2 0x1A5B JUMP JUMPDEST DUP2 PUSH1 0x0 MSTORE PUSH1 0x20 SWAP1 PUSH1 0x3 DUP3 MSTORE PUSH2 0x572 PUSH1 0x1 DUP1 PUSH1 0xA0 SHL SUB PUSH1 0x2 PUSH1 0x40 PUSH1 0x0 KECCAK256 ADD SLOAD AND ISZERO ISZERO PUSH2 0x1A8B JUMP JUMPDEST DUP3 PUSH1 0x0 MSTORE PUSH1 0x3 DUP3 MSTORE PUSH1 0x40 PUSH1 0x0 KECCAK256 PUSH1 0xFF SWAP2 DUP3 PUSH1 0x9 DUP4 ADD SLOAD AND PUSH1 0x5 DUP2 LT ISZERO PUSH2 0x2A5 JUMPI PUSH1 0x4 SUB PUSH2 0x74D JUMPI PUSH2 0x5AB PUSH2 0x5A6 CALLER DUP5 PUSH2 0x1F03 JUMP JUMPDEST PUSH2 0x1B62 JUMP JUMPDEST DUP5 PUSH1 0x0 MSTORE PUSH1 0x4 DUP5 MSTORE PUSH1 0x40 PUSH1 0x0 KECCAK256 CALLER PUSH1 0x0 MSTORE DUP5 MSTORE DUP3 PUSH1 0x40 PUSH1 0x0 KECCAK256 SLOAD AND PUSH2 0x718 JUMPI SWAP1 PUSH1 0xC SWAP2 DUP6 PUSH1 0x0 MSTORE PUSH1 0x4 DUP6 MSTORE PUSH1 0x40 PUSH1 0x0 KECCAK256 CALLER PUSH1 0x0 MSTORE DUP6 MSTORE PUSH1 0x40 PUSH1 0x0 KECCAK256 PUSH1 0xFF NOT SWAP1 PUSH1 0x1 DUP3 DUP3 SLOAD AND OR SWAP1 SSTORE DUP2 PUSH1 0x0 EQ PUSH2 0x6E8 JUMPI DUP4 DUP4 ADD SWAP1 DUP2 SLOAD SWAP1 DUP7 PUSH2 0x60E DUP2 DUP5 AND PUSH2 0x1BA1 JUMP JUMPDEST AND SWAP2 AND OR SWAP1 SSTORE JUMPDEST PUSH1 0x40 MLOAD SWAP1 ISZERO ISZERO DUP2 MSTORE DUP6 PUSH32 0xF85C096B53A9070FD926A1EDCA76662DBE81762EAD01D03522520E8EEF6C752E DUP7 CALLER SWAP4 LOG3 ADD SLOAD PUSH1 0x2 DUP3 DUP3 AND LT PUSH2 0x698 JUMPI POP POP PUSH32 0x5A87909BFF68CAAAAF0B3FD9C74EECCC928832F879315E5C6FB7A73612F26C0C SWAP1 PUSH2 0x67C DUP4 PUSH2 0x1C79 JUMP JUMPDEST PUSH1 0x40 MLOAD PUSH1 0x1 DUP2 MSTORE LOG2 PUSH1 0x1 PUSH1 0x0 DUP1 MLOAD PUSH1 0x20 PUSH2 0x1F50 DUP4 CODECOPY DUP2 MLOAD SWAP2 MSTORE SSTORE STOP JUMPDEST SWAP1 PUSH1 0x2 SWAP2 PUSH1 0x8 SHR AND LT ISZERO PUSH2 0x6AE JUMPI JUMPDEST POP POP PUSH2 0x220 JUMP JUMPDEST PUSH32 0x5A87909BFF68CAAAAF0B3FD9C74EECCC928832F879315E5C6FB7A73612F26C0C SWAP1 PUSH2 0x6D9 DUP4 PUSH2 0x1DB1 JUMP JUMPDEST PUSH1 0x40 MLOAD PUSH1 0x0 DUP2 MSTORE LOG2 DUP1 DUP1 PUSH2 0x6A7 JUMP JUMPDEST POP PUSH2 0x713 DUP4 DUP4 ADD PUSH2 0x6FE DUP7 DUP3 SLOAD PUSH1 0x8 SHR AND PUSH2 0x1BA1 JUMP JUMPDEST PUSH2 0xFF00 DUP3 SLOAD SWAP2 PUSH1 0x8 SHL AND SWAP1 PUSH2 0xFF00 NOT AND OR SWAP1 SSTORE JUMP JUMPDEST PUSH2 0x615 JUMP JUMPDEST PUSH1 0x40 MLOAD PUSH3 0x461BCD PUSH1 0xE5 SHL DUP2 MSTORE PUSH1 0x4 DUP2 ADD DUP6 SWAP1 MSTORE PUSH1 0xD PUSH1 0x24 DUP3 ADD MSTORE PUSH13 0x185B1C9958591E481D9BDD1959 PUSH1 0x9A SHL PUSH1 0x44 DUP3 ADD MSTORE PUSH1 0x64 SWAP1 REVERT JUMPDEST PUSH1 0x40 MLOAD PUSH3 0x461BCD PUSH1 0xE5 SHL DUP2 MSTORE PUSH1 0x4 DUP2 ADD DUP6 SWAP1 MSTORE PUSH1 0x13 PUSH1 0x24 DUP3 ADD MSTORE PUSH19 0x195CD8DC9BDDC81B9BDD08191A5CDC1D5D1959 PUSH1 0x6A SHL PUSH1 0x44 DUP3 ADD MSTORE PUSH1 0x64 SWAP1 REVERT JUMPDEST CALLVALUE PUSH2 0x179 JUMPI PUSH1 0x20 CALLDATASIZE PUSH1 0x3 NOT ADD SLT PUSH2 0x179 JUMPI PUSH2 0x7A1 PUSH2 0x1872 JUMP JUMPDEST PUSH2 0x7A9 PUSH2 0x1905 JUMP JUMPDEST PUSH1 0x1 PUSH1 0x1 PUSH1 0xA0 SHL SUB SWAP1 DUP2 AND SWAP1 DUP2 ISZERO PUSH2 0x7F8 JUMPI PUSH1 0x1 SLOAD DUP3 PUSH1 0x1 PUSH1 0x1 PUSH1 0x60 SHL SUB PUSH1 0xA0 SHL DUP3 AND OR PUSH1 0x1 SSTORE AND PUSH32 0x39DB9A18D9423B2C9E84FB028CCFE6B093BC97DE86F67AB9437CBC332667FAA3 PUSH1 0x0 DUP1 LOG3 STOP JUMPDEST PUSH1 0x40 MLOAD PUSH3 0x461BCD PUSH1 0xE5 SHL DUP2 MSTORE PUSH1 0x20 PUSH1 0x4 DUP3 ADD MSTORE PUSH1 0x13 PUSH1 0x24 DUP3 ADD MSTORE PUSH19 0x6F7261636C65207A65726F2061646472657373 PUSH1 0x68 SHL PUSH1 0x44 DUP3 ADD MSTORE PUSH1 0x64 SWAP1 REVERT JUMPDEST CALLVALUE PUSH2 0x179 JUMPI PUSH1 0x0 CALLDATASIZE PUSH1 0x3 NOT ADD SLT PUSH2 0x179 JUMPI PUSH1 0x0 SLOAD PUSH1 0x40 MLOAD PUSH1 0x1 PUSH1 0x1 PUSH1 0xA0 SHL SUB SWAP1 SWAP2 AND DUP2 MSTORE PUSH1 0x20 SWAP1 RETURN JUMPDEST CALLVALUE PUSH2 0x179 JUMPI PUSH1 0x0 CALLDATASIZE PUSH1 0x3 NOT ADD SLT PUSH2 0x179 JUMPI PUSH1 0x20 PUSH1 0x2 SLOAD PUSH1 0x40 MLOAD SWAP1 DUP2 MSTORE RETURN JUMPDEST CALLVALUE PUSH2 0x179 JUMPI PUSH1 0x0 CALLDATASIZE PUSH1 0x3 NOT ADD SLT PUSH2 0x179 JUMPI PUSH2 0x893 PUSH2 0x1905 JUMP JUMPDEST PUSH2 0x89B PUSH2 0x1A3A JUMP JUMPDEST PUSH1 0x0 DUP1 SLOAD PUSH1 0xFF PUSH1 0xA0 SHL NOT AND PUSH1 0x1 PUSH1 0xA0 SHL OR SWAP1 SSTORE PUSH1 0x40 MLOAD CALLER DUP2 MSTORE PUSH32 0x62E78CEA01BEE320CD4E420270B5EA74000D11B0C9F74754EBDBFC544B05A258 SWAP1 PUSH1 0x20 SWAP1 LOG1 STOP JUMPDEST CALLVALUE PUSH2 0x179 JUMPI PUSH1 0x20 CALLDATASIZE PUSH1 0x3 NOT ADD SLT PUSH2 0x179 JUMPI PUSH1 0x4 CALLDATALOAD PUSH1 0x0 PUSH2 0x180 PUSH1 0x40 MLOAD PUSH2 0x901 DUP2 PUSH2 0x194D JUMP JUMPDEST DUP3 DUP2 MSTORE DUP3 PUSH1 0x20 DUP3 ADD MSTORE DUP3 PUSH1 0x40 DUP3 ADD MSTORE DUP3 PUSH1 0x60 DUP3 ADD MSTORE PUSH1 0x60 PUSH1 0x80 DUP3 ADD MSTORE DUP3 PUSH1 0xA0 DUP3 ADD MSTORE DUP3 PUSH1 0xC0 DUP3 ADD MSTORE PUSH1 0x60 PUSH1 0xE0 DUP3 ADD MSTORE PUSH1 0x60 PUSH2 0x100 DUP3 ADD MSTORE DUP3 PUSH2 0x120 DUP3 ADD MSTORE PUSH1 0x40 MLOAD PUSH2 0x94B DUP2 PUSH2 0x1931 JUMP JUMPDEST DUP4 DUP2 MSTORE DUP4 PUSH1 0x20 DUP3 ADD MSTORE DUP4 PUSH1 0x40 DUP3 ADD MSTORE DUP4 PUSH1 0x60 DUP3 ADD MSTORE DUP4 PUSH1 0x80 DUP3 ADD MSTORE PUSH2 0x140 DUP3 ADD MSTORE DUP3 PUSH2 0x160 DUP3 ADD MSTORE ADD MSTORE DUP1 PUSH1 0x0 MSTORE PUSH1 0x3 PUSH1 0x20 MSTORE PUSH2 0x999 PUSH1 0x1 DUP1 PUSH1 0xA0 SHL SUB PUSH1 0x2 PUSH1 0x40 PUSH1 0x0 KECCAK256 ADD SLOAD AND ISZERO ISZERO PUSH2 0x1A8B JUMP JUMPDEST PUSH1 0x0 MSTORE PUSH1 0x3 PUSH1 0x20 MSTORE PUSH1 0x40 PUSH1 0x0 KECCAK256 PUSH1 0x40 MLOAD SWAP1 PUSH2 0x9B3 DUP3 PUSH2 0x194D JUMP JUMPDEST DUP1 SLOAD DUP3 MSTORE PUSH1 0x1 DUP2 ADD SLOAD PUSH1 0x1 PUSH1 0x1 PUSH1 0xA0 SHL SUB SWAP1 DUP2 AND PUSH1 0x20 DUP5 ADD MSTORE PUSH1 0x2 DUP3 ADD SLOAD DUP2 AND PUSH1 0x40 DUP1 DUP6 ADD SWAP2 SWAP1 SWAP2 MSTORE PUSH1 0x3 DUP4 ADD SLOAD SWAP1 SWAP2 AND PUSH1 0x60 DUP5 ADD MSTORE MLOAD PUSH2 0xA02 DUP2 PUSH2 0x9FB DUP2 PUSH1 0x4 DUP7 ADD PUSH2 0x1BB3 JUMP JUMPDEST SUB DUP3 PUSH2 0x196A JUMP JUMPDEST PUSH1 0x80 DUP4 ADD MSTORE PUSH1 0x5 DUP2 ADD SLOAD PUSH1 0xA0 DUP4 ADD MSTORE PUSH1 0x6 DUP2 ADD SLOAD PUSH1 0xC0 DUP4 ADD MSTORE PUSH1 0x40 MLOAD PUSH2 0xA2F DUP2 PUSH2 0x9FB DUP2 PUSH1 0x7 DUP7 ADD PUSH2 0x1BB3 JUMP JUMPDEST PUSH1 0xE0 DUP4 ADD MSTORE PUSH1 0x40 MLOAD PUSH2 0xA48 DUP2 PUSH2 0x9FB DUP2 PUSH1 0x8 DUP7 ADD PUSH2 0x1BB3 JUMP JUMPDEST PUSH2 0x100 DUP4 ADD MSTORE PUSH1 0xFF PUSH1 0x9 DUP3 ADD SLOAD AND PUSH1 0x5 DUP2 LT ISZERO PUSH2 0x2A5 JUMPI PUSH1 0xFF SWAP2 PUSH1 0xC SWAP2 PUSH2 0x120 DUP6 ADD MSTORE PUSH1 0x40 MLOAD PUSH2 0xA77 DUP2 PUSH2 0x1931 JUMP JUMPDEST DUP4 PUSH1 0xA DUP4 ADD SLOAD DUP2 DUP2 AND ISZERO ISZERO DUP4 MSTORE DUP2 DUP2 PUSH1 0x8 SHR AND ISZERO ISZERO PUSH1 0x20 DUP5 ADD MSTORE DUP2 DUP2 PUSH1 0x10 SHR AND ISZERO ISZERO PUSH1 0x40 DUP5 ADD MSTORE PUSH1 0x18 SHR AND ISZERO ISZERO PUSH1 0x60 DUP3 ADD MSTORE PUSH1 0xB DUP3 ADD SLOAD PUSH1 0x80 DUP3 ADD MSTORE PUSH2 0x140 DUP6 ADD MSTORE ADD SLOAD DUP2 DUP2 AND PUSH2 0x160 DUP5 ADD MSTORE PUSH1 0x8 SHR AND PUSH2 0x180 DUP3 ADD MSTORE PUSH1 0x40 MLOAD SWAP1 PUSH1 0x20 DUP3 MSTORE DUP1 MLOAD PUSH1 0x20 DUP4 ADD MSTORE PUSH1 0x1 DUP1 PUSH1 0xA0 SHL SUB PUSH1 0x20 DUP3 ADD MLOAD AND PUSH1 0x40 DUP4 ADD MSTORE PUSH1 0x1 DUP1 PUSH1 0xA0 SHL SUB PUSH1 0x40 DUP3 ADD MLOAD AND PUSH1 0x60 DUP4 ADD MSTORE PUSH1 0x1 DUP1 PUSH1 0xA0 SHL SUB PUSH1 0x60 DUP3 ADD MLOAD AND PUSH1 0x80 DUP4 ADD MSTORE PUSH2 0xB79 PUSH2 0xB31 PUSH1 0x80 DUP4 ADD MLOAD PUSH2 0x220 PUSH1 0xA0 DUP7 ADD MSTORE PUSH2 0x240 DUP6 ADD SWAP1 PUSH2 0x18B6 JUMP JUMPDEST PUSH1 0xA0 DUP4 ADD MLOAD PUSH1 0xC0 DUP6 ADD MSTORE PUSH1 0xC0 DUP4 ADD MLOAD PUSH1 0xE0 DUP6 ADD MSTORE PUSH2 0xB62 PUSH1 0xE0 DUP5 ADD MLOAD SWAP2 PUSH1 0x1F NOT SWAP3 DUP4 DUP8 DUP4 SUB ADD PUSH2 0x100 DUP9 ADD MSTORE PUSH2 0x18B6 JUMP JUMPDEST SWAP1 PUSH2 0x100 DUP5 ADD MLOAD SWAP1 DUP6 DUP4 SUB ADD PUSH2 0x120 DUP7 ADD MSTORE PUSH2 0x18B6 JUMP JUMPDEST PUSH2 0x120 DUP3 ADD MLOAD SWAP2 PUSH1 0x5 DUP4 LT ISZERO PUSH2 0x2A5 JUMPI PUSH2 0x180 PUSH1 0xFF SWAP2 DUP6 SWAP5 PUSH2 0x140 DUP7 ADD MSTORE PUSH1 0x80 PUSH2 0x140 DUP3 ADD MLOAD DUP1 MLOAD ISZERO ISZERO PUSH2 0x160 DUP9 ADD MSTORE PUSH1 0x20 DUP2 ADD MLOAD ISZERO ISZERO DUP5 DUP9 ADD MSTORE PUSH1 0x40 DUP2 ADD MLOAD ISZERO ISZERO PUSH2 0x1A0 DUP9 ADD MSTORE PUSH1 0x60 DUP2 ADD MLOAD ISZERO ISZERO PUSH2 0x1C0 DUP9 ADD MSTORE ADD MLOAD PUSH2 0x1E0 DUP7 ADD MSTORE DUP3 PUSH2 0x160 DUP3 ADD MLOAD AND PUSH2 0x200 DUP7 ADD MSTORE ADD MLOAD AND PUSH2 0x220 DUP4 ADD MSTORE SUB SWAP1 RETURN JUMPDEST CALLVALUE PUSH2 0x179 JUMPI PUSH1 0x0 CALLDATASIZE PUSH1 0x3 NOT ADD SLT PUSH2 0x179 JUMPI PUSH2 0xC0A PUSH2 0x1905 JUMP JUMPDEST PUSH1 0x0 DUP1 SLOAD PUSH1 0x1 PUSH1 0x1 PUSH1 0xA0 SHL SUB NOT DUP2 AND DUP3 SSTORE PUSH1 0x1 PUSH1 0x1 PUSH1 0xA0 SHL SUB AND PUSH32 0x8BE0079C531659141344CD1FD0A4F28419497F9722A3DAAFE3B4186F6B6457E0 DUP3 DUP1 LOG3 STOP JUMPDEST CALLVALUE PUSH2 0x179 JUMPI PUSH1 0x0 CALLDATASIZE PUSH1 0x3 NOT ADD SLT PUSH2 0x179 JUMPI PUSH1 0x20 PUSH1 0xFF PUSH1 0x0 SLOAD PUSH1 0xA0 SHR AND PUSH1 0x40 MLOAD SWAP1 ISZERO ISZERO DUP2 MSTORE RETURN JUMPDEST CALLVALUE PUSH2 0x179 JUMPI PUSH1 0x20 CALLDATASIZE PUSH1 0x3 NOT ADD SLT PUSH2 0x179 JUMPI PUSH1 0x4 CALLDATALOAD PUSH2 0xC8C PUSH2 0x1A3A JUMP JUMPDEST PUSH2 0xC94 PUSH2 0x1A5B JUMP JUMPDEST PUSH1 0x0 DUP2 DUP2 MSTORE PUSH1 0x3 PUSH1 0x20 MSTORE PUSH1 0x40 SWAP1 KECCAK256 PUSH1 0x2 ADD SLOAD PUSH1 0x1 PUSH1 0x1 PUSH1 0xA0 SHL SUB SWAP1 PUSH2 0xCBC SWAP1 DUP3 AND ISZERO ISZERO PUSH2 0x1A8B JUMP JUMPDEST DUP2 PUSH1 0x0 MSTORE PUSH1 0x3 PUSH1 0x20 MSTORE PUSH1 0x40 PUSH1 0x0 KECCAK256 SWAP1 PUSH1 0x2 DUP3 ADD SLOAD AND CALLER SUB PUSH2 0xD52 JUMPI PUSH1 0xFF PUSH1 0x9 DUP3 ADD SLOAD AND SWAP1 PUSH1 0x5 DUP3 LT ISZERO PUSH2 0x2A5 JUMPI PUSH2 0xD05 PUSH1 0x3 DUP4 PUSH2 0xCFE PUSH1 0x2 PUSH1 0x5 SWAP7 EQ ISZERO PUSH2 0x1ACA JUMP JUMPDEST EQ ISZERO PUSH2 0x1B16 JUMP JUMPDEST ADD SLOAD TIMESTAMP GT ISZERO PUSH2 0xD17 JUMPI PUSH2 0x220 SWAP1 PUSH2 0x1DB1 JUMP JUMPDEST PUSH1 0x40 MLOAD PUSH3 0x461BCD PUSH1 0xE5 SHL DUP2 MSTORE PUSH1 0x20 PUSH1 0x4 DUP3 ADD MSTORE PUSH1 0x13 PUSH1 0x24 DUP3 ADD MSTORE PUSH19 0x191958591B1A5B99481B9BDD081C185CDCD959 PUSH1 0x6A SHL PUSH1 0x44 DUP3 ADD MSTORE PUSH1 0x64 SWAP1 REVERT JUMPDEST PUSH1 0x40 MLOAD PUSH3 0x461BCD PUSH1 0xE5 SHL DUP2 MSTORE PUSH1 0x20 PUSH1 0x4 DUP3 ADD MSTORE PUSH1 0xD PUSH1 0x24 DUP3 ADD MSTORE PUSH13 0x37B7363C9034B6B837B93A32B9 PUSH1 0x99 SHL PUSH1 0x44 DUP3 ADD MSTORE PUSH1 0x64 SWAP1 REVERT JUMPDEST CALLVALUE PUSH2 0x179 JUMPI PUSH1 0x0 CALLDATASIZE PUSH1 0x3 NOT ADD SLT PUSH2 0x179 JUMPI PUSH1 0x20 PUSH1 0x40 MLOAD PUSH1 0x80 DUP2 MSTORE RETURN JUMPDEST CALLVALUE PUSH2 0x179 JUMPI PUSH1 0x0 CALLDATASIZE PUSH1 0x3 NOT ADD SLT PUSH2 0x179 JUMPI PUSH2 0xDBC PUSH2 0x1905 JUMP JUMPDEST PUSH1 0x0 SLOAD PUSH1 0xFF DUP2 PUSH1 0xA0 SHR AND ISZERO PUSH2 0xE03 JUMPI PUSH1 0xFF PUSH1 0xA0 SHL NOT AND PUSH1 0x0 SSTORE PUSH1 0x40 MLOAD CALLER DUP2 MSTORE PUSH32 0x5DB9EE0A495BF2E6FF9C91A7834C1BA4FDD244A5E8AA4E537BD38AEAE4B073AA SWAP1 PUSH1 0x20 SWAP1 LOG1 STOP JUMPDEST PUSH1 0x40 MLOAD PUSH4 0x8DFC202B PUSH1 0xE0 SHL DUP2 MSTORE PUSH1 0x4 SWAP1 REVERT JUMPDEST CALLVALUE PUSH2 0x179 JUMPI PUSH1 0x20 CALLDATASIZE PUSH1 0x3 NOT ADD SLT PUSH2 0x179 JUMPI PUSH1 0x4 CALLDATALOAD PUSH2 0xE31 PUSH2 0x1A3A JUMP JUMPDEST PUSH1 0x0 DUP2 DUP2 MSTORE PUSH1 0x3 PUSH1 0x20 MSTORE PUSH1 0x40 SWAP1 KECCAK256 PUSH1 0x2 ADD SLOAD PUSH2 0xE57 SWAP1 PUSH1 0x1 PUSH1 0x1 PUSH1 0xA0 SHL SUB AND ISZERO ISZERO PUSH2 0x1A8B JUMP JUMPDEST DUP1 PUSH1 0x0 MSTORE PUSH1 0x3 PUSH1 0x20 MSTORE PUSH1 0x40 PUSH1 0x0 KECCAK256 PUSH1 0x9 DUP2 ADD SWAP1 DUP2 SLOAD PUSH1 0xFF DUP2 AND PUSH1 0x5 DUP2 LT ISZERO PUSH2 0x2A5 JUMPI DUP1 ISZERO SWAP1 DUP2 ISZERO PUSH2 0xEFF JUMPI JUMPDEST POP ISZERO PUSH2 0xEC9 JUMPI PUSH2 0xE99 PUSH2 0x5A6 PUSH1 0x4 SWAP4 CALLER SWAP1 PUSH2 0x1F03 JUMP JUMPDEST PUSH1 0xFF NOT AND OR SWAP1 SSTORE CALLER SWAP1 PUSH32 0x44F3C3ED15C708331582BC379D28659A58F183A563ABE41AA4C8889DB469F71C PUSH1 0x0 DUP1 LOG3 STOP JUMPDEST PUSH1 0x40 MLOAD PUSH3 0x461BCD PUSH1 0xE5 SHL DUP2 MSTORE PUSH1 0x20 PUSH1 0x4 DUP3 ADD MSTORE PUSH1 0xE PUSH1 0x24 DUP3 ADD MSTORE PUSH14 0x63616E6E6F742064697370757465 PUSH1 0x90 SHL PUSH1 0x44 DUP3 ADD MSTORE PUSH1 0x64 SWAP1 REVERT JUMPDEST PUSH1 0x1 SWAP2 POP EQ DUP6 PUSH2 0xE83 JUMP JUMPDEST PUSH1 0xC0 CALLDATASIZE PUSH1 0x3 NOT ADD SLT PUSH2 0x179 JUMPI PUSH1 0x4 CALLDATALOAD PUSH1 0x1 PUSH1 0x1 PUSH1 0xA0 SHL SUB DUP2 AND DUP2 SUB PUSH2 0x179 JUMPI PUSH2 0xF31 PUSH2 0x185C JUMP JUMPDEST PUSH1 0x44 SWAP1 DUP2 CALLDATALOAD PUSH8 0xFFFFFFFFFFFFFFFF DUP2 GT PUSH2 0x179 JUMPI PUSH2 0xF53 SWAP1 CALLDATASIZE SWAP1 PUSH1 0x4 ADD PUSH2 0x1888 JUMP JUMPDEST SWAP4 SWAP1 PUSH1 0x84 CALLDATALOAD PUSH8 0xFFFFFFFFFFFFFFFF DUP2 GT PUSH2 0x179 JUMPI PUSH2 0xF75 SWAP1 CALLDATASIZE SWAP1 PUSH1 0x4 ADD PUSH2 0x1888 JUMP JUMPDEST SWAP6 SWAP1 PUSH1 0xA4 CALLDATALOAD PUSH8 0xFFFFFFFFFFFFFFFF DUP2 GT PUSH2 0x179 JUMPI PUSH2 0xF97 SWAP1 CALLDATASIZE SWAP1 PUSH1 0x4 ADD PUSH2 0x1888 JUMP JUMPDEST SWAP7 PUSH2 0xFA0 PUSH2 0x1A3A JUMP JUMPDEST PUSH2 0xFA8 PUSH2 0x1A5B JUMP JUMPDEST CALLVALUE ISZERO PUSH2 0x177D JUMPI PUSH1 0x1 PUSH1 0x1 PUSH1 0xA0 SHL SUB DUP7 AND ISZERO PUSH2 0x1741 JUMPI PUSH1 0x1 PUSH1 0x1 PUSH1 0xA0 SHL SUB DUP8 AND ISZERO PUSH2 0x1706 JUMPI TIMESTAMP PUSH1 0x64 CALLDATALOAD GT ISZERO PUSH2 0x16C2 JUMPI DUP4 ISZERO PUSH2 0x168B JUMPI DUP8 ISZERO PUSH2 0x164E JUMPI POP PUSH1 0x2 SLOAD SWAP7 PUSH1 0x0 NOT DUP9 EQ PUSH2 0x1638 JUMPI PUSH1 0x1 DUP9 ADD PUSH1 0x2 SSTORE PUSH1 0x40 MLOAD SWAP9 PUSH2 0x1004 DUP11 PUSH2 0x1931 JUMP JUMPDEST PUSH1 0x0 DUP11 MSTORE PUSH1 0x0 PUSH1 0x20 DUP12 ADD MSTORE PUSH1 0x0 PUSH1 0x40 DUP12 ADD MSTORE PUSH1 0x0 PUSH1 0x60 DUP12 ADD MSTORE PUSH1 0x0 PUSH1 0x80 DUP12 ADD MSTORE PUSH1 0x40 MLOAD SWAP10 PUSH2 0x1031 DUP12 PUSH2 0x194D JUMP JUMPDEST CALLVALUE DUP12 MSTORE PUSH1 0x1 PUSH1 0x1 PUSH1 0xA0 SHL SUB DUP9 DUP2 AND PUSH1 0x20 DUP14 ADD MSTORE CALLER PUSH1 0x40 DUP14 ADD MSTORE DUP10 AND PUSH1 0x60 DUP13 ADD MSTORE PUSH2 0x105C CALLDATASIZE DUP8 DUP10 PUSH2 0x19A8 JUMP JUMPDEST PUSH1 0x80 DUP13 ADD MSTORE PUSH1 0x64 CALLDATALOAD PUSH1 0xA0 DUP13 ADD MSTORE NUMBER PUSH1 0xC0 DUP13 ADD MSTORE PUSH2 0x107A CALLDATASIZE DUP4 DUP8 PUSH2 0x19A8 JUMP JUMPDEST PUSH1 0xE0 DUP13 ADD MSTORE PUSH2 0x108A CALLDATASIZE DUP5 DUP7 PUSH2 0x19A8 JUMP JUMPDEST PUSH2 0x100 DUP13 ADD MSTORE PUSH1 0x0 PUSH2 0x120 DUP13 ADD MSTORE PUSH2 0x140 DUP12 ADD MSTORE PUSH1 0x0 PUSH2 0x160 DUP12 ADD MSTORE PUSH1 0x0 PUSH2 0x180 DUP12 ADD MSTORE DUP9 PUSH1 0x0 MSTORE PUSH1 0x3 PUSH1 0x20 MSTORE PUSH1 0x40 PUSH1 0x0 KECCAK256 SWAP4 DUP11 MLOAD DUP6 SSTORE PUSH1 0x1 DUP6 ADD PUSH1 0x1 DUP1 PUSH1 0xA0 SHL SUB PUSH1 0x20 DUP14 ADD MLOAD AND SWAP1 PUSH1 0x1 PUSH1 0x1 PUSH1 0x60 SHL SUB PUSH1 0xA0 SHL SWAP2 DUP3 DUP3 SLOAD AND OR SWAP1 SSTORE PUSH1 0x2 DUP7 ADD DUP13 PUSH1 0x40 PUSH1 0x1 DUP1 PUSH1 0xA0 SHL SUB SWAP2 ADD MLOAD AND DUP3 DUP3 SLOAD AND OR SWAP1 SSTORE PUSH1 0x3 DUP7 ADD SWAP1 DUP13 PUSH1 0x60 PUSH1 0x1 DUP1 PUSH1 0xA0 SHL SUB SWAP2 ADD MLOAD AND SWAP1 DUP3 SLOAD AND OR SWAP1 SSTORE PUSH1 0x80 DUP12 ADD MLOAD DUP1 MLOAD SWAP1 PUSH8 0xFFFFFFFFFFFFFFFF DUP3 GT PUSH2 0x1482 JUMPI DUP2 SWAP1 PUSH2 0x113F PUSH1 0x4 DUP10 ADD SLOAD PUSH2 0x19DF JUMP JUMPDEST PUSH1 0x1F DUP2 GT PUSH2 0x15E5 JUMPI JUMPDEST POP PUSH1 0x20 SWAP1 PUSH1 0x1F DUP4 GT PUSH1 0x1 EQ PUSH2 0x1573 JUMPI PUSH1 0x0 SWAP3 PUSH2 0x1568 JUMPI JUMPDEST POP POP DUP2 PUSH1 0x1 SHL SWAP2 PUSH1 0x0 NOT SWAP1 PUSH1 0x3 SHL SHR NOT AND OR PUSH1 0x4 DUP7 ADD SSTORE JUMPDEST PUSH1 0xA0 DUP12 ADD MLOAD PUSH1 0x5 DUP7 ADD SSTORE PUSH1 0xC0 DUP12 ADD MLOAD PUSH1 0x6 DUP7 ADD SSTORE PUSH1 0xE0 DUP12 ADD MLOAD DUP1 MLOAD SWAP1 PUSH8 0xFFFFFFFFFFFFFFFF DUP3 GT PUSH2 0x1482 JUMPI DUP2 SWAP1 PUSH2 0x11B1 PUSH1 0x7 DUP10 ADD SLOAD PUSH2 0x19DF JUMP JUMPDEST PUSH1 0x1F DUP2 GT PUSH2 0x1515 JUMPI JUMPDEST POP PUSH1 0x20 SWAP1 PUSH1 0x1F DUP4 GT PUSH1 0x1 EQ PUSH2 0x14A3 JUMPI PUSH1 0x0 SWAP3 PUSH2 0x1498 JUMPI JUMPDEST POP POP DUP2 PUSH1 0x1 SHL SWAP2 PUSH1 0x0 NOT SWAP1 PUSH1 0x3 SHL SHR NOT AND OR PUSH1 0x7 DUP7 ADD SSTORE JUMPDEST PUSH2 0x100 DUP12 ADD MLOAD DUP1 MLOAD SWAP1 PUSH8 0xFFFFFFFFFFFFFFFF DUP3 GT PUSH2 0x1482 JUMPI DUP2 SWAP1 PUSH2 0x1210 PUSH1 0x8 DUP10 ADD SLOAD PUSH2 0x19DF JUMP JUMPDEST PUSH1 0x1F DUP2 GT PUSH2 0x142F JUMPI JUMPDEST POP PUSH1 0x20 SWAP1 PUSH1 0x1F DUP4 GT PUSH1 0x1 EQ PUSH2 0x13BD JUMPI PUSH1 0x0 SWAP3 PUSH2 0x13B2 JUMPI JUMPDEST POP POP DUP2 PUSH1 0x1 SHL SWAP2 PUSH1 0x0 NOT SWAP1 PUSH1 0x3 SHL SHR NOT AND OR PUSH1 0x8 DUP7 ADD SSTORE JUMPDEST PUSH2 0x120 DUP12 ADD MLOAD SWAP2 PUSH1 0x5 DUP4 LT ISZERO PUSH2 0x2A5 JUMPI PUSH2 0x1361 DUP12 SWAP9 PUSH32 0x7D94EB80DD12E87BD072CFA504C5CB51A379311AAEE1F4730E7A5BA63EEE7C00 SWAP9 PUSH2 0x133A PUSH1 0x20 SWAP16 SWAP7 PUSH1 0xFF PUSH2 0x180 PUSH2 0x136F SWAP10 PUSH1 0xC DUP15 PUSH2 0x137D SWAP16 PUSH1 0x9 ADD DUP6 NOT SWAP7 DUP7 DUP9 DUP4 SLOAD AND SWAP2 AND OR SWAP1 SSTORE PUSH1 0x80 PUSH1 0xA DUP3 ADD PUSH2 0x140 DUP6 ADD MLOAD SWAP1 PUSH2 0x12CC DUP3 MLOAD ISZERO ISZERO DUP3 SWAP1 PUSH1 0xFF DUP1 NOT DUP4 SLOAD AND SWAP2 ISZERO ISZERO AND OR SWAP1 SSTORE JUMP JUMPDEST PUSH1 0x20 DUP3 ADD MLOAD ISZERO ISZERO DUP2 SLOAD PUSH3 0xFF0000 PUSH1 0x40 DUP6 ADD MLOAD ISZERO ISZERO PUSH1 0x10 SHL AND SWAP1 PUSH2 0xFF00 PUSH4 0xFF000000 PUSH1 0x60 DUP8 ADD MLOAD ISZERO ISZERO PUSH1 0x18 SHL AND SWAP4 PUSH1 0x8 SHL AND SWAP1 PUSH4 0xFFFFFF00 NOT AND OR OR OR SWAP1 SSTORE ADD MLOAD PUSH1 0xB DUP3 ADD SSTORE ADD SWAP4 DUP4 PUSH2 0x160 DUP4 ADD MLOAD AND SWAP1 DUP6 SLOAD AND OR DUP5 SSTORE ADD MLOAD AND PUSH2 0xFF00 DUP3 SLOAD SWAP2 PUSH1 0x8 SHL AND SWAP1 PUSH2 0xFF00 NOT AND OR SWAP1 SSTORE JUMP JUMPDEST PUSH1 0x40 DUP1 MLOAD PUSH1 0x1 PUSH1 0x1 PUSH1 0xA0 SHL SUB SWAP1 SWAP15 AND DUP15 MSTORE CALLVALUE PUSH1 0x20 DUP16 ADD MSTORE PUSH1 0xC0 SWAP1 DUP15 ADD DUP2 SWAP1 MSTORE DUP14 ADD SWAP2 PUSH2 0x1A19 JUMP JUMPDEST SWAP2 DUP11 DUP4 SUB PUSH1 0x60 DUP13 ADD MSTORE PUSH2 0x1A19 JUMP JUMPDEST SWAP2 DUP8 DUP4 SUB PUSH1 0x80 DUP10 ADD MSTORE PUSH2 0x1A19 JUMP JUMPDEST PUSH1 0x64 CALLDATALOAD PUSH1 0xA0 DUP7 ADD MSTORE PUSH1 0x1 PUSH1 0x1 PUSH1 0xA0 SHL SUB SWAP1 SWAP4 AND SWAP4 CALLER SWAP4 DUP2 SWAP1 SUB SWAP1 LOG4 PUSH1 0x1 PUSH1 0x0 DUP1 MLOAD PUSH1 0x20 PUSH2 0x1F50 DUP4 CODECOPY DUP2 MLOAD SWAP2 MSTORE SSTORE PUSH1 0x40 MLOAD SWAP1 DUP2 MSTORE RETURN JUMPDEST ADD MLOAD SWAP1 POP DUP14 DUP1 PUSH2 0x1230 JUMP JUMPDEST SWAP3 POP PUSH1 0x8 DUP9 ADD PUSH1 0x0 MSTORE PUSH1 0x20 PUSH1 0x0 KECCAK256 SWAP1 PUSH1 0x0 SWAP4 JUMPDEST PUSH1 0x1F NOT DUP5 AND DUP6 LT PUSH2 0x1414 JUMPI PUSH1 0x1 SWAP5 POP DUP4 PUSH1 0x1F NOT DUP2 AND LT PUSH2 0x13FB JUMPI JUMPDEST POP POP POP DUP2 SHL ADD PUSH1 0x8 DUP7 ADD SSTORE PUSH2 0x1248 JUMP JUMPDEST ADD MLOAD PUSH1 0x0 NOT PUSH1 0xF8 DUP5 PUSH1 0x3 SHL AND SHR NOT AND SWAP1 SSTORE DUP14 DUP1 DUP1 PUSH2 0x13EB JUMP JUMPDEST DUP2 DUP2 ADD MLOAD DUP4 SSTORE PUSH1 0x20 SWAP5 DUP6 ADD SWAP5 PUSH1 0x1 SWAP1 SWAP4 ADD SWAP3 SWAP1 SWAP2 ADD SWAP1 PUSH2 0x13D0 JUMP JUMPDEST SWAP1 SWAP2 POP PUSH1 0x8 DUP9 ADD PUSH1 0x0 MSTORE PUSH1 0x20 PUSH1 0x0 KECCAK256 PUSH1 0x1F DUP5 ADD PUSH1 0x5 SHR DUP2 ADD PUSH1 0x20 DUP6 LT PUSH2 0x147B JUMPI JUMPDEST SWAP1 DUP5 SWAP4 SWAP3 SWAP2 JUMPDEST PUSH1 0x1F DUP4 ADD PUSH1 0x5 SHR DUP3 ADD DUP2 LT PUSH2 0x146C JUMPI POP POP PUSH2 0x1219 JUMP JUMPDEST PUSH1 0x0 DUP2 SSTORE DUP6 SWAP5 POP PUSH1 0x1 ADD PUSH2 0x1456 JUMP JUMPDEST POP DUP1 PUSH2 0x1450 JUMP JUMPDEST PUSH4 0x4E487B71 PUSH1 0xE0 SHL PUSH1 0x0 MSTORE PUSH1 0x41 PUSH1 0x4 MSTORE PUSH1 0x24 PUSH1 0x0 REVERT JUMPDEST ADD MLOAD SWAP1 POP DUP14 DUP1 PUSH2 0x11D1 JUMP JUMPDEST SWAP3 POP PUSH1 0x7 DUP9 ADD PUSH1 0x0 MSTORE PUSH1 0x20 PUSH1 0x0 KECCAK256 SWAP1 PUSH1 0x0 SWAP4 JUMPDEST PUSH1 0x1F NOT DUP5 AND DUP6 LT PUSH2 0x14FA JUMPI PUSH1 0x1 SWAP5 POP DUP4 PUSH1 0x1F NOT DUP2 AND LT PUSH2 0x14E1 JUMPI JUMPDEST POP POP POP DUP2 SHL ADD PUSH1 0x7 DUP7 ADD SSTORE PUSH2 0x11E9 JUMP JUMPDEST ADD MLOAD PUSH1 0x0 NOT PUSH1 0xF8 DUP5 PUSH1 0x3 SHL AND SHR NOT AND SWAP1 SSTORE DUP14 DUP1 DUP1 PUSH2 0x14D1 JUMP JUMPDEST DUP2 DUP2 ADD MLOAD DUP4 SSTORE PUSH1 0x20 SWAP5 DUP6 ADD SWAP5 PUSH1 0x1 SWAP1 SWAP4 ADD SWAP3 SWAP1 SWAP2 ADD SWAP1 PUSH2 0x14B6 JUMP JUMPDEST SWAP1 SWAP2 POP PUSH1 0x7 DUP9 ADD PUSH1 0x0 MSTORE PUSH1 0x20 PUSH1 0x0 KECCAK256 PUSH1 0x1F DUP5 ADD PUSH1 0x5 SHR DUP2 ADD PUSH1 0x20 DUP6 LT PUSH2 0x1561 JUMPI JUMPDEST SWAP1 DUP5 SWAP4 SWAP3 SWAP2 JUMPDEST PUSH1 0x1F DUP4 ADD PUSH1 0x5 SHR DUP3 ADD DUP2 LT PUSH2 0x1552 JUMPI POP POP PUSH2 0x11BA JUMP JUMPDEST PUSH1 0x0 DUP2 SSTORE DUP6 SWAP5 POP PUSH1 0x1 ADD PUSH2 0x153C JUMP JUMPDEST POP DUP1 PUSH2 0x1536 JUMP JUMPDEST ADD MLOAD SWAP1 POP DUP14 DUP1 PUSH2 0x115F JUMP JUMPDEST SWAP3 POP PUSH1 0x4 DUP9 ADD PUSH1 0x0 MSTORE PUSH1 0x20 PUSH1 0x0 KECCAK256 SWAP1 PUSH1 0x0 SWAP4 JUMPDEST PUSH1 0x1F NOT DUP5 AND DUP6 LT PUSH2 0x15CA JUMPI PUSH1 0x1 SWAP5 POP DUP4 PUSH1 0x1F NOT DUP2 AND LT PUSH2 0x15B1 JUMPI JUMPDEST POP POP POP DUP2 SHL ADD PUSH1 0x4 DUP7 ADD SSTORE PUSH2 0x1177 JUMP JUMPDEST ADD MLOAD PUSH1 0x0 NOT PUSH1 0xF8 DUP5 PUSH1 0x3 SHL AND SHR NOT AND SWAP1 SSTORE DUP14 DUP1 DUP1 PUSH2 0x15A1 JUMP JUMPDEST DUP2 DUP2 ADD MLOAD DUP4 SSTORE PUSH1 0x20 SWAP5 DUP6 ADD SWAP5 PUSH1 0x1 SWAP1 SWAP4 ADD SWAP3 SWAP1 SWAP2 ADD SWAP1 PUSH2 0x1586 JUMP JUMPDEST SWAP1 SWAP2 POP PUSH1 0x4 DUP9 ADD PUSH1 0x0 MSTORE PUSH1 0x20 PUSH1 0x0 KECCAK256 PUSH1 0x1F DUP5 ADD PUSH1 0x5 SHR DUP2 ADD PUSH1 0x20 DUP6 LT PUSH2 0x1631 JUMPI JUMPDEST SWAP1 DUP5 SWAP4 SWAP3 SWAP2 JUMPDEST PUSH1 0x1F DUP4 ADD PUSH1 0x5 SHR DUP3 ADD DUP2 LT PUSH2 0x1622 JUMPI POP POP PUSH2 0x1148 JUMP JUMPDEST PUSH1 0x0 DUP2 SSTORE DUP6 SWAP5 POP PUSH1 0x1 ADD PUSH2 0x160C JUMP JUMPDEST POP DUP1 PUSH2 0x1606 JUMP JUMPDEST PUSH4 0x4E487B71 PUSH1 0xE0 SHL PUSH1 0x0 MSTORE PUSH1 0x11 PUSH1 0x4 MSTORE PUSH1 0x24 PUSH1 0x0 REVERT JUMPDEST PUSH1 0x64 SWAP1 PUSH22 0x18DBDB9D185A5B995C881C9959881C995C5D5A5C9959 PUSH1 0x52 SHL PUSH1 0x40 MLOAD SWAP2 PUSH3 0x461BCD PUSH1 0xE5 SHL DUP4 MSTORE PUSH1 0x20 PUSH1 0x4 DUP5 ADD MSTORE PUSH1 0x16 PUSH1 0x24 DUP5 ADD MSTORE DUP3 ADD MSTORE REVERT JUMPDEST PUSH1 0x64 SWAP1 PUSH16 0x1950930810D251081C995C5D5A5C9959 PUSH1 0x82 SHL PUSH1 0x40 MLOAD SWAP2 PUSH3 0x461BCD PUSH1 0xE5 SHL DUP4 MSTORE PUSH1 0x20 PUSH1 0x4 DUP5 ADD MSTORE PUSH1 0x10 PUSH1 0x24 DUP5 ADD MSTORE DUP3 ADD MSTORE REVERT JUMPDEST PUSH1 0x64 SWAP1 PUSH32 0x646561646C696E65206D75737420626520667574757265000000000000000000 PUSH1 0x40 MLOAD SWAP2 PUSH3 0x461BCD PUSH1 0xE5 SHL DUP4 MSTORE PUSH1 0x20 PUSH1 0x4 DUP5 ADD MSTORE PUSH1 0x17 PUSH1 0x24 DUP5 ADD MSTORE DUP3 ADD MSTORE REVERT JUMPDEST PUSH1 0x64 SWAP1 PUSH20 0x61726269746572207A65726F2061646472657373 PUSH1 0x60 SHL PUSH1 0x40 MLOAD SWAP2 PUSH3 0x461BCD PUSH1 0xE5 SHL DUP4 MSTORE PUSH1 0x20 PUSH1 0x4 DUP5 ADD MSTORE PUSH1 0x14 PUSH1 0x24 DUP5 ADD MSTORE DUP3 ADD MSTORE REVERT JUMPDEST PUSH1 0x64 SWAP1 PUSH21 0x6578706F72746572207A65726F2061646472657373 PUSH1 0x58 SHL PUSH1 0x40 MLOAD SWAP2 PUSH3 0x461BCD PUSH1 0xE5 SHL DUP4 MSTORE PUSH1 0x20 PUSH1 0x4 DUP5 ADD MSTORE PUSH1 0x15 PUSH1 0x24 DUP5 ADD MSTORE DUP3 ADD MSTORE REVERT JUMPDEST PUSH1 0x64 SWAP1 PUSH21 0x195CD8DC9BDDC81D985B1D59481C995C5D5A5C9959 PUSH1 0x5A SHL PUSH1 0x40 MLOAD SWAP2 PUSH3 0x461BCD PUSH1 0xE5 SHL DUP4 MSTORE PUSH1 0x20 PUSH1 0x4 DUP5 ADD MSTORE PUSH1 0x15 PUSH1 0x24 DUP5 ADD MSTORE DUP3 ADD MSTORE REVERT JUMPDEST CALLVALUE PUSH2 0x179 JUMPI PUSH1 0x20 CALLDATASIZE PUSH1 0x3 NOT ADD SLT PUSH2 0x179 JUMPI PUSH1 0x4 CALLDATALOAD PUSH1 0x0 DUP2 DUP2 MSTORE PUSH1 0x3 PUSH1 0x20 MSTORE PUSH1 0x40 SWAP1 KECCAK256 PUSH1 0x2 ADD SLOAD PUSH2 0x17F3 SWAP1 PUSH1 0x1 PUSH1 0x1 PUSH1 0xA0 SHL SUB AND ISZERO ISZERO PUSH2 0x1A8B JUMP JUMPDEST PUSH1 0x0 MSTORE PUSH1 0x3 PUSH1 0x20 MSTORE PUSH1 0x20 PUSH2 0x180A PUSH1 0x40 PUSH1 0x0 KECCAK256 PUSH2 0x1E92 JUMP JUMPDEST PUSH1 0x40 MLOAD SWAP1 ISZERO ISZERO DUP2 MSTORE RETURN JUMPDEST CALLVALUE PUSH2 0x179 JUMPI PUSH1 0x40 CALLDATASIZE PUSH1 0x3 NOT ADD SLT PUSH2 0x179 JUMPI PUSH1 0x20 SWAP1 PUSH2 0x1830 PUSH2 0x185C JUMP JUMPDEST PUSH1 0x4 CALLDATALOAD PUSH1 0x0 MSTORE PUSH1 0x4 DUP4 MSTORE PUSH1 0x40 PUSH1 0x0 KECCAK256 SWAP1 PUSH1 0x1 DUP1 PUSH1 0xA0 SHL SUB AND PUSH1 0x0 MSTORE DUP3 MSTORE PUSH1 0xFF PUSH1 0x40 PUSH1 0x0 KECCAK256 SLOAD AND ISZERO ISZERO DUP2 MSTORE RETURN JUMPDEST PUSH1 0x24 CALLDATALOAD SWAP1 PUSH1 0x1 PUSH1 0x1 PUSH1 0xA0 SHL SUB DUP3 AND DUP3 SUB PUSH2 0x179 JUMPI JUMP JUMPDEST PUSH1 0x4 CALLDATALOAD SWAP1 PUSH1 0x1 PUSH1 0x1 PUSH1 0xA0 SHL SUB DUP3 AND DUP3 SUB PUSH2 0x179 JUMPI JUMP JUMPDEST SWAP2 DUP2 PUSH1 0x1F DUP5 ADD SLT ISZERO PUSH2 0x179 JUMPI DUP3 CALLDATALOAD SWAP2 PUSH8 0xFFFFFFFFFFFFFFFF DUP4 GT PUSH2 0x179 JUMPI PUSH1 0x20 DUP4 DUP2 DUP7 ADD SWAP6 ADD ADD GT PUSH2 0x179 JUMPI JUMP JUMPDEST SWAP2 SWAP1 DUP3 MLOAD SWAP3 DUP4 DUP3 MSTORE PUSH1 0x0 JUMPDEST DUP5 DUP2 LT PUSH2 0x18E2 JUMPI POP POP DUP3 PUSH1 0x0 PUSH1 0x20 DUP1 SWAP5 SWAP6 DUP5 ADD ADD MSTORE PUSH1 0x1F DUP1 NOT SWAP2 ADD AND ADD ADD SWAP1 JUMP JUMPDEST PUSH1 0x20 DUP2 DUP4 ADD DUP2 ADD MLOAD DUP5 DUP4 ADD DUP3 ADD MSTORE ADD PUSH2 0x18C1 JUMP JUMPDEST PUSH1 0x24 CALLDATALOAD SWAP1 DUP2 ISZERO ISZERO DUP3 SUB PUSH2 0x179 JUMPI JUMP JUMPDEST PUSH1 0x0 SLOAD PUSH1 0x1 PUSH1 0x1 PUSH1 0xA0 SHL SUB AND CALLER SUB PUSH2 0x1919 JUMPI JUMP JUMPDEST PUSH1 0x40 MLOAD PUSH4 0x118CDAA7 PUSH1 0xE0 SHL DUP2 MSTORE CALLER PUSH1 0x4 DUP3 ADD MSTORE PUSH1 0x24 SWAP1 REVERT JUMPDEST PUSH1 0xA0 DUP2 ADD SWAP1 DUP2 LT PUSH8 0xFFFFFFFFFFFFFFFF DUP3 GT OR PUSH2 0x1482 JUMPI PUSH1 0x40 MSTORE JUMP JUMPDEST PUSH2 0x1A0 DUP2 ADD SWAP1 DUP2 LT PUSH8 0xFFFFFFFFFFFFFFFF DUP3 GT OR PUSH2 0x1482 JUMPI PUSH1 0x40 MSTORE JUMP JUMPDEST SWAP1 PUSH1 0x1F DUP1 NOT SWAP2 ADD AND DUP2 ADD SWAP1 DUP2 LT PUSH8 0xFFFFFFFFFFFFFFFF DUP3 GT OR PUSH2 0x1482 JUMPI PUSH1 0x40 MSTORE JUMP JUMPDEST PUSH8 0xFFFFFFFFFFFFFFFF DUP2 GT PUSH2 0x1482 JUMPI PUSH1 0x1F ADD PUSH1 0x1F NOT AND PUSH1 0x20 ADD SWAP1 JUMP JUMPDEST SWAP3 SWAP2 SWAP3 PUSH2 0x19B4 DUP3 PUSH2 0x198C JUMP JUMPDEST SWAP2 PUSH2 0x19C2 PUSH1 0x40 MLOAD SWAP4 DUP5 PUSH2 0x196A JUMP JUMPDEST DUP3 SWAP5 DUP2 DUP5 MSTORE DUP2 DUP4 ADD GT PUSH2 0x179 JUMPI DUP3 DUP2 PUSH1 0x20 SWAP4 DUP5 PUSH1 0x0 SWAP7 ADD CALLDATACOPY ADD ADD MSTORE JUMP JUMPDEST SWAP1 PUSH1 0x1 DUP3 DUP2 SHR SWAP3 AND DUP1 ISZERO PUSH2 0x1A0F JUMPI JUMPDEST PUSH1 0x20 DUP4 LT EQ PUSH2 0x19F9 JUMPI JUMP JUMPDEST PUSH4 0x4E487B71 PUSH1 0xE0 SHL PUSH1 0x0 MSTORE PUSH1 0x22 PUSH1 0x4 MSTORE PUSH1 0x24 PUSH1 0x0 REVERT JUMPDEST SWAP2 PUSH1 0x7F AND SWAP2 PUSH2 0x19EE JUMP JUMPDEST SWAP1 DUP1 PUSH1 0x20 SWAP4 SWAP3 DUP2 DUP5 MSTORE DUP5 DUP5 ADD CALLDATACOPY PUSH1 0x0 DUP3 DUP3 ADD DUP5 ADD MSTORE PUSH1 0x1F ADD PUSH1 0x1F NOT AND ADD ADD SWAP1 JUMP JUMPDEST PUSH1 0xFF PUSH1 0x0 SLOAD PUSH1 0xA0 SHR AND PUSH2 0x1A49 JUMPI JUMP JUMPDEST PUSH1 0x40 MLOAD PUSH4 0xD93C0665 PUSH1 0xE0 SHL DUP2 MSTORE PUSH1 0x4 SWAP1 REVERT JUMPDEST PUSH1 0x0 DUP1 MLOAD PUSH1 0x20 PUSH2 0x1F50 DUP4 CODECOPY DUP2 MLOAD SWAP2 MSTORE PUSH1 0x2 DUP2 SLOAD EQ PUSH2 0x1A79 JUMPI PUSH1 0x2 SWAP1 SSTORE JUMP JUMPDEST PUSH1 0x40 MLOAD PUSH4 0x3EE5AEB5 PUSH1 0xE0 SHL DUP2 MSTORE PUSH1 0x4 SWAP1 REVERT JUMPDEST ISZERO PUSH2 0x1A92 JUMPI JUMP JUMPDEST PUSH1 0x40 MLOAD PUSH3 0x461BCD PUSH1 0xE5 SHL DUP2 MSTORE PUSH1 0x20 PUSH1 0x4 DUP3 ADD MSTORE PUSH1 0x10 PUSH1 0x24 DUP3 ADD MSTORE PUSH16 0x195CD8DC9BDDC81B9BDD08199BDD5B99 PUSH1 0x82 SHL PUSH1 0x44 DUP3 ADD MSTORE PUSH1 0x64 SWAP1 REVERT JUMPDEST ISZERO PUSH2 0x1AD1 JUMPI JUMP JUMPDEST PUSH1 0x40 MLOAD PUSH3 0x461BCD PUSH1 0xE5 SHL DUP2 MSTORE PUSH1 0x20 PUSH1 0x4 DUP3 ADD MSTORE PUSH1 0x18 PUSH1 0x24 DUP3 ADD MSTORE PUSH32 0x657363726F7720616C726561647920636F6D706C657465640000000000000000 PUSH1 0x44 DUP3 ADD MSTORE PUSH1 0x64 SWAP1 REVERT JUMPDEST ISZERO PUSH2 0x1B1D JUMPI JUMP JUMPDEST PUSH1 0x40 MLOAD PUSH3 0x461BCD PUSH1 0xE5 SHL DUP2 MSTORE PUSH1 0x20 PUSH1 0x4 DUP3 ADD MSTORE PUSH1 0x17 PUSH1 0x24 DUP3 ADD MSTORE PUSH32 0x657363726F7720616C726561647920726566756E646564000000000000000000 PUSH1 0x44 DUP3 ADD MSTORE PUSH1 0x64 SWAP1 REVERT JUMPDEST ISZERO PUSH2 0x1B69 JUMPI JUMP JUMPDEST PUSH1 0x40 MLOAD PUSH3 0x461BCD PUSH1 0xE5 SHL DUP2 MSTORE PUSH1 0x20 PUSH1 0x4 DUP3 ADD MSTORE PUSH1 0x10 PUSH1 0x24 DUP3 ADD MSTORE PUSH16 0x6E6F7420657363726F77207061727479 PUSH1 0x80 SHL PUSH1 0x44 DUP3 ADD MSTORE PUSH1 0x64 SWAP1 REVERT JUMPDEST PUSH1 0xFF PUSH1 0x1 SWAP2 AND ADD SWAP1 PUSH1 0xFF DUP3 GT PUSH2 0x1638 JUMPI JUMP JUMPDEST SWAP1 PUSH1 0x0 SWAP3 SWAP2 DUP1 SLOAD SWAP2 PUSH2 0x1BC4 DUP4 PUSH2 0x19DF JUMP JUMPDEST SWAP2 DUP3 DUP3 MSTORE PUSH1 0x1 SWAP4 DUP5 DUP2 AND SWAP1 DUP2 PUSH1 0x0 EQ PUSH2 0x1C26 JUMPI POP PUSH1 0x1 EQ PUSH2 0x1BE6 JUMPI JUMPDEST POP POP POP POP JUMP JUMPDEST SWAP1 SWAP2 SWAP4 SWAP5 POP PUSH1 0x0 MSTORE PUSH1 0x20 SWAP3 DUP4 PUSH1 0x0 KECCAK256 SWAP3 DUP5 PUSH1 0x0 SWAP5 JUMPDEST DUP4 DUP7 LT PUSH2 0x1C12 JUMPI POP POP POP POP ADD ADD SWAP1 CODESIZE DUP1 DUP1 DUP1 PUSH2 0x1BE0 JUMP JUMPDEST DUP1 SLOAD DUP6 DUP8 ADD DUP4 ADD MSTORE SWAP5 ADD SWAP4 DUP6 SWAP1 DUP3 ADD PUSH2 0x1BFB JUMP JUMPDEST SWAP3 SWAP5 POP POP POP PUSH1 0x20 SWAP4 SWAP5 POP PUSH1 0xFF NOT AND DUP4 DUP4 ADD MSTORE ISZERO ISZERO PUSH1 0x5 SHL ADD ADD SWAP1 CODESIZE DUP1 DUP1 DUP1 PUSH2 0x1BE0 JUMP JUMPDEST RETURNDATASIZE ISZERO PUSH2 0x1C74 JUMPI RETURNDATASIZE SWAP1 PUSH2 0x1C5A DUP3 PUSH2 0x198C JUMP JUMPDEST SWAP2 PUSH2 0x1C68 PUSH1 0x40 MLOAD SWAP4 DUP5 PUSH2 0x196A JUMP JUMPDEST DUP3 MSTORE RETURNDATASIZE PUSH1 0x0 PUSH1 0x20 DUP5 ADD RETURNDATACOPY JUMP JUMPDEST PUSH1 0x60 SWAP1 JUMP JUMPDEST PUSH1 0x0 SWAP1 DUP1 DUP3 MSTORE PUSH1 0x3 PUSH1 0x20 MSTORE PUSH1 0x40 DUP3 KECCAK256 SWAP2 PUSH1 0x9 DUP4 ADD SWAP3 DUP4 SLOAD SWAP4 PUSH1 0xFF DUP6 AND PUSH1 0x5 DUP2 LT ISZERO PUSH2 0x1D9D JUMPI PUSH1 0x3 DUP2 PUSH2 0xCFE PUSH1 0x2 PUSH2 0x1CB1 SWAP5 EQ ISZERO PUSH2 0x1ACA JUMP JUMPDEST PUSH1 0x2 DUP3 SLOAD SWAP6 DUP5 DUP5 SSTORE PUSH1 0xFF NOT AND OR SWAP1 SSTORE PUSH1 0x1 DUP2 ADD SWAP1 PUSH1 0x1 DUP1 PUSH1 0xA0 SHL SUB SWAP3 DUP1 DUP1 DUP1 DUP9 DUP8 DUP8 SLOAD AND GAS CALL PUSH2 0x1CDF PUSH2 0x1C49 JUMP JUMPDEST POP ISZERO PUSH2 0x1D58 JUMPI PUSH1 0x20 SWAP5 DUP5 PUSH32 0x6E3C6096795C8298A218B2CFB8BDE42726FF7C9A3D27B4D3BA41AB7F74FEB5FB PUSH32 0xBF3252966F322AE253FC5B3CD0805AD081276783C8537A30CD4BA5020F3E212B SWAP6 PUSH2 0x1D53 SWAP6 SLOAD AND SWAP8 DUP9 SWAP4 PUSH1 0x40 MLOAD SWAP1 DUP2 MSTORE LOG3 PUSH1 0x40 MLOAD SWAP2 DUP3 SWAP2 PUSH1 0x20 DUP4 MSTORE PUSH1 0x4 PUSH1 0x20 DUP5 ADD SWAP2 ADD PUSH2 0x1BB3 JUMP JUMPDEST SUB SWAP1 LOG3 JUMP JUMPDEST PUSH1 0x40 MLOAD PUSH3 0x461BCD PUSH1 0xE5 SHL DUP2 MSTORE PUSH1 0x20 PUSH1 0x4 DUP3 ADD MSTORE PUSH1 0x18 PUSH1 0x24 DUP3 ADD MSTORE PUSH32 0x6578706F72746572207472616E73666572206661696C65640000000000000000 PUSH1 0x44 DUP3 ADD MSTORE PUSH1 0x64 SWAP1 REVERT JUMPDEST PUSH4 0x4E487B71 PUSH1 0xE0 SHL DUP5 MSTORE PUSH1 0x21 PUSH1 0x4 MSTORE PUSH1 0x24 DUP5 REVERT JUMPDEST PUSH1 0x0 SWAP1 DUP1 DUP3 MSTORE PUSH1 0x3 PUSH1 0x20 MSTORE PUSH1 0x40 DUP3 KECCAK256 SWAP2 PUSH1 0x9 DUP4 ADD SWAP3 DUP4 SLOAD SWAP4 PUSH1 0xFF DUP6 AND PUSH1 0x5 DUP2 LT ISZERO PUSH2 0x1D9D JUMPI SWAP1 PUSH2 0x1DEC PUSH1 0x3 DUP4 PUSH2 0xCFE PUSH1 0x2 DUP1 SWAP8 SWAP7 EQ ISZERO PUSH2 0x1ACA JUMP JUMPDEST PUSH1 0x3 DUP3 SLOAD SWAP7 DUP6 DUP5 SSTORE PUSH1 0xFF NOT AND OR SWAP1 SSTORE ADD PUSH1 0x1 DUP1 PUSH1 0xA0 SHL SUB SWAP2 DUP1 DUP1 DUP1 DUP8 DUP7 DUP7 SLOAD AND GAS CALL PUSH2 0x1E16 PUSH2 0x1C49 JUMP JUMPDEST POP ISZERO PUSH2 0x1E4D JUMPI PUSH32 0x7CA5472B7EA78C2C0141C5A12EE6D170CF4CE8ED06BE3D22C8252DDFC7A6A2C4 SWAP2 PUSH1 0x20 SWAP2 SLOAD AND SWAP4 PUSH1 0x40 MLOAD SWAP1 DUP2 MSTORE LOG3 JUMP JUMPDEST PUSH1 0x40 MLOAD PUSH3 0x461BCD PUSH1 0xE5 SHL DUP2 MSTORE PUSH1 0x20 PUSH1 0x4 DUP3 ADD MSTORE PUSH1 0x18 PUSH1 0x24 DUP3 ADD MSTORE PUSH32 0x696D706F72746572207472616E73666572206661696C65640000000000000000 PUSH1 0x44 DUP3 ADD MSTORE PUSH1 0x64 SWAP1 REVERT JUMPDEST PUSH2 0x1E9B DUP2 PUSH2 0x1EBC JUMP JUMPDEST SWAP1 DUP2 PUSH2 0x1EA5 JUMPI POP SWAP1 JUMP JUMPDEST PUSH1 0x6 SWAP2 POP ADD SLOAD PUSH1 0x80 DUP2 ADD DUP1 SWAP2 GT PUSH2 0x1638 JUMPI NUMBER LT ISZERO SWAP1 JUMP JUMPDEST PUSH1 0xA ADD SLOAD PUSH1 0xFF DUP2 AND SWAP1 DUP2 PUSH2 0x1EF4 JUMPI JUMPDEST DUP2 PUSH2 0x1EE5 JUMPI JUMPDEST DUP2 PUSH2 0x1EDA JUMPI POP SWAP1 JUMP JUMPDEST PUSH1 0xFF SWAP2 POP PUSH1 0x18 SHR AND SWAP1 JUMP JUMPDEST SWAP1 POP PUSH1 0xFF DUP2 PUSH1 0x10 SHR AND SWAP1 PUSH2 0x1ED1 JUMP JUMPDEST SWAP1 POP PUSH1 0xFF DUP2 PUSH1 0x8 SHR AND SWAP1 PUSH2 0x1ECB JUMP JUMPDEST PUSH1 0x2 DUP2 ADD SLOAD PUSH1 0x1 PUSH1 0x1 PUSH1 0xA0 SHL SUB SWAP3 DUP4 AND SWAP1 DUP4 AND DUP2 EQ SWAP3 SWAP1 SWAP2 DUP4 ISZERO PUSH2 0x1F3F JUMPI JUMPDEST DUP4 ISZERO PUSH2 0x1F2F JUMPI JUMPDEST POP POP POP SWAP1 JUMP JUMPDEST PUSH1 0x3 ADD SLOAD AND EQ SWAP1 POP CODESIZE DUP1 DUP1 PUSH2 0x1F29 JUMP JUMPDEST PUSH1 0x1 DUP2 ADD SLOAD DUP3 AND DUP4 EQ SWAP4 POP PUSH2 0x1F22 JUMP INVALID SWAP12 PUSH24 0x9B17422D0DF92223018B32B4D1FA46E071723D6817E2486D STOP EXTCODESIZE 0xEC 0xC5 PUSH0 STOP LOG2 PUSH5 0x6970667358 0x22 SLT KECCAK256 0xC8 0xB8 EXTCODECOPY 0xB9 0x2B 0xE9 PUSH28 0xEEB1635F1C056E18CF95FC084C42A0ED866328BCC9F7054A9B64736F PUSH13 0x63430008140033000000000000 "},"methodIdentifiers":{"REQUIRED_CONFIRMATIONS()":"587d8127","claimRefund(uint256)":"5b7baf64","createEscrow(address,address,string,uint256,string,string)":"177f318f","disputeVoted(uint256,address)":"08fa40f9","getEscrow(uint256)":"7d19e596","isReleaseEligible(uint256)":"1499d0d3","nextEscrowId()":"89cb29dd","openDispute(uint256)":"27d00fb0","owner()":"8da5cb5b","pause()":"8456cb59","paused()":"5c975abb","releaseEscrow(uint256)":"ed653164","renounceOwnership()":"715018a6","setTrustedOracle(address)":"b22bd298","submitVerification(uint256,bool,bool,bool,bool)":"ed455cc9","transferOwnership(address)":"f2fde38b","trustedOracle()":"e2048503","unpause()":"3f4ba83a","voteDisputeResolution(uint256,bool)":"db6ea084"}}}}}