{
  "_format": "hh-sol-artifact-1",
  "contractName": "SternEscrow",
  "sourceName": "contracts/SternEscrow.sol",
  "abi": [
    {
      "inputs": [
        {
          "internalType": "address",
          "name": "initialOwner",
          "type": "address"
        },
        {
          "internalType": "address[]",
          "name": "initialOracles",
          "type": "address[]"
        },
        {
          "internalType": "uint256",
          "name": "quorum",
          "type": "uint256"
        },
        {
          "internalType": "uint256",
          "name": "bondAmount",
          "type": "uint256"
        },
        {
          "internalType": "uint256",
          "name": "confirmations",
          "type": "uint256"
        }
      ],
      "stateMutability": "nonpayable",
      "type": "constructor"
    },
    {
      "inputs": [],
      "name": "EnforcedPause",
      "type": "error"
    },
    {
      "inputs": [],
      "name": "ExpectedPause",
      "type": "error"
    },
    {
      "inputs": [
        {
          "internalType": "address",
          "name": "owner",
          "type": "address"
        }
      ],
      "name": "OwnableInvalidOwner",
      "type": "error"
    },
    {
      "inputs": [
        {
          "internalType": "address",
          "name": "account",
          "type": "address"
        }
      ],
      "name": "OwnableUnauthorizedAccount",
      "type": "error"
    },
    {
      "inputs": [],
      "name": "ReentrancyGuardReentrantCall",
      "type": "error"
    },
    {
      "anonymous": false,
      "inputs": [
        {
          "indexed": true,
          "internalType": "uint256",
          "name": "escrowId",
          "type": "uint256"
        },
        {
          "indexed": true,
          "internalType": "address",
          "name": "oracle",
          "type": "address"
        },
        {
          "indexed": false,
          "internalType": "bool",
          "name": "vgmMatch",
          "type": "bool"
        },
        {
          "indexed": false,
          "internalType": "bool",
          "name": "aisDeparted",
          "type": "bool"
        },
        {
          "indexed": false,
          "internalType": "bool",
          "name": "ceisaApproved",
          "type": "bool"
        },
        {
          "indexed": false,
          "internalType": "bool",
          "name": "eblCidValid",
          "type": "bool"
        },
        {
          "indexed": false,
          "internalType": "bool",
          "name": "inspectionPassed",
          "type": "bool"
        }
      ],
      "name": "AttestationSubmitted",
      "type": "event"
    },
    {
      "anonymous": false,
      "inputs": [
        {
          "indexed": true,
          "internalType": "uint256",
          "name": "escrowId",
          "type": "uint256"
        },
        {
          "indexed": false,
          "internalType": "uint256",
          "name": "newDeadline",
          "type": "uint256"
        }
      ],
      "name": "DeadlineExtended",
      "type": "event"
    },
    {
      "anonymous": false,
      "inputs": [
        {
          "indexed": true,
          "internalType": "uint256",
          "name": "escrowId",
          "type": "uint256"
        },
        {
          "indexed": true,
          "internalType": "address",
          "name": "proposer",
          "type": "address"
        },
        {
          "indexed": false,
          "internalType": "uint256",
          "name": "newDeadline",
          "type": "uint256"
        }
      ],
      "name": "DeadlineExtensionProposed",
      "type": "event"
    },
    {
      "anonymous": false,
      "inputs": [
        {
          "indexed": true,
          "internalType": "uint256",
          "name": "escrowId",
          "type": "uint256"
        },
        {
          "indexed": true,
          "internalType": "address",
          "name": "openedBy",
          "type": "address"
        }
      ],
      "name": "DisputeOpened",
      "type": "event"
    },
    {
      "anonymous": false,
      "inputs": [
        {
          "indexed": true,
          "internalType": "uint256",
          "name": "escrowId",
          "type": "uint256"
        },
        {
          "indexed": false,
          "internalType": "bool",
          "name": "releasedToExporter",
          "type": "bool"
        }
      ],
      "name": "DisputeResolved",
      "type": "event"
    },
    {
      "anonymous": false,
      "inputs": [
        {
          "indexed": true,
          "internalType": "uint256",
          "name": "escrowId",
          "type": "uint256"
        },
        {
          "indexed": true,
          "internalType": "address",
          "name": "voter",
          "type": "address"
        },
        {
          "indexed": false,
          "internalType": "bool",
          "name": "releaseToExporter",
          "type": "bool"
        }
      ],
      "name": "DisputeVote",
      "type": "event"
    },
    {
      "anonymous": false,
      "inputs": [
        {
          "indexed": true,
          "internalType": "uint256",
          "name": "escrowId",
          "type": "uint256"
        },
        {
          "indexed": false,
          "internalType": "string",
          "name": "eBLCID",
          "type": "string"
        },
        {
          "indexed": true,
          "internalType": "address",
          "name": "newHolder",
          "type": "address"
        }
      ],
      "name": "EBLTransferred",
      "type": "event"
    },
    {
      "anonymous": false,
      "inputs": [
        {
          "indexed": true,
          "internalType": "uint256",
          "name": "escrowId",
          "type": "uint256"
        },
        {
          "indexed": true,
          "internalType": "address",
          "name": "importer",
          "type": "address"
        },
        {
          "indexed": true,
          "internalType": "address",
          "name": "exporter",
          "type": "address"
        },
        {
          "indexed": false,
          "internalType": "address",
          "name": "arbiter",
          "type": "address"
        },
        {
          "indexed": false,
          "internalType": "uint256",
          "name": "value",
          "type": "uint256"
        },
        {
          "indexed": false,
          "internalType": "string",
          "name": "eBLCID",
          "type": "string"
        },
        {
          "indexed": false,
          "internalType": "string",
          "name": "commodity",
          "type": "string"
        },
        {
          "indexed": false,
          "internalType": "string",
          "name": "containerRef",
          "type": "string"
        },
        {
          "indexed": false,
          "internalType": "uint256",
          "name": "deadline",
          "type": "uint256"
        }
      ],
      "name": "EscrowCreated",
      "type": "event"
    },
    {
      "anonymous": false,
      "inputs": [
        {
          "indexed": true,
          "internalType": "uint256",
          "name": "escrowId",
          "type": "uint256"
        },
        {
          "indexed": true,
          "internalType": "address",
          "name": "exporter",
          "type": "address"
        },
        {
          "indexed": false,
          "internalType": "uint256",
          "name": "amount",
          "type": "uint256"
        }
      ],
      "name": "FundsReleased",
      "type": "event"
    },
    {
      "anonymous": false,
      "inputs": [
        {
          "indexed": true,
          "internalType": "address",
          "name": "oracle",
          "type": "address"
        },
        {
          "indexed": false,
          "internalType": "uint256",
          "name": "amount",
          "type": "uint256"
        },
        {
          "indexed": false,
          "internalType": "uint256",
          "name": "totalBond",
          "type": "uint256"
        }
      ],
      "name": "OracleBonded",
      "type": "event"
    },
    {
      "anonymous": false,
      "inputs": [
        {
          "indexed": true,
          "internalType": "uint256",
          "name": "escrowId",
          "type": "uint256"
        },
        {
          "indexed": true,
          "internalType": "address",
          "name": "oracle",
          "type": "address"
        },
        {
          "indexed": false,
          "internalType": "uint256",
          "name": "amount",
          "type": "uint256"
        }
      ],
      "name": "OracleSlashed",
      "type": "event"
    },
    {
      "anonymous": false,
      "inputs": [
        {
          "indexed": true,
          "internalType": "uint256",
          "name": "escrowId",
          "type": "uint256"
        },
        {
          "indexed": false,
          "internalType": "bool",
          "name": "vgmMatch",
          "type": "bool"
        },
        {
          "indexed": false,
          "internalType": "bool",
          "name": "aisDeparted",
          "type": "bool"
        },
        {
          "indexed": false,
          "internalType": "bool",
          "name": "ceisaApproved",
          "type": "bool"
        },
        {
          "indexed": false,
          "internalType": "bool",
          "name": "eblCidValid",
          "type": "bool"
        },
        {
          "indexed": false,
          "internalType": "bool",
          "name": "inspectionPassed",
          "type": "bool"
        }
      ],
      "name": "OracleVerificationSubmitted",
      "type": "event"
    },
    {
      "anonymous": false,
      "inputs": [
        {
          "indexed": true,
          "internalType": "address",
          "name": "previousOwner",
          "type": "address"
        },
        {
          "indexed": true,
          "internalType": "address",
          "name": "newOwner",
          "type": "address"
        }
      ],
      "name": "OwnershipTransferred",
      "type": "event"
    },
    {
      "anonymous": false,
      "inputs": [
        {
          "indexed": false,
          "internalType": "address",
          "name": "account",
          "type": "address"
        }
      ],
      "name": "Paused",
      "type": "event"
    },
    {
      "anonymous": false,
      "inputs": [
        {
          "indexed": true,
          "internalType": "uint256",
          "name": "escrowId",
          "type": "uint256"
        },
        {
          "indexed": true,
          "internalType": "address",
          "name": "importer",
          "type": "address"
        },
        {
          "indexed": false,
          "internalType": "uint256",
          "name": "amount",
          "type": "uint256"
        }
      ],
      "name": "Refunded",
      "type": "event"
    },
    {
      "anonymous": false,
      "inputs": [
        {
          "indexed": true,
          "internalType": "address",
          "name": "to",
          "type": "address"
        },
        {
          "indexed": false,
          "internalType": "uint256",
          "name": "amount",
          "type": "uint256"
        }
      ],
      "name": "TreasuryWithdrawn",
      "type": "event"
    },
    {
      "anonymous": false,
      "inputs": [
        {
          "indexed": false,
          "internalType": "address",
          "name": "account",
          "type": "address"
        }
      ],
      "name": "Unpaused",
      "type": "event"
    },
    {
      "inputs": [],
      "name": "SLASH_BPS",
      "outputs": [
        {
          "internalType": "uint256",
          "name": "",
          "type": "uint256"
        }
      ],
      "stateMutability": "view",
      "type": "function"
    },
    {
      "inputs": [
        {
          "internalType": "uint256",
          "name": "escrowId",
          "type": "uint256"
        }
      ],
      "name": "approveDeadlineExtension",
      "outputs": [],
      "stateMutability": "nonpayable",
      "type": "function"
    },
    {
      "inputs": [
        {
          "internalType": "uint256",
          "name": "escrowId",
          "type": "uint256"
        }
      ],
      "name": "claimRefund",
      "outputs": [],
      "stateMutability": "nonpayable",
      "type": "function"
    },
    {
      "inputs": [
        {
          "internalType": "address payable",
          "name": "exporterAddress",
          "type": "address"
        },
        {
          "internalType": "address",
          "name": "arbiterAddress",
          "type": "address"
        },
        {
          "internalType": "string",
          "name": "eBLCID",
          "type": "string"
        },
        {
          "internalType": "uint256",
          "name": "deadline",
          "type": "uint256"
        },
        {
          "internalType": "string",
          "name": "commodity",
          "type": "string"
        },
        {
          "internalType": "string",
          "name": "containerRef",
          "type": "string"
        }
      ],
      "name": "createEscrow",
      "outputs": [
        {
          "internalType": "uint256",
          "name": "escrowId",
          "type": "uint256"
        }
      ],
      "stateMutability": "payable",
      "type": "function"
    },
    {
      "inputs": [
        {
          "internalType": "uint256",
          "name": "",
          "type": "uint256"
        },
        {
          "internalType": "address",
          "name": "",
          "type": "address"
        }
      ],
      "name": "disputeVoted",
      "outputs": [
        {
          "internalType": "bool",
          "name": "",
          "type": "bool"
        }
      ],
      "stateMutability": "view",
      "type": "function"
    },
    {
      "inputs": [
        {
          "internalType": "uint256",
          "name": "",
          "type": "uint256"
        }
      ],
      "name": "extensionProposer",
      "outputs": [
        {
          "internalType": "address",
          "name": "",
          "type": "address"
        }
      ],
      "stateMutability": "view",
      "type": "function"
    },
    {
      "inputs": [
        {
          "internalType": "uint256",
          "name": "escrowId",
          "type": "uint256"
        },
        {
          "internalType": "address",
          "name": "oracle",
          "type": "address"
        }
      ],
      "name": "getAttestation",
      "outputs": [
        {
          "components": [
            {
              "internalType": "bool",
              "name": "submitted",
              "type": "bool"
            },
            {
              "internalType": "bool",
              "name": "vgmMatch",
              "type": "bool"
            },
            {
              "internalType": "bool",
              "name": "aisDeparted",
              "type": "bool"
            },
            {
              "internalType": "bool",
              "name": "ceisaApproved",
              "type": "bool"
            },
            {
              "internalType": "bool",
              "name": "eblCidValid",
              "type": "bool"
            },
            {
              "internalType": "bool",
              "name": "inspectionPassed",
              "type": "bool"
            }
          ],
          "internalType": "struct SternEscrow.OracleAttestation",
          "name": "",
          "type": "tuple"
        }
      ],
      "stateMutability": "view",
      "type": "function"
    },
    {
      "inputs": [
        {
          "internalType": "uint256",
          "name": "escrowId",
          "type": "uint256"
        }
      ],
      "name": "getEscrow",
      "outputs": [
        {
          "components": [
            {
              "internalType": "uint256",
              "name": "contractValue",
              "type": "uint256"
            },
            {
              "internalType": "address payable",
              "name": "exporterAddress",
              "type": "address"
            },
            {
              "internalType": "address payable",
              "name": "importerAddress",
              "type": "address"
            },
            {
              "internalType": "address",
              "name": "arbiterAddress",
              "type": "address"
            },
            {
              "internalType": "string",
              "name": "eBLCID",
              "type": "string"
            },
            {
              "internalType": "uint256",
              "name": "deadline",
              "type": "uint256"
            },
            {
              "internalType": "uint256",
              "name": "createdBlock",
              "type": "uint256"
            },
            {
              "internalType": "string",
              "name": "commodity",
              "type": "string"
            },
            {
              "internalType": "string",
              "name": "containerRef",
              "type": "string"
            },
            {
              "internalType": "enum SternEscrow.State",
              "name": "state",
              "type": "uint8"
            },
            {
              "components": [
                {
                  "internalType": "bool",
                  "name": "vgmMatch",
                  "type": "bool"
                },
                {
                  "internalType": "bool",
                  "name": "aisDeparted",
                  "type": "bool"
                },
                {
                  "internalType": "bool",
                  "name": "ceisaApproved",
                  "type": "bool"
                },
                {
                  "internalType": "bool",
                  "name": "eblCidValid",
                  "type": "bool"
                },
                {
                  "internalType": "bool",
                  "name": "inspectionPassed",
                  "type": "bool"
                },
                {
                  "internalType": "uint256",
                  "name": "submittedAtBlock",
                  "type": "uint256"
                }
              ],
              "internalType": "struct SternEscrow.Verification",
              "name": "verification",
              "type": "tuple"
            },
            {
              "internalType": "uint8",
              "name": "releaseApprovals",
              "type": "uint8"
            },
            {
              "internalType": "uint8",
              "name": "refundApprovals",
              "type": "uint8"
            }
          ],
          "internalType": "struct SternEscrow.Escrow",
          "name": "",
          "type": "tuple"
        }
      ],
      "stateMutability": "view",
      "type": "function"
    },
    {
      "inputs": [],
      "name": "getOracles",
      "outputs": [
        {
          "internalType": "address[]",
          "name": "addrs",
          "type": "address[]"
        },
        {
          "internalType": "uint256[]",
          "name": "bonds",
          "type": "uint256[]"
        },
        {
          "internalType": "uint256[]",
          "name": "slashes",
          "type": "uint256[]"
        }
      ],
      "stateMutability": "view",
      "type": "function"
    },
    {
      "inputs": [
        {
          "internalType": "address",
          "name": "",
          "type": "address"
        }
      ],
      "name": "isOracle",
      "outputs": [
        {
          "internalType": "bool",
          "name": "",
          "type": "bool"
        }
      ],
      "stateMutability": "view",
      "type": "function"
    },
    {
      "inputs": [
        {
          "internalType": "uint256",
          "name": "escrowId",
          "type": "uint256"
        }
      ],
      "name": "isReleaseEligible",
      "outputs": [
        {
          "internalType": "bool",
          "name": "",
          "type": "bool"
        }
      ],
      "stateMutability": "view",
      "type": "function"
    },
    {
      "inputs": [],
      "name": "nextEscrowId",
      "outputs": [
        {
          "internalType": "uint256",
          "name": "",
          "type": "uint256"
        }
      ],
      "stateMutability": "view",
      "type": "function"
    },
    {
      "inputs": [
        {
          "internalType": "uint256",
          "name": "escrowId",
          "type": "uint256"
        }
      ],
      "name": "openDispute",
      "outputs": [],
      "stateMutability": "nonpayable",
      "type": "function"
    },
    {
      "inputs": [],
      "name": "oracleBond",
      "outputs": [
        {
          "internalType": "uint256",
          "name": "",
          "type": "uint256"
        }
      ],
      "stateMutability": "view",
      "type": "function"
    },
    {
      "inputs": [
        {
          "internalType": "address",
          "name": "",
          "type": "address"
        }
      ],
      "name": "oracleBonds",
      "outputs": [
        {
          "internalType": "uint256",
          "name": "",
          "type": "uint256"
        }
      ],
      "stateMutability": "view",
      "type": "function"
    },
    {
      "inputs": [],
      "name": "oracleQuorum",
      "outputs": [
        {
          "internalType": "uint256",
          "name": "",
          "type": "uint256"
        }
      ],
      "stateMutability": "view",
      "type": "function"
    },
    {
      "inputs": [
        {
          "internalType": "address",
          "name": "",
          "type": "address"
        }
      ],
      "name": "oracleSlashCount",
      "outputs": [
        {
          "internalType": "uint256",
          "name": "",
          "type": "uint256"
        }
      ],
      "stateMutability": "view",
      "type": "function"
    },
    {
      "inputs": [],
      "name": "owner",
      "outputs": [
        {
          "internalType": "address",
          "name": "",
          "type": "address"
        }
      ],
      "stateMutability": "view",
      "type": "function"
    },
    {
      "inputs": [],
      "name": "pause",
      "outputs": [],
      "stateMutability": "nonpayable",
      "type": "function"
    },
    {
      "inputs": [],
      "name": "paused",
      "outputs": [
        {
          "internalType": "bool",
          "name": "",
          "type": "bool"
        }
      ],
      "stateMutability": "view",
      "type": "function"
    },
    {
      "inputs": [
        {
          "internalType": "uint256",
          "name": "",
          "type": "uint256"
        }
      ],
      "name": "pendingDeadline",
      "outputs": [
        {
          "internalType": "uint256",
          "name": "",
          "type": "uint256"
        }
      ],
      "stateMutability": "view",
      "type": "function"
    },
    {
      "inputs": [],
      "name": "postBond",
      "outputs": [],
      "stateMutability": "payable",
      "type": "function"
    },
    {
      "inputs": [
        {
          "internalType": "uint256",
          "name": "escrowId",
          "type": "uint256"
        },
        {
          "internalType": "uint256",
          "name": "newDeadline",
          "type": "uint256"
        }
      ],
      "name": "proposeDeadlineExtension",
      "outputs": [],
      "stateMutability": "nonpayable",
      "type": "function"
    },
    {
      "inputs": [
        {
          "internalType": "uint256",
          "name": "escrowId",
          "type": "uint256"
        }
      ],
      "name": "releaseEscrow",
      "outputs": [],
      "stateMutability": "nonpayable",
      "type": "function"
    },
    {
      "inputs": [],
      "name": "renounceOwnership",
      "outputs": [],
      "stateMutability": "nonpayable",
      "type": "function"
    },
    {
      "inputs": [],
      "name": "requiredConfirmations",
      "outputs": [
        {
          "internalType": "uint256",
          "name": "",
          "type": "uint256"
        }
      ],
      "stateMutability": "view",
      "type": "function"
    },
    {
      "inputs": [
        {
          "internalType": "uint256",
          "name": "",
          "type": "uint256"
        },
        {
          "internalType": "address",
          "name": "",
          "type": "address"
        }
      ],
      "name": "slashedFor",
      "outputs": [
        {
          "internalType": "bool",
          "name": "",
          "type": "bool"
        }
      ],
      "stateMutability": "view",
      "type": "function"
    },
    {
      "inputs": [
        {
          "internalType": "uint256",
          "name": "escrowId",
          "type": "uint256"
        },
        {
          "internalType": "bool",
          "name": "vgmMatch",
          "type": "bool"
        },
        {
          "internalType": "bool",
          "name": "aisDeparted",
          "type": "bool"
        },
        {
          "internalType": "bool",
          "name": "ceisaApproved",
          "type": "bool"
        },
        {
          "internalType": "bool",
          "name": "eblCidValid",
          "type": "bool"
        },
        {
          "internalType": "bool",
          "name": "inspectionPassed",
          "type": "bool"
        }
      ],
      "name": "submitAttestation",
      "outputs": [],
      "stateMutability": "nonpayable",
      "type": "function"
    },
    {
      "inputs": [
        {
          "internalType": "address",
          "name": "newOwner",
          "type": "address"
        }
      ],
      "name": "transferOwnership",
      "outputs": [],
      "stateMutability": "nonpayable",
      "type": "function"
    },
    {
      "inputs": [],
      "name": "treasury",
      "outputs": [
        {
          "internalType": "uint256",
          "name": "",
          "type": "uint256"
        }
      ],
      "stateMutability": "view",
      "type": "function"
    },
    {
      "inputs": [],
      "name": "unpause",
      "outputs": [],
      "stateMutability": "nonpayable",
      "type": "function"
    },
    {
      "inputs": [
        {
          "internalType": "uint256",
          "name": "escrowId",
          "type": "uint256"
        },
        {
          "internalType": "bool",
          "name": "releaseToExporter",
          "type": "bool"
        }
      ],
      "name": "voteDisputeResolution",
      "outputs": [],
      "stateMutability": "nonpayable",
      "type": "function"
    },
    {
      "inputs": [],
      "name": "withdrawTreasury",
      "outputs": [],
      "stateMutability": "nonpayable",
      "type": "function"
    }
  ],
  "bytecode": "0x604060e081523462000418576200374e803803806200001e8162000433565b92833981019060a08183031262000418576200003a8162000459565b6020828101519093906001600160401b0390818111620004185784019180601f84011215620004185782519182116200041d5760059282841b9087806200008381850162000433565b809681520192820101928311620004185787809101915b838310620003fd57505050508386015160608501516080909501519590936001600160a01b0390811691908215620003e557600080546001600160a01b031980821686178355919591949083167f8be0079c531659141344cd1fd0a4f28419497f9722a3daafe3b4186f6b6457e08780a3600195867f9b779b17422d0df92223018b32b4d1fa46e071723d6817e2486d003becc55f0055868810620003af57878251106200036b57881562000337578915620002f3579489948994899489948e99859b5b620001af575b8a8a8a8a60a05260c052608052516132df90816200046f8239608051818181610a6b01526131b6015260a051818181610d9601526125e1015260c0518181816101a201526102d60152f35b81518c1015620002ed5782848d831b84010151168015620002a957808752600280865260ff8d89205416620002725781885285528b8720805460ff1916891790558754680100000000000000008110156200025e57888101808a558110156200024a578888528588200190868254161790556000198c1462000236579a86019a866200015e565b634e487b7160e01b86526011600452602486fd5b634e487b7160e01b88526032600452602488fd5b634e487b7160e01b88526041600452602488fd5b8c5162461bcd60e51b815260048101879052601060248201526f6475706c6963617465206f7261636c6560801b6044820152606490fd5b8b5162461bcd60e51b815260048101869052601360248201527f6f7261636c65207a65726f2061646472657373000000000000000000000000006044820152606490fd5b62000164565b8a5162461bcd60e51b815260048101859052601660248201527f636f6e6669726d6174696f6e73207265717569726564000000000000000000006044820152606490fd5b8a5162461bcd60e51b815260048101859052600d60248201526c189bdb99081c995c5d5a5c9959609a1b6044820152606490fd5b8a5162461bcd60e51b815260048101859052601d60248201527f6e6f7420656e6f756768206f7261636c657320666f722071756f72756d0000006044820152606490fd5b8a5162461bcd60e51b815260048101859052600f60248201526e1c5d5bdc9d5b481c995c5d5a5c9959608a1b6044820152606490fd5b8851631e4fbdf760e01b815260006004820152602490fd5b81906200040a8462000459565b81520191019087906200009a565b600080fd5b634e487b7160e01b600052604160045260246000fd5b6040519190601f01601f191682016001600160401b038111838210176200041d57604052565b51906001600160a01b0382168203620004185756fe608080604052600436101561001357600080fd5b60003560e01c90816308fa40f9146121cb5750806309f8d4a8146121065780631499d0d3146120ab578063166bab9514611f9c57806317131dc714611ea6578063177f318f146115d957806327d00fb0146114db5780632846d075146113925780632ec85e53146113455780633f4ba83a146112d357806340884c52146111715780635673227a14610fe15780635b7baf6414610eca5780635c975abb14610ea457806361d027b314610e86578063671ee26d14610e4c5780636c9bc51e14610e12578063715018a614610db957806378ea2dd914610d7e5780637d19e59614610a8e57806382e717f714610a535780638456cb59146109f157806389cb29dd146109d35780638da5cb5b146109aa578063933cd8de1461098d57806393fdec6614610959578063a1b5b23f1461092d578063a97e5c93146108ee578063db6ea08414610686578063ed65316414610573578063f19675a114610253578063f2fde38b146101ca5763f36ae08a1461018a57600080fd5b346101c55760003660031901126101c55760206040517f00000000000000000000000000000000000000000000000000000000000000008152f35b600080fd5b346101c55760203660031901126101c5576101e3612229565b6101eb6122ef565b6001600160a01b0390811690811561023a57600054826001600160601b0360a01b821617600055167f8be0079c531659141344cd1fd0a4f28419497f9722a3daafe3b4186f6b6457e0600080a3005b604051631e4fbdf760e01b815260006004820152602490fd5b346101c55760c03660031901126101c55760043561026f6122e0565b9060443591821515928381036101c557606435908115158083036101c557608435801515918282036101c55760a43592831515918285036101c5573360005260209960028b526102c660ff6040600020541661231b565b3360005260038b526040600020547f000000000000000000000000000000000000000000000000000000000000000011610537576103026124b1565b61030a6124d2565b60008a815260078c52604090206002015461032f906001600160a01b03161515612502565b8960005260078b5260ff600960406000200154166005811015610521578015908115610516575b50156104d9576104bd9361046a8b99979461044d7f15ccb9033ff50bbe3d85b45f0dbae632de5277822c4c1d078bf290468281c32b9a98956104c59f8d968f61041990610432936040519a6103aa8c612391565b60018c52818c01921515835260408c0194855260608c0196875260808c0198895260a08c019a8b52600052600b8152604060002090336000525261040260406000209a5115158b9060ff801983541691151516179055565b51895461ff00191690151560081b61ff0016178955565b51875462ff0000191690151560101b62ff000016178755565b51855463ff000000191690151560181b63ff00000016178555565b51835464ff00000000191690151560201b64ff0000000016178355565b51815465ff0000000000191690151560281b65ff000000000016179055604080519815158952931515602089015293151592870192909252911515606086015215156080850152339390819060a0820190565b0390a36125ac565b600160008051602061328a83398151915255005b60405162461bcd60e51b8152600481018c90526015602482015274657363726f77206e6f742076657269666961626c6560581b6044820152606490fd5b60019150148c610356565b634e487b7160e01b600052602160045260246000fd5b60405162461bcd60e51b8152600481018c905260146024820152731bdc9858db1948189bdb99081c995c5d5a5c995960621b6044820152606490fd5b346101c55760203660031901126101c55760043561058f6124b1565b6105976124d2565b6000818152600760205260409020600201546105bd906001600160a01b03161515612502565b806000526007602052604060002060ff600982015416600581101561052157806105ec60026004931415612b93565b6105f96003821415612bdf565b1461064f5761060790613198565b15610615576104c590612e99565b60405162461bcd60e51b815260206004820152601260248201527118dbdb991a5d1a5bdb9cc81b9bdd081b595d60721b6044820152606490fd5b60405162461bcd60e51b815260206004820152600f60248201526e195cd8dc9bddc8191a5cdc1d5d1959608a1b6044820152606490fd5b346101c55760403660031901126101c5576004356106a26122e0565b6106aa6124b1565b6106b26124d2565b81600052602090600782526106d860018060a01b03600260406000200154161515612502565b8260005260078252604060002060ff91826009830154166005811015610521576004036108b35761071161070c338461323d565b612c2b565b84600052600884526040600020336000528452826040600020541661087e5790600c9185600052600885526040600020336000528552604060002060ff19906001828254161790558160001461084e578383019081549086610774818416612c6a565b1691161790555b6040519015158152857ff85c096b53a9070fd926a1edca76662dbe81762ead01d03522520e8eef6c752e863393a301546002828216106107fe5750507f5a87909bff68caaaaf0b3fd9c74eeccc928832f879315e5c6fb7a73612f26c0c906107e283612e99565b60405160018152a2600160008051602061328a83398151915255005b9060029160081c161015610814575b50506104c5565b7f5a87909bff68caaaaf0b3fd9c74eeccc928832f879315e5c6fb7a73612f26c0c9061083f8361309a565b60405160008152a2808061080d565b5061087983830161086486825460081c16612c6a565b61ff0082549160081b169061ff001916179055565b61077b565b60405162461bcd60e51b815260048101859052600d60248201526c185b1c9958591e481d9bdd1959609a1b6044820152606490fd5b60405162461bcd60e51b8152600481018590526013602482015272195cd8dc9bddc81b9bdd08191a5cdc1d5d1959606a1b6044820152606490fd5b346101c55760203660031901126101c5576001600160a01b0361090f612229565b166000526002602052602060ff604060002054166040519015158152f35b346101c55760203660031901126101c55760043560005260096020526020604060002054604051908152f35b346101c55760203660031901126101c557600435600052600a602052602060018060a01b0360406000205416604051908152f35b346101c55760003660031901126101c55760206040516113888152f35b346101c55760003660031901126101c5576000546040516001600160a01b039091168152602090f35b346101c55760003660031901126101c5576020600654604051908152f35b346101c55760003660031901126101c557610a0a6122ef565b610a126124b1565b6000805460ff60a01b1916600160a01b1790556040513381527f62e78cea01bee320cd4e420270b5ea74000d11b0c9f74754ebdbfc544b05a25890602090a1005b346101c55760003660031901126101c55760206040517f00000000000000000000000000000000000000000000000000000000000000008152f35b346101c55760203660031901126101c5576004356000610180604051610ab3816123ac565b828152826020820152826040820152826060820152606060808201528260a08201528260c0820152606060e0820152606061010082015282610120820152610af9612d3b565b61014082015261016081018390520152600081815260076020526040902060020154610b2f906001600160a01b03161515612502565b6000526007602052604060002060405190610b49826123ac565b8054825260018101546001600160a01b0390811660208401526002820154811660408401526003820154166060830152610b8560048201612d6d565b6080830152600581015460a0830152600681015460c0830152610baa60078201612d6d565b60e0830152610bbb60088201612d6d565b61010083015260ff60098201541660058110156105215760ff91600c91610120850152604051610bea81612391565b83600a83015481811615158352818160081c1615156020840152818160101c1615156040840152818160181c161515606084015260201c1615156080820152600b82015460a0820152610140850152015481811661016084015260081c1661018082015260405190602082528051602083015260018060a01b03602082015116604083015260018060a01b03604082015116606083015260018060a01b036060820151166080830152610cf9610cb1608083015161024060a08601526102608501906122a0565b60a083015160c085015260c083015160e0850152610ce260e084015191601f199283878303016101008801526122a0565b9061010084015190858303016101208601526122a0565b6101208201519160058310156105215761018060ff91859461014086015260a0610140820151805115156101608801526020810151151584880152604081015115156101a0880152606081015115156101c0880152608081015115156101e0880152015161020086015282610160820151166102208601520151166102408301520390f35b346101c55760003660031901126101c55760206040517f00000000000000000000000000000000000000000000000000000000000000008152f35b346101c55760003660031901126101c557610dd26122ef565b600080546001600160a01b0319811682556001600160a01b03167f8be0079c531659141344cd1fd0a4f28419497f9722a3daafe3b4186f6b6457e08280a3005b346101c55760203660031901126101c5576001600160a01b03610e33612229565b1660005260036020526020604060002054604051908152f35b346101c55760203660031901126101c5576001600160a01b03610e6d612229565b1660005260046020526020604060002054604051908152f35b346101c55760003660031901126101c5576020600554604051908152f35b346101c55760003660031901126101c557602060ff60005460a01c166040519015158152f35b346101c55760203660031901126101c557600435610ee66124b1565b610eee6124d2565b6000818152600760205260409020600201546001600160a01b0390610f169082161515612502565b8160005260076020526040600020906002820154163303610fac5760ff60098201541690600582101561052157610f5f600383610f5860026005961415612b93565b1415612bdf565b0154421115610f71576104c59061309a565b60405162461bcd60e51b8152602060048201526013602482015272191958591b1a5b99481b9bdd081c185cdcd959606a1b6044820152606490fd5b60405162461bcd60e51b815260206004820152600d60248201526c37b7363c9034b6b837b93a32b960991b6044820152606490fd5b346101c5576020806003193601126101c55760043590610fff6124b1565b60008281526007825260409020600201546001600160a01b03906110269082161515612502565b8260005260078252604060002060ff600982015416600581101561052157806110589115908115611166575b50612c7c565b8160028201541633148015611157575b61107190612cbf565b836000526009835260406000205491821561111b5784600052600a84526040600020541633146110d657908060057f073d5fd87a7e0c2a384727f9aab2e84826370623aba582638b425a417e799a2c949301556110cd84612e6e565b604051908152a2005b60405162461bcd60e51b815260048101849052601760248201527f70726f706f7365722063616e6e6f7420617070726f76650000000000000000006044820152606490fd5b60405162461bcd60e51b81526004810185905260146024820152733737903832b73234b7339032bc3a32b739b4b7b760611b6044820152606490fd5b50600181015482163314611068565b600191501486611052565b346101c55760003660031901126101c557600180549061119082612e11565b9161119e60405193846123e3565b8083526111aa81612e11565b602084810191601f19013683376111c083612e28565b906111ca84612e28565b9360005b8181106112425750506040519586956060870191606088525180925260808701949160005b81811061122357888703858a0152888061121f8a6112118b8b61226c565b90838203604085015261226c565b0390f35b83516001600160a01b03168752899850958401959284019282016111f3565b806112556112c892989495969798612541565b90546001600160a01b039160039190821b1c8216611273848d612e5a565b528161127e84612541565b905490831b1c1660005280875260406000205461129b848a612e5a565b526112a583612541565b9054911b1c16600052600485526040600020546112c2828a612e5a565b52612382565b9594939291956111ce565b346101c55760003660031901126101c5576112ec6122ef565b60005460ff8160a01c16156113335760ff60a01b19166000556040513381527f5db9ee0a495bf2e6ff9c91a7834c1ba4fdd244a5e8aa4e537bd38aeae4b073aa90602090a1005b604051638dfc202b60e01b8152600490fd5b346101c55760403660031901126101c55761135e612213565b600435600052600c60205260406000209060018060a01b0316600052602052602060ff604060002054166040519015158152f35b346101c55760403660031901126101c5576024356004356113b16124b1565b8060005260206007815260018060a01b036113d781600260406000200154161515612502565b8260005260078252604060002060ff60098201541660058110156105215760059261140e8261142593159081156114d05750612c7c565b8060028401541633149081156114c0575b50612cbf565b0154831115611485577f903ac8c4b8795fb6d54c897c4e7ac26e26699d8cec993e5ea924d50e69a73a2790826000526009815283604060002055600a81526040600020336001600160601b0360a01b8254161790556040519384523393a3005b6064906040519062461bcd60e51b8252600482015260146024820152736d75737420657874656e6420646561646c696e6560601b6044820152fd5b905060018301541633148761141f565b600191501489611052565b346101c55760203660031901126101c5576004356114f76124b1565b60008181526007602052604090206002015461151d906001600160a01b03161515612502565b80600052600760205260406000206009810190815460ff811660058110156105215780159081156115ce575b50156115985761155f61070c600493339061323d565b60ff191617905561156f81612e6e565b33907f44f3c3ed15c708331582bc379d28659a58f183a563abe41aa4c8889db469f71c600080a3005b60405162461bcd60e51b815260206004820152600e60248201526d63616e6e6f74206469737075746560901b6044820152606490fd5b600191501485611549565b60c03660031901126101c5576004356001600160a01b03811681036101c557611600612213565b60449081356001600160401b0381116101c55761162190369060040161223f565b93906084356001600160401b0381116101c55761164290369060040161223f565b959060a4356001600160401b0381116101c55761166390369060040161223f565b9661166c6124b1565b6116746124d2565b3415611e6a576001600160a01b03861615611e2e576001600160a01b03871615611df357426064351115611daf578315611d78578715611d3b5750600654966116bc88612382565b600655604051986116cc8a612391565b60008a52600060208b0152600060408b0152600060608b0152600060808b0152600060a08b0152604051996117008b6123ac565b348b526001600160a01b0388811660208d01523360408d0152891660608c015261172b36878961241f565b60808c015260643560a08c01524360c08c015261174936838761241f565b60e08c015261175936848661241f565b6101008c015260006101208c01526101408b015260006101608b015260006101808b01528860005260076020526040600020938a5185556001850160018060a01b0360208d015116906001600160601b0360a01b9182825416179055600286018c604060018060a01b03910151168282541617905560038601908c606060018060a01b03910151169082541617905560808b01518051906001600160401b038211611b8557819061180d6004890154612456565b601f8111611ce8575b50602090601f8311600114611c7657600092611c6b575b50508160011b916000199060031b1c19161760048601555b60a08b0151600586015560c08b0151600686015560e08b01518051906001600160401b038211611b8557819061187e6007890154612456565b601f8111611c18575b50602090601f8311600114611ba657600092611b9b575b50508160011b916000199060031b1c19161760078601555b6101008b01518051906001600160401b038211611b855781906118dc6008890154612456565b601f8111611b32575b50602090601f8311600114611ac057600092611ab5575b50508160011b916000199060031b1c19161760088601555b6101208b015191600583101561052157611a648b987f7d94eb80dd12e87bd072cfa504c5cb51a379311aaee1f4730e7a5ba63eee7c0098611a3d60209f9660ff610180611a7299600c8e611a809f6009018519968688835416911617905560a0600a8201611a0d6101408601519161199b83511515829060ff801983541691151516179055565b6020830151815461ff00191690151560081b61ff00161781556040830151815462ff0000191690151560101b62ff0000161781556060830151815463ff000000191690151560181b63ff000000161781556080830151815464ff00000000191690151560201b64ff0000000016179055565b0151600b820155019383610160830151169085541617845501511661ff0082549160081b169061ff001916179055565b604080516001600160a01b03909e168e523460208f015260c0908e018190528d0191612490565b918a830360608c0152612490565b918783036080890152612490565b60643560a08601526001600160a01b0390931693339381900390a4600160008051602061328a83398151915255604051908152f35b015190508d806118fc565b9250600888016000526020600020906000935b601f1984168510611b17576001945083601f19811610611afe575b505050811b016008860155611914565b015160001960f88460031b161c191690558d8080611aee565b81810151835560209485019460019093019290910190611ad3565b909150600888016000526020600020601f840160051c810160208510611b7e575b90849392915b601f830160051c82018110611b6f5750506118e5565b60008155859450600101611b59565b5080611b53565b634e487b7160e01b600052604160045260246000fd5b015190508d8061189e565b9250600788016000526020600020906000935b601f1984168510611bfd576001945083601f19811610611be4575b505050811b0160078601556118b6565b015160001960f88460031b161c191690558d8080611bd4565b81810151835560209485019460019093019290910190611bb9565b909150600788016000526020600020601f840160051c810160208510611c64575b90849392915b601f830160051c82018110611c55575050611887565b60008155859450600101611c3f565b5080611c39565b015190508d8061182d565b9250600488016000526020600020906000935b601f1984168510611ccd576001945083601f19811610611cb4575b505050811b016004860155611845565b015160001960f88460031b161c191690558d8080611ca4565b81810151835560209485019460019093019290910190611c89565b909150600488016000526020600020601f840160051c810160208510611d34575b90849392915b601f830160051c82018110611d25575050611816565b60008155859450600101611d0f565b5080611d09565b6064907518dbdb9d185a5b995c881c9959881c995c5d5a5c995960521b6040519162461bcd60e51b83526020600484015260166024840152820152fd5b6064906f1950930810d251081c995c5d5a5c995960821b6040519162461bcd60e51b83526020600484015260106024840152820152fd5b6064907f646561646c696e65206d757374206265206675747572650000000000000000006040519162461bcd60e51b83526020600484015260176024840152820152fd5b6064907361726269746572207a65726f206164647265737360601b6040519162461bcd60e51b83526020600484015260146024840152820152fd5b606490746578706f72746572207a65726f206164647265737360581b6040519162461bcd60e51b83526020600484015260156024840152820152fd5b60649074195cd8dc9bddc81d985b1d59481c995c5d5a5c9959605a1b6040519162461bcd60e51b83526020600484015260156024840152820152fd5b346101c55760403660031901126101c55760c0600435611ec4612213565b611ecc612d3b565b50816000526020916007835260018060a01b0390611ef582600260406000200154161515612502565b600052600b8352604060002091166000528152604060002060405190611f1a82612391565b549060ff80831615159384835280830190828560081c16151582526040840191838660101c16151583526060850193808760181c161515855260a060808701968289861c1615158852019660281c16151586526040519687525115159086015251151560408501525115156060840152511515608083015251151560a0820152f35b346101c55760003660031901126101c557611fb56122ef565b611fbd6124d2565b600554801561207557600060055560018060a01b03600080808085858254165af1611fe6612d0b565b50156120305760207f41fdd680478135993bc53fb2ffaf9560951b57ef62ff6badd02b61e018b4f17f916000541692604051908152a2600160008051602061328a83398151915255005b60405162461bcd60e51b815260206004820152601860248201527f7472656173757279207472616e73666572206661696c656400000000000000006044820152606490fd5b60405162461bcd60e51b815260206004820152600e60248201526d747265617375727920656d70747960901b6044820152606490fd5b346101c55760203660031901126101c5576004356000818152600760205260409020600201546120e5906001600160a01b03161515612502565b600052600760205260206120fc6040600020613198565b6040519015158152f35b60003660031901126101c55733600052600260205261212c60ff6040600020541661231b565b341561219057336000526003602052604060002061214b34825461235f565b90553360005260036020526040600020546040519034825260208201527fecf4efda7b90489a0fadeef730ab4b3e4304905f48810daa0bb2738a4233b6d360403392a2005b60405162461bcd60e51b8152602060048201526013602482015272189bdb99081d985b1d59481c995c5d5a5c9959606a1b6044820152606490fd5b346101c55760403660031901126101c5576020906121e7612213565b60043560009081526008845260408082206001600160a01b039093168252918452205460ff1615158152f35b602435906001600160a01b03821682036101c557565b600435906001600160a01b03821682036101c557565b9181601f840112156101c5578235916001600160401b0383116101c557602083818601950101116101c557565b90815180825260208080930193019160005b82811061228c575050505090565b83518552938101939281019260010161227e565b919082519283825260005b8481106122cc575050826000602080949584010152601f8019910116010190565b6020818301810151848301820152016122ab565b6024359081151582036101c557565b6000546001600160a01b0316330361230357565b60405163118cdaa760e01b8152336004820152602490fd5b1561232257565b60405162461bcd60e51b81526020600482015260156024820152746e6f7420636f6e736f727469756d206f7261636c6560581b6044820152606490fd5b9190820180921161236c57565b634e487b7160e01b600052601160045260246000fd5b600019811461236c5760010190565b60c081019081106001600160401b03821117611b8557604052565b6101a081019081106001600160401b03821117611b8557604052565b60a081019081106001600160401b03821117611b8557604052565b90601f801991011681019081106001600160401b03821117611b8557604052565b6001600160401b038111611b8557601f01601f191660200190565b92919261242b82612404565b9161243960405193846123e3565b8294818452818301116101c5578281602093846000960137010152565b90600182811c92168015612486575b602083101461247057565b634e487b7160e01b600052602260045260246000fd5b91607f1691612465565b908060209392818452848401376000828201840152601f01601f1916010190565b60ff60005460a01c166124c057565b60405163d93c066560e01b8152600490fd5b60008051602061328a83398151915260028154146124f05760029055565b604051633ee5aeb560e01b8152600490fd5b1561250957565b60405162461bcd60e51b815260206004820152601060248201526f195cd8dc9bddc81b9bdd08199bdd5b9960821b6044820152606490fd5b6001548110156125785760016000527fb10e2d527612073b26eecdfd717e6a320cf44b4afac2b0732d9fcbe2b7fa0cf60190600090565b634e487b7160e01b600052603260045260246000fd5b9060058110156125785760051b0190565b9190820391821161236c57565b908160005260076020526040600020906000906040516125cb816123c8565b60a036823760015460005b818110612a975750507f0000000000000000000000000000000000000000000000000000000000000000808410612a8f5760405193612614856123c8565b60a036863760005b60058110612a3557505050506127048251151560208401511515906126e6604086015115156126cc60608801511515916126b460808a015115159660405161266381612391565b87815281602082015283604082015285606082015288608082015260a04391015261269e600a8d0197889060ff801983541691151516179055565b865461ff00191690151560081b61ff0016178655565b845462ff0000191690151560101b62ff000016178455565b825463ff000000191690151560181b63ff00000016178255565b9064ff00000000825491151560201b169064ff000000001916179055565b43600b84015581516020808401516040808601516060808801516080808a015185519815158952951515968801969096529115159286019290925215159084015215159082015284907fa3a15a879fd4d81fac126e1edb30ae448de83e861b55a861525e4a2312db1d149060a090a260005b6001548110156129d35761278981612541565b90549086600052600b602052604060002060018060a01b03838360031b1c1660005260205260406000205460ff908181161580156129a3575b6129965786511515828260081c161515149182159261297d575b8215612964575b821561294b575b8215612931575b5050156129265786600052600c602052604060002060018060a01b03838360031b1c166000526020526040600020600160ff198254161790556004918260205260406000206128408154612382565b905560018060a01b03818360031b1c166000526003602052604060002054926113889084828102048214851517156129115750602084938a9361271084817f9e93c4115fa6c7b0864a880d26c2cd59aa615d18a0ee3ece84441cd1a3a4328d966128cb9b9a02046128d0575b604051970204865260039190911b1c6001600160a01b031693a3612382565b612776565b6128de82828a02048961259f565b60018060a01b03848660031b1c1660005260038652604060002055600561290a83838b0204825461235f565b90556128ac565b601190634e487b7160e01b6000525260246000fd5b50506128cb90612382565b909150608087015115159160281c161515141538806127f1565b915060608701511515828260201c1615151415916127ea565b915060408701511515828260181c1615151415916127e3565b915060208701511515828260101c1615151415916127dc565b505050506128cb90612382565b5088600052600c602052604060002060018060a01b03858560031b1c1660005260205281604060002054166127c2565b50929190506129e1816131e1565b80612a1b575b906129f591612a0757613198565b6129fc5750565b612a0590612e99565b565b60098101805460ff19166001179055613198565b5060ff6009820154169060058210156105215790156129e7565b82612a40828661258e565b5110612a5b578060016112c2612a56938961258e565b61261c565b82612a70612a69838761258e565b518461259f565b10612a85578060006112c2612a56938961258e565b5050505092505050565b505092505050565b86600052600b6020526040600020612aae82612541565b60018060a01b0391549060031b1c166000526020526040600020549460ff9081871615612b875790612ae3612b1d9392612382565b96818160081c16612b76575b818160101c16612b61575b818160181c16612b4c575b818160201c16612b37575b60281c16612b2257612382565b6125d6565b60808401612b308151612382565b9052612382565b60608601612b458151612382565b9052612b10565b60408601612b5a8151612382565b9052612b05565b60208601612b6f8151612382565b9052612afa565b612b808651612382565b8652612aef565b955050612b1d90612382565b15612b9a57565b60405162461bcd60e51b815260206004820152601860248201527f657363726f7720616c726561647920636f6d706c6574656400000000000000006044820152606490fd5b15612be657565b60405162461bcd60e51b815260206004820152601760248201527f657363726f7720616c726561647920726566756e6465640000000000000000006044820152606490fd5b15612c3257565b60405162461bcd60e51b815260206004820152601060248201526f6e6f7420657363726f7720706172747960801b6044820152606490fd5b60ff60019116019060ff821161236c57565b15612c8357565b60405162461bcd60e51b8152602060048201526014602482015273657363726f77206e6f7420616d656e6461626c6560601b6044820152606490fd5b15612cc657565b60405162461bcd60e51b815260206004820152601960248201527f6f6e6c7920696d706f72746572206f72206578706f72746572000000000000006044820152606490fd5b3d15612d36573d90612d1c82612404565b91612d2a60405193846123e3565b82523d6000602084013e565b606090565b60405190612d4882612391565b8160a06000918281528260208201528260408201528260608201528260808201520152565b9060405191826000825492612d8184612456565b908184526001948581169081600014612dee5750600114612dab575b5050612a05925003836123e3565b9093915060005260209081600020936000915b818310612dd6575050612a0593508201013880612d9d565b85548884018501529485019487945091830191612dbe565b915050612a0594506020925060ff191682840152151560051b8201013880612d9d565b6001600160401b038111611b855760051b60200190565b90612e3282612e11565b612e3f60405191826123e3565b8281528092612e50601f1991612e11565b0190602036910137565b80518210156125785760209160051b010190565b600052600960205260006040812055600a60205260406000206001600160601b0360a01b8154169055565b60009080825260209160078352604080822090600982019485549060ff8216600581101561308657600381610f586002612ed4941415612b93565b835485855560ff19928316600217909755612eee86612e6e565b6001968785019060018060a01b03918780808085878654165af1612f10612d0b565b5015613042577f6e3c6096795c8298a218b2cfb8bde42726ff7c9a3d27b4d3ba41ab7f74feb5fb84848b935416938851908152a3600260048601950154169683519582875280958054612f6281612456565b9586868b01528482169182600014613003575050600114612fad575b50505050505090807fbf3252966f322ae253fc5b3cd0805ad081276783c8537a30cd4ba5020f3e212b920390a3565b9080959650528184205b838510612ff05750505050820101817fbf3252966f322ae253fc5b3cd0805ad081276783c8537a30cd4ba5020f3e212b38808080612f7e565b8054878601870152938201938101612fb7565b16878a01525050505050151560051b8301019050817fbf3252966f322ae253fc5b3cd0805ad081276783c8537a30cd4ba5020f3e212b38808080612f7e565b855162461bcd60e51b815260048101859052601860248201527f6578706f72746572207472616e73666572206661696c656400000000000000006044820152606490fd5b634e487b7160e01b86526021600452602486fd5b60009080825260076020526040822091600983019283549360ff8516600581101561318457906130d5600383610f5860028097961415612b93565b600382549685845560ff19161790556130ed84612e6e565b0160018060a01b039180808087868654165af1613108612d0b565b501561313f577f7ca5472b7ea78c2c0141c5a12ee6d170cf4ce8ed06be3d22c8252ddfc7a6a2c491602091541693604051908152a3565b60405162461bcd60e51b815260206004820152601860248201527f696d706f72746572207472616e73666572206661696c656400000000000000006044820152606490fd5b634e487b7160e01b84526021600452602484fd5b6131a1816131e1565b90816131ab575090565b6131db9150600601547f00000000000000000000000000000000000000000000000000000000000000009061235f565b43101590565b600a015460ff8116908161322e575b8161321f575b81613210575b81613205575090565b60ff915060201c1690565b905060ff8160181c16906131fc565b905060ff8160101c16906131f6565b905060ff8160081c16906131f0565b60028101546001600160a01b0392831690831681149290918315613279575b8315613269575b50505090565b6003015416149050388080613263565b600181015482168314935061325c56fe9b779b17422d0df92223018b32b4d1fa46e071723d6817e2486d003becc55f00a264697066735822122076e5534474910607e8798493e285b6dd3f79084e42b0e90fc03ad3cf0af08ea564736f6c63430008140033",
  "linkReferences": {},
  "deployedLinkReferences": {}
}